{
  "_format": "hh-sol-artifact-1",
  "contractName": "ZirconPylon",
  "sourceName": "contracts/ZirconPylon.sol",
  "abi": [
    {
      "inputs": [],
      "payable": false,
      "stateMutability": "nonpayable",
      "type": "constructor"
    },
    {
      "anonymous": false,
      "inputs": [
        {
          "indexed": false,
          "internalType": "address",
          "name": "sender",
          "type": "address"
        },
        {
          "indexed": false,
          "internalType": "uint256",
          "name": "aIn0",
          "type": "uint256"
        },
        {
          "indexed": false,
          "internalType": "bool",
          "name": "isAnchor",
          "type": "bool"
        }
      ],
      "name": "Burn",
      "type": "event"
    },
    {
      "anonymous": false,
      "inputs": [
        {
          "indexed": false,
          "internalType": "address",
          "name": "sender",
          "type": "address"
        },
        {
          "indexed": false,
          "internalType": "uint256",
          "name": "aIn0",
          "type": "uint256"
        },
        {
          "indexed": false,
          "internalType": "uint256",
          "name": "aIn1",
          "type": "uint256"
        }
      ],
      "name": "BurnAsync",
      "type": "event"
    },
    {
      "anonymous": false,
      "inputs": [
        {
          "indexed": false,
          "internalType": "address",
          "name": "sender",
          "type": "address"
        },
        {
          "indexed": false,
          "internalType": "uint256",
          "name": "aIn0",
          "type": "uint256"
        },
        {
          "indexed": false,
          "internalType": "uint256",
          "name": "aIn1",
          "type": "uint256"
        }
      ],
      "name": "MintAsync",
      "type": "event"
    },
    {
      "anonymous": false,
      "inputs": [
        {
          "indexed": false,
          "internalType": "address",
          "name": "sender",
          "type": "address"
        },
        {
          "indexed": false,
          "internalType": "uint256",
          "name": "aIn0",
          "type": "uint256"
        },
        {
          "indexed": false,
          "internalType": "bool",
          "name": "isAnchor",
          "type": "bool"
        }
      ],
      "name": "MintSync",
      "type": "event"
    },
    {
      "anonymous": false,
      "inputs": [
        {
          "indexed": false,
          "internalType": "uint256",
          "name": "_vab",
          "type": "uint256"
        },
        {
          "indexed": false,
          "internalType": "uint256",
          "name": "_vfb",
          "type": "uint256"
        },
        {
          "indexed": false,
          "internalType": "uint256",
          "name": "_gamma",
          "type": "uint256"
        }
      ],
      "name": "PylonSync",
      "type": "event"
    },
    {
      "anonymous": false,
      "inputs": [
        {
          "indexed": false,
          "internalType": "uint256",
          "name": "_reserve0",
          "type": "uint256"
        },
        {
          "indexed": false,
          "internalType": "uint256",
          "name": "_reserve1",
          "type": "uint256"
        }
      ],
      "name": "PylonUpdate",
      "type": "event"
    },
    {
      "constant": true,
      "inputs": [],
      "name": "EMABlockNumber",
      "outputs": [
        {
          "internalType": "uint256",
          "name": "",
          "type": "uint256"
        }
      ],
      "payable": false,
      "stateMutability": "view",
      "type": "function"
    },
    {
      "constant": true,
      "inputs": [
        {
          "internalType": "uint256",
          "name": "_virtualAnchorBalance",
          "type": "uint256"
        },
        {
          "internalType": "uint256",
          "name": "_anchorKFactor",
          "type": "uint256"
        },
        {
          "internalType": "uint256",
          "name": "_pylonReserve1",
          "type": "uint256"
        },
        {
          "internalType": "uint256",
          "name": "_translatedReserve1",
          "type": "uint256"
        }
      ],
      "name": "_calculateGamma",
      "outputs": [
        {
          "internalType": "uint256",
          "name": "gamma",
          "type": "uint256"
        },
        {
          "internalType": "bool",
          "name": "isLineFormula",
          "type": "bool"
        },
        {
          "internalType": "uint256",
          "name": "reserveSwitch",
          "type": "uint256"
        }
      ],
      "payable": false,
      "stateMutability": "pure",
      "type": "function"
    },
    {
      "constant": true,
      "inputs": [],
      "name": "anchorKFactor",
      "outputs": [
        {
          "internalType": "uint256",
          "name": "",
          "type": "uint256"
        }
      ],
      "payable": false,
      "stateMutability": "view",
      "type": "function"
    },
    {
      "constant": false,
      "inputs": [
        {
          "internalType": "address",
          "name": "_to",
          "type": "address"
        },
        {
          "internalType": "bool",
          "name": "_isAnchor",
          "type": "bool"
        }
      ],
      "name": "burn",
      "outputs": [
        {
          "internalType": "uint256",
          "name": "amount",
          "type": "uint256"
        }
      ],
      "payable": false,
      "stateMutability": "nonpayable",
      "type": "function"
    },
    {
      "constant": false,
      "inputs": [
        {
          "internalType": "address",
          "name": "_to",
          "type": "address"
        },
        {
          "internalType": "bool",
          "name": "_isAnchor",
          "type": "bool"
        }
      ],
      "name": "burnAsync",
      "outputs": [
        {
          "internalType": "uint256",
          "name": "amount0",
          "type": "uint256"
        },
        {
          "internalType": "uint256",
          "name": "amount1",
          "type": "uint256"
        }
      ],
      "payable": false,
      "stateMutability": "nonpayable",
      "type": "function"
    },
    {
      "constant": false,
      "inputs": [
        {
          "internalType": "address",
          "name": "_energyAddress",
          "type": "address"
        },
        {
          "internalType": "address",
          "name": "_energyRevAddress",
          "type": "address"
        }
      ],
      "name": "changeEnergyAddress",
      "outputs": [],
      "payable": false,
      "stateMutability": "nonpayable",
      "type": "function"
    },
    {
      "constant": true,
      "inputs": [],
      "name": "formulaSwitch",
      "outputs": [
        {
          "internalType": "bool",
          "name": "",
          "type": "bool"
        }
      ],
      "payable": false,
      "stateMutability": "view",
      "type": "function"
    },
    {
      "constant": true,
      "inputs": [],
      "name": "gammaEMA",
      "outputs": [
        {
          "internalType": "uint256",
          "name": "",
          "type": "uint256"
        }
      ],
      "payable": false,
      "stateMutability": "view",
      "type": "function"
    },
    {
      "constant": true,
      "inputs": [],
      "name": "gammaMulDecimals",
      "outputs": [
        {
          "internalType": "uint256",
          "name": "",
          "type": "uint256"
        }
      ],
      "payable": false,
      "stateMutability": "view",
      "type": "function"
    },
    {
      "constant": true,
      "inputs": [],
      "name": "getSyncReserves",
      "outputs": [
        {
          "internalType": "uint112",
          "name": "_reserve0",
          "type": "uint112"
        },
        {
          "internalType": "uint112",
          "name": "_reserve1",
          "type": "uint112"
        }
      ],
      "payable": false,
      "stateMutability": "view",
      "type": "function"
    },
    {
      "constant": false,
      "inputs": [
        {
          "internalType": "uint256",
          "name": "_gamma",
          "type": "uint256"
        },
        {
          "internalType": "uint256",
          "name": "_vab",
          "type": "uint256"
        },
        {
          "internalType": "uint256",
          "name": "_anchorKFactor",
          "type": "uint256"
        },
        {
          "internalType": "bool",
          "name": "_formulaSwitch",
          "type": "bool"
        }
      ],
      "name": "initMigratedPylon",
      "outputs": [],
      "payable": false,
      "stateMutability": "nonpayable",
      "type": "function"
    },
    {
      "constant": false,
      "inputs": [
        {
          "internalType": "address",
          "name": "_to",
          "type": "address"
        }
      ],
      "name": "initPylon",
      "outputs": [
        {
          "internalType": "uint256",
          "name": "floatLiquidity",
          "type": "uint256"
        },
        {
          "internalType": "uint256",
          "name": "anchorLiquidity",
          "type": "uint256"
        }
      ],
      "payable": false,
      "stateMutability": "nonpayable",
      "type": "function"
    },
    {
      "constant": false,
      "inputs": [
        {
          "internalType": "address",
          "name": "_floatPoolTokenAddress",
          "type": "address"
        },
        {
          "internalType": "address",
          "name": "_anchorPoolTokenAddress",
          "type": "address"
        },
        {
          "internalType": "address",
          "name": "_floatToken",
          "type": "address"
        },
        {
          "internalType": "address",
          "name": "_anchorToken",
          "type": "address"
        },
        {
          "internalType": "address",
          "name": "_pairAddress",
          "type": "address"
        },
        {
          "internalType": "address",
          "name": "_pairFactoryAddress",
          "type": "address"
        },
        {
          "internalType": "address",
          "name": "_energy",
          "type": "address"
        },
        {
          "internalType": "address",
          "name": "_energyRev",
          "type": "address"
        }
      ],
      "name": "initialize",
      "outputs": [],
      "payable": false,
      "stateMutability": "nonpayable",
      "type": "function"
    },
    {
      "constant": true,
      "inputs": [],
      "name": "initialized",
      "outputs": [
        {
          "internalType": "uint256",
          "name": "",
          "type": "uint256"
        }
      ],
      "payable": false,
      "stateMutability": "view",
      "type": "function"
    },
    {
      "constant": true,
      "inputs": [],
      "name": "isFloatReserve0",
      "outputs": [
        {
          "internalType": "bool",
          "name": "",
          "type": "bool"
        }
      ],
      "payable": false,
      "stateMutability": "view",
      "type": "function"
    },
    {
      "constant": true,
      "inputs": [],
      "name": "lastFloatAccumulator",
      "outputs": [
        {
          "internalType": "uint256",
          "name": "",
          "type": "uint256"
        }
      ],
      "payable": false,
      "stateMutability": "view",
      "type": "function"
    },
    {
      "constant": true,
      "inputs": [],
      "name": "lastOracleTimestamp",
      "outputs": [
        {
          "internalType": "uint256",
          "name": "",
          "type": "uint256"
        }
      ],
      "payable": false,
      "stateMutability": "view",
      "type": "function"
    },
    {
      "constant": true,
      "inputs": [],
      "name": "lastRootKTranslated",
      "outputs": [
        {
          "internalType": "uint256",
          "name": "",
          "type": "uint256"
        }
      ],
      "payable": false,
      "stateMutability": "view",
      "type": "function"
    },
    {
      "constant": false,
      "inputs": [
        {
          "internalType": "address",
          "name": "newPylon",
          "type": "address"
        }
      ],
      "name": "migrateLiquidity",
      "outputs": [],
      "payable": false,
      "stateMutability": "nonpayable",
      "type": "function"
    },
    {
      "constant": false,
      "inputs": [
        {
          "internalType": "address",
          "name": "to",
          "type": "address"
        },
        {
          "internalType": "bool",
          "name": "shouldMintAnchor",
          "type": "bool"
        }
      ],
      "name": "mintAsync",
      "outputs": [
        {
          "internalType": "uint256",
          "name": "liquidity",
          "type": "uint256"
        }
      ],
      "payable": false,
      "stateMutability": "nonpayable",
      "type": "function"
    },
    {
      "constant": false,
      "inputs": [
        {
          "internalType": "address",
          "name": "_to",
          "type": "address"
        },
        {
          "internalType": "bool",
          "name": "isAnchor",
          "type": "bool"
        }
      ],
      "name": "mintPoolTokens",
      "outputs": [
        {
          "internalType": "uint256",
          "name": "liquidity",
          "type": "uint256"
        }
      ],
      "payable": false,
      "stateMutability": "nonpayable",
      "type": "function"
    },
    {
      "constant": true,
      "inputs": [],
      "name": "muMulDecimals",
      "outputs": [
        {
          "internalType": "uint256",
          "name": "",
          "type": "uint256"
        }
      ],
      "payable": false,
      "stateMutability": "view",
      "type": "function"
    },
    {
      "constant": true,
      "inputs": [],
      "name": "strikeBlock",
      "outputs": [
        {
          "internalType": "uint256",
          "name": "",
          "type": "uint256"
        }
      ],
      "payable": false,
      "stateMutability": "view",
      "type": "function"
    },
    {
      "constant": true,
      "inputs": [],
      "name": "thisBlockEMA",
      "outputs": [
        {
          "internalType": "uint256",
          "name": "",
          "type": "uint256"
        }
      ],
      "payable": false,
      "stateMutability": "view",
      "type": "function"
    },
    {
      "constant": true,
      "inputs": [],
      "name": "virtualAnchorBalance",
      "outputs": [
        {
          "internalType": "uint256",
          "name": "",
          "type": "uint256"
        }
      ],
      "payable": false,
      "stateMutability": "view",
      "type": "function"
    }
  ],
  "bytecode": "0x60806040526000601c5534801561001557600080fd5b50600380546001600160a01b03191633179055614990806100376000396000f3fe608060405234801561001057600080fd5b50600436106101335760003560e01c806304c16758146101385780630a22d5f314610185578063158ef93e146101b3578063192b65d8146101cd5780633339dc1a146101d557806333cdde4e146101dd578063438ab5ac1461020b5780634a00d16a146102335780638a29e2de1461023b5780638aa961491461029a5780638d470e22146102c85780638ffa3236146102f657806397ed64db14610312578063a01de3aa1461031a578063a9f0e58f14610322578063abaf26491461032a578063af0dda2a14610332578063b707300314610363578063ba7b3dea1461036b578063c548b4c514610399578063c561cf4f146103a1578063c9bd59a0146103e8578063efefd9f9146103f0578063f29401c4146103f8578063fef934921461041e575b600080fd5b6101676004803603608081101561014e57600080fd5b5080359060208101359060408101359060600135610426565b60408051938452911515602084015282820152519081900360600190f35b61018d61051d565b604080516001600160701b03938416815291909216602082015281519081900390910190f35b6101bb610538565b60408051918252519081900360200190f35b6101bb61053e565b6101bb610544565b6101bb600480360360408110156101f357600080fd5b506001600160a01b038135169060200135151561054a565b6102316004803603602081101561022157600080fd5b50356001600160a01b0316610bb5565b005b6101bb610c1b565b610231600480360361010081101561025257600080fd5b506001600160a01b038135811691602081013582169160408201358116916060810135821691608082013581169160a081013582169160c082013581169160e0013516610c21565b610231600480360360408110156102b057600080fd5b506001600160a01b0381358116916020013516610d6b565b6101bb600480360360408110156102de57600080fd5b506001600160a01b0381351690602001351515610da1565b6102fe61115f565b604080519115158252519081900360200190f35b6101bb61116f565b6102fe611175565b6101bb61117e565b6101bb611184565b6102316004803603608081101561034857600080fd5b5080359060208101359060408101359060600135151561118a565b6101bb6111d9565b6101bb6004803603604081101561038157600080fd5b506001600160a01b03813516906020013515156111df565b6101bb611751565b6103cf600480360360408110156103b757600080fd5b506001600160a01b0381351690602001351515611757565b6040805192835260208301919091528051918290030190f35b6101bb611ea2565b6101bb611ea8565b6103cf6004803603602081101561040e57600080fd5b50356001600160a01b0316611eae565b6101bb6123a8565b60008080600284028161043f898863ffffffff6123ae16565b9050600061046589670de0b6b3a76400006002820a0403670de0b6b3a764000002612404565b9050600089821061047857818a0161047c565b818a035b9050670de0b6b3a7640000610497848363ffffffff61245616565b8161049e57fe5b049450848811156104ce578383670de0b6b3a764000002816104bc57fe5b04670de0b6b3a764000003965061050f565b600483026104ea85670de0b6b3a764000063ffffffff61245616565b816104f157fe5b0496508987670de0b6b3a7640000028161050757fe5b049650600195505b505050509450945094915050565b601b546001600160701b0380821692600160701b9092041690565b601c5481565b60095481565b600f5481565b60006105546124b9565b61055c6125cc565b600082610574576005546001600160a01b0316610581565b6006546001600160a01b03165b905060008061058e61051d565b915091506000806000806000806105a3612ebc565b90925090506105c1826001600160701b038a1663ffffffff6123ae16565b95506105dc816001600160701b03891663ffffffff6123ae16565b945060008060006105eb612ef4565b506001600160701b031691506001600160701b0316915061061e8282670de0b6b3a7640000028161061857fe5b04612fcc565b9250505061062e87826000613294565b965061063c86826001613294565b955060008061064c6000806134b6565b5090925090506001600160701b038a168e6106c25760025460009061067f9061010090046001600160a01b03163061362b565b9050670de0b6b3a7640000600d5482028161069657fe5b0484600202828f6001600160701b031602816106ae57fe5b0401985083818c02816106bd57fe5b049750505b60008f6106f6576106f1836106e08c6002880263ffffffff61245616565b816106e757fe5b048c6002026136b6565b61071e565b61071e8461070d8d6002870263ffffffff61245616565b8161071457fe5b048b6002026136b6565b90508f1561089857600a54600b5460095473__$a7d75b79dbad75865e91612b2984d03884$__9263f8fbc01f9260ff90911691859190610764908863ffffffff6123ae16565b89896040518763ffffffff1660e01b81526004018087151515158152602001868152602001858152602001848152602001838152602001828152602001965050505050505060206040518083038186803b1580156107c157600080fd5b505af41580156107d5573d6000803e3d6000fd5b505050506040513d60208110156107eb57600080fd5b8101908080519060200190929190505050600b8190555060008e6001600160a01b03166318160ddd6040518163ffffffff1660e01b815260040160206040518083038186803b15801561083d57600080fd5b505afa158015610851573d6000803e3d6000fd5b505050506040513d602081101561086757600080fd5b505160095490915061087f838363ffffffff61245616565b8161088657fe5b6009805485019055049f506108ba9050565b6108b684848302816108a657fe5b04600b548686600d5460006136cc565b600b555b505050505050506108ca846137ea565b6108d3836137ea565b6000546002546108f5916001600160a01b039081169161010090041686613828565b600154600254610917916001600160a01b039081169161010090041685613828565b600254604080516335313c2160e11b815230600482015290516101009092046001600160a01b031691636a627842916024808201926020929091908290030181600087803b15801561096857600080fd5b505af115801561097c573d6000803e3d6000fd5b505050506040513d602081101561099257600080fd5b506000905061099f6139a6565b50905089610b515760006109b46000806134b6565b5050905060006109c261051d565b50905060006109e6600260019054906101000a90046001600160a01b03163061362b565b90506000670de0b6b3a7640000858302048460020283856001600160701b03160281610a0e57fe5b0401905060008c6001600160a01b03166318160ddd6040518163ffffffff1660e01b815260040160206040518083038186803b158015610a4d57600080fd5b505afa158015610a61573d6000803e3d6000fd5b505050506040513d6020811015610a7757600080fd5b50519050878211610ab9576040805162461bcd60e51b81526020600482015260076024820152662d281d102b232160c91b604482015290519081900360640190fd5b6103e88883031115610b0857868883031115610b08576040805162461bcd60e51b81526020600482015260096024820152685a503a20564642324160b81b604482015290519081900360640190fd5b670de0b6b3a7640000610b41670de0b6b3a76400008a85670de0b6b3a76400000281610b3057fe5b04038361245690919063ffffffff16565b81610b4857fe5b049d5050505050505b610b5c888c8b613a82565b604080513381526020810187905280820186905290517f9a36e9f82fd3ab4ec26a87598c0f7f4519b7895fa6a0bca1968b486ee019b0829181900360600190a150506002805460ff191690555094979650505050505050565b610bbd613aff565b600254610be29061010090046001600160a01b031682610bdd823061362b565b613828565b600154610bfd906001600160a01b031682610bdd823061362b565b600054610c18906001600160a01b031682610bdd823061362b565b50565b600c5481565b610c29613aff565b600580546001600160a01b03808b166001600160a01b031992831617909255600680548a84169216919091179055600280548683166101008102610100600160a81b03199092169190911790915560408051630dfe168160e01b8152905192891692630dfe168191600481810192602092909190829003018186803b158015610cb157600080fd5b505afa158015610cc5573d6000803e3d6000fd5b505050506040513d6020811015610cdb57600080fd5b505160088054604080518082019091526001600160a01b039a8b16808252998b166020909101819052600080546001600160a01b0319908116909b179055600180548b169091179055600480548a16978b1697909717909655600780548916958a169590951790945560ff60a01b1990941693871614600160a01b02929092179093169316929092179055505050565b610d73613aff565b600780546001600160a01b039384166001600160a01b03199182161790915560088054929093169116179055565b6000610dab6124b9565b610db36125cc565b600080610dbe61051d565b915091506000610e1585610dd25783610dd4565b825b6001600160701b0316610e0987610df6576000546001600160a01b0316610e03565b6001546001600160a01b03165b3061362b565b9063ffffffff6123ae16565b9050610e20816137ea565b610e3481610e2e602a612fcc565b87613294565b9050600080610e446000806134b6565b5091509150600080610e6b600260019054906101000a90046001600160a01b03163061362b565b905088610eb557670de0b6b3a7640000600d54820281610e8757fe5b048460020282896001600160701b03160281610e9f57fe5b040191508360020281860281610eb157fe5b0490505b600089610ecd576005546001600160a01b0316610eda565b6006546001600160a01b03165b6001600160a01b03166318160ddd6040518163ffffffff1660e01b815260040160206040518083038186803b158015610f1257600080fd5b505afa158015610f26573d6000803e3d6000fd5b505050506040513d6020811015610f3c57600080fd5b505190506000610f6f878c610f515787610f53565b865b8d610f5e578b610f60565b8a5b6001600160701b03168e613b49565b90508a15610f9d57600954610f8a828463ffffffff61245616565b81610f9157fe5b60098054840190550499505b6000610fa76139a6565b5090508b6110ef57876000610fbc81806134b6565b505090506000610fca61051d565b5090506000610fee600260019054906101000a90046001600160a01b03163061362b565b90506000670de0b6b3a7640000868302048460020283856001600160701b0316028161101657fe5b04019050898111611058576040805162461bcd60e51b81526020600482015260076024820152662d281d102b232160c91b604482015290519081900360640190fd5b6103e88a820311156110a657888a820311156110a6576040805162461bcd60e51b81526020600482015260086024820152672d281d102b23211960c11b604482015290519081900360640190fd5b670de0b6b3a76400006110df670de0b6b3a76400008c84670de0b6b3a764000002816110ce57fe5b04038a61245690919063ffffffff16565b816110e657fe5b049f5050505050505b61111c8c611108576005546001600160a01b0316611115565b6006546001600160a01b03165b8e8d613a82565b611144604051806040016040528060068152602001651b5a5b9d195960d21b8152508c613d8d565b50506002805460ff1916905550969998505050505050505050565b600854600160a01b900460ff1681565b600d5481565b600a5460ff1681565b600b5481565b60155481565b611192613aff565b600d8490556009839055600b829055600a805460ff1916821515179055600e84905543601355601484905582156111ce576111cb6139a6565b50505b50506001601c555050565b60105481565b60006111e96124b9565b6111f16125cc565b600082611209576005546001600160a01b0316611216565b6006546001600160a01b03165b604080516370a0823160e01b815230600482015290519192506000916001600160a01b038416916370a08231916024808301926020929190829003018186803b15801561126257600080fd5b505afa158015611276573d6000803e3d6000fd5b505050506040513d602081101561128c57600080fd5b50519050611299816137ea565b6000826001600160a01b03166318160ddd6040518163ffffffff1660e01b815260040160206040518083038186803b1580156112d457600080fd5b505afa1580156112e8573d6000803e3d6000fd5b505050506040513d60208110156112fe57600080fd5b5051905084600080611311838587613e3f565b915091506000611321602a612fcc565b905061271082820204820361135985611345576000546001600160a01b0316611352565b6001546001600160a01b03165b8c83613828565b8a8785101561165457848803600061137288838b613f3d565b9050612710858202048103896000808061138c81806134b6565b5060025491935091508d9089906000906113b49061010090046001600160a01b03163061362b565b905082156114a85760006113c661051d565b6001600160701b031691505073__$a7d75b79dbad75865e91612b2984d03884$__63b748013f600a60009054906101000a900460ff168a8e600954028161140957fe5b600b54600954604080516001600160e01b031960e089901b1681529515156004870152939092046024850152604484018f905260648401889052608484015285900360a483015260c482018990525160e4808301926020929190829003018186803b15801561147757600080fd5b505af415801561148b573d6000803e3d6000fd5b505050506040513d60208110156114a157600080fd5b5051600b55505b6114b38e8e85613294565b506002546114d09061010090046001600160a01b0316808a613828565b600254600854604080516302ce510960e41b81526001600160a01b038f81166004830152871515600160a01b90940460ff161515939093141560248201529051600093610100900490921691632ce510909160448082019260209290919082900301818787803b15801561154357600080fd5b505af1158015611557573d6000803e3d6000fd5b505050506040513d602081101561156d57600080fd5b50519c8d019c90508361163d5773__$a7d75b79dbad75865e91612b2984d03884$__63b756b696876115a5848963ffffffff61245616565b816115ac57fe5b04600b548c868a600d546040518763ffffffff1660e01b815260040180878152602001868152602001858152602001848152602001838152602001828152602001965050505050505060206040518083038186803b15801561160d57600080fd5b505af4158015611621573d6000803e3d6000fd5b505050506040513d602081101561163757600080fd5b5051600b555b6116478a8f614103565b5050505050505050505050505b60408051632770a7eb60e21b8152306004820152602481018a905290516001600160a01b038b1691639dc29fac91604480830192600092919082900301818387803b1580156116a257600080fd5b505af11580156116b6573d6000803e3d6000fd5b5050505081995050505050505084156116f35760095481906116de908463ffffffff61245616565b816116e557fe5b600980549290910490910390555b6116fb6139a6565b505060408051338152602081018690528615158183015290517f5cf7281eb36e25a92ffd0cff3089777ca0cb41d28e8c7158c234b1eae9a07ed29181900360600190a150506002805460ff191690555092915050565b60165481565b6000806117626124b9565b61176a6125cc565b600083611782576005546001600160a01b031661178f565b6006546001600160a01b03165b604080516370a0823160e01b815230600482015290519192506000916001600160a01b038416916370a08231916024808301926020929190829003018186803b1580156117db57600080fd5b505afa1580156117ef573d6000803e3d6000fd5b505050506040513d602081101561180557600080fd5b50519050611812816137ea565b6000826001600160a01b03166318160ddd6040518163ffffffff1660e01b815260040160206040518083038186803b15801561184d57600080fd5b505afa158015611861573d6000803e3d6000fd5b505050506040513d602081101561187757600080fd5b5051905060008080611887612ef4565b506001600160701b031691506001600160701b031691506118b48282670de0b6b3a7640000028161061857fe5b9250505060006118c5888585613f3d565b90506000806118d261051d565b6001600160701b031691506001600160701b031691506000806118f66000806134b6565b509150915060008c61194c5784670de0b6b3a7640000611924600d546002028661245690919063ffffffff16565b8161192b57fe5b040161193d898763ffffffff61245616565b8161194457fe5b04880361196a565b60095461195f898663ffffffff61245616565b8161196657fe5b0488035b90508089106119a9576040805162461bcd60e51b815260206004808301919091526024820152635a3a204560e01b604482015290519081900360640190fd5b5060006119bc86612710818a02046123ae565b90508c15611bd45760008e9050600760009054906101000a90046001600160a01b03166001600160a01b0316638b25fde183611a2e670de0b6b3a76400008960095403611a2189600202600d54670de0b6b3a76400000361245690919063ffffffff16565b81611a2857fe5b046136b6565b6018546008546040805160e087901b6001600160e01b0319168152600481019590955260248501939093526044840191909152600160a01b900460ff16151560648301526001600160a01b0385166084830152805160a4808401938290030181600087803b158015611a9f57600080fd5b505af1158015611ab3573d6000803e3d6000fd5b505050506040513d6040811015611ac957600080fd5b508051602090910151600a54600954919e5091935073__$a7d75b79dbad75865e91612b2984d03884$__925063b748013f9160ff16908b90611b11908e63ffffffff61245616565b81611b1857fe5b0484611b39600260019054906101000a90046001600160a01b03163061362b565b600b548a60095403896040518863ffffffff1660e01b8152600401808815151515815260200187815260200186815260200185815260200184815260200183815260200182815260200197505050505050505060206040518083038186803b158015611ba457600080fd5b505af4158015611bb8573d6000803e3d6000fd5b505050506040513d6020811015611bce57600080fd5b5051600b555b600254611bf09061010090046001600160a01b03168083613828565b505050505060008990506000611c076000806134b6565b509150506000611c2c600260019054906101000a90046001600160a01b03163061362b565b6002546040805163226bf2d160e21b81526001600160a01b038781166004830152825194955060009485946101009004909116926389afcb44926024808201939182900301818787803b158015611c8257600080fd5b505af1158015611c96573d6000803e3d6000fd5b505050506040513d6040811015611cac57600080fd5b50805160209091015190925090506000611cc68789614103565b600854909150600160a01b900460ff16611ce05781611ce2565b825b6008549d019c600160a01b900460ff16611cfc5782611cfe565b815b8c019b508d611db55773__$a7d75b79dbad75865e91612b2984d03884$__63b756b6968d600202600b5484888a600d546040518763ffffffff1660e01b815260040180878152602001868152602001858152602001848152602001838152602001828152602001965050505050505060206040518083038186803b158015611d8557600080fd5b505af4158015611d99573d6000803e3d6000fd5b505050506040513d6020811015611daf57600080fd5b5051600b555b60408051632770a7eb60e21b8152306004820152602481018c905290516001600160a01b038d1691639dc29fac91604480830192600092919082900301818387803b158015611e0357600080fd5b505af1158015611e17573d6000803e3d6000fd5b505050508d15611e3c57888a6009540281611e2e57fe5b600980549290910490910390555b611e446139a6565b50506002805460ff1916905560408051338152602081018f90528082018e905290517fb83dbb1f0386f1b6d6f534f325d617e3f96f2971cca29021702094328c1cb70c9181900360600190a150505050505050505050509250929050565b60115481565b60125481565b600080601c546000148015611f3a5750600360009054906101000a90046001600160a01b03166001600160a01b0316635c975abb6040518163ffffffff1660e01b815260040160206040518083038186803b158015611f0c57600080fd5b505afa158015611f20573d6000803e3d6000fd5b505050506040513d6020811015611f3657600080fd5b5051155b8015611f49575060025460ff16155b611f5257600080fd5b6000806000611f5f612ef4565b9250925092506000836001600160701b0316118015611f8757506000826001600160701b0316115b611f9057600080fd5b63ffffffff8116601555600854600160a01b900460ff1661202a57600260019054906101000a90046001600160a01b03166001600160a01b0316635a3d54936040518163ffffffff1660e01b815260040160206040518083038186803b158015611ff957600080fd5b505afa15801561200d573d6000803e3d6000fd5b505050506040513d602081101561202357600080fd5b50516120a5565b600260019054906101000a90046001600160a01b03166001600160a01b0316635909c0d56040518163ffffffff1660e01b815260040160206040518083038186803b15801561207857600080fd5b505afa15801561208c573d6000803e3d6000fd5b505050506040513d60208110156120a257600080fd5b50515b6016556001600160701b0380841690670de0b6b3a7640000840216816120c757fe5b046001600160701b03166017556004805460408051632604632d60e21b815290516001600160a01b03909216926398118cb4928282019260209290829003018186803b15801561211657600080fd5b505afa15801561212a573d6000803e3d6000fd5b505050506040513d602081101561214057600080fd5b505160185560035460408051631475aa5760e31b815290516001600160a01b039092169163a3ad52b891600480820192602092909190829003018186803b15801561218a57600080fd5b505afa15801561219e573d6000803e3d6000fd5b505050506040513d60208110156121b457600080fd5b505160195560035460408051632ca17caf60e11b815290516001600160a01b0390921691635942f95e91600480820192602092909190829003018186803b1580156121fe57600080fd5b505afa158015612212573d6000803e3d6000fd5b505050506040513d602081101561222857600080fd5b5051601a556002805460ff19166001179055600080612245612ebc565b91509150612252826137ea565b61225b816137ea565b612279856001600160701b0316856001600160701b03168484614233565b6009819055670de0b6b3a7640000600b819055919350915061229f908290600082610426565b50600a805460ff1916911515919091179055600d556006546122ce906001600160a01b031660006103e8613a82565b6005546122e8906001600160a01b031660006103e8613a82565b6122fa816103e863ffffffff6123ae16565b95506123376103e86123186002600d5461245690919063ffffffff16565b84670de0b6b3a7640000028161232a57fe5b049063ffffffff6123ae16565b965061234460195461428e565b60065461235b906001600160a01b03168988613a82565b600554612372906001600160a01b03168989613a82565b600d54600e819055436013556014556123896139a6565b50506001601c5550506002805460ff1916905550929491935090915050565b600e5481565b808203828111156123fe576040805162461bcd60e51b815260206004820152601560248201527464732d6d6174682d7375622d756e646572666c6f7760581b604482015290519081900360640190fd5b92915050565b60006003821115612447575080600160028204015b818110156124415780915060028182858161243057fe5b04018161243957fe5b049050612419565b50612451565b8115612451575060015b919050565b60008115806124715750508082028282828161246e57fe5b04145b6123fe576040805162461bcd60e51b815260206004820152601460248201527364732d6d6174682d6d756c2d6f766572666c6f7760601b604482015290519081900360640190fd5b601c5460011480156125425750600360009054906101000a90046001600160a01b03166001600160a01b0316635c975abb6040518163ffffffff1660e01b815260040160206040518083038186803b15801561251457600080fd5b505afa158015612528573d6000803e3d6000fd5b505050506040513d602081101561253e57600080fd5b5051155b61257c576040805162461bcd60e51b8152602060048083019190915260248201526305a3a20560e41b604482015290519081900360640190fd5b60025460ff16156125bd576040805162461bcd60e51b815260206004808301919091526024820152632d1d102960e11b604482015290519081900360640190fd5b6002805460ff19166001179055565b6004805460408051632604632d60e21b815290516001600160a01b03909216926398118cb4928282019260209290829003018186803b15801561260e57600080fd5b505afa158015612622573d6000803e3d6000fd5b505050506040513d602081101561263857600080fd5b505160185560035460408051631475aa5760e31b815290516001600160a01b039092169163a3ad52b891600480820192602092909190829003018186803b15801561268257600080fd5b505afa158015612696573d6000803e3d6000fd5b505050506040513d60208110156126ac57600080fd5b505160195560035460408051632ca17caf60e11b815290516001600160a01b0390921691635942f95e91600480820192602092909190829003018186803b1580156126f657600080fd5b505afa15801561270a573d6000803e3d6000fd5b505050506040513d602081101561272057600080fd5b5051601a5560025461010090046001600160a01b031633146127a557600260019054906101000a90046001600160a01b03166001600160a01b03166311816b046040518163ffffffff1660e01b8152600401600060405180830381600087803b15801561278c57600080fd5b505af11580156127a0573d6000803e3d6000fd5b505050505b6000806127b36000806134b6565b5091509150600260019054906101000a90046001600160a01b03166001600160a01b031663145f3c276040518163ffffffff1660e01b8152600401600060405180830381600087803b15801561280857600080fd5b505af115801561281c573d6000803e3d6000fd5b50505050600061282d828402612404565b905060008061283a61051d565b9150915061285a826001600160701b0316826001600160701b031661448e565b5050600080600061286c6000806134b6565b92509250925060008061287d61051d565b600d5460085492945090925090600090600160a01b900460ff1661291a57600260019054906101000a90046001600160a01b03166001600160a01b0316635a3d54936040518163ffffffff1660e01b815260040160206040518083038186803b1580156128e957600080fd5b505afa1580156128fd573d6000803e3d6000fd5b505050506040513d602081101561291357600080fd5b5051612995565b600260019054906101000a90046001600160a01b03166001600160a01b0316635909c0d56040518163ffffffff1660e01b815260040160206040518083038186803b15801561296857600080fd5b505afa15801561297c573d6000803e3d6000fd5b505050506040513d602081101561299257600080fd5b50515b90504263ffffffff8616811115612a685760408051808201909152600d81526c5f72657365727665506169723160981b602082015263ffffffff8716820390607089901b906129e49082613d8d565b612a1c6040518060400160405280601681526020017570616972526573657276655472616e736c617465643160501b8152508a613d8d565b818a8281612a2657fe5b040284019350612a656040518060400160405280601781526020017631bab93932b73a233637b0ba20b1b1bab6bab630ba37b960491b81525085613d8d565b50505b601654821115612ad157600060706016548403670de0b6b3a764000002901c9050612ab4604051806040016040528060098152602001685f617667507269636560b81b81525082613d8d565b60155482038181612ac157fe5b0460175550601581905560168290555b8715801590612adf57508615155b15612eaf576000600c548a1115612b47576000600c54612b0e600e54600c548e0361245690919063ffffffff16565b81612b1557fe5b0490508015612b4557670de0b6b3a7640000612b378a8363ffffffff61245616565b60020281612b4157fe5b0491505b505b60098054820190819055600b54612b6991906001600160701b0388168b610426565b50600a805460ff1916911515919091179055600d5560075460035460408051637945980160e01b815290516001600160a01b039384169363b3828f839316916379459801916004808301926020929190829003018186803b158015612bcd57600080fd5b505afa158015612be1573d6000803e3d6000fd5b505050506040513d6020811015612bf757600080fd5b50516003546040805163604b97bd60e11b815290516001600160a01b039092169163c0972f7a91600480820192602092909190829003018186803b158015612c3e57600080fd5b505afa158015612c52573d6000803e3d6000fd5b505050506040513d6020811015612c6857600080fd5b5051601354600e54600d54601454604080516001600160e01b031960e08a901b1681526004810197909752602487019590955260448601939093526064850191909152608484015260a48301525160c4808301926020929190829003018186803b158015612cd557600080fd5b505afa158015612ce9573d6000803e3d6000fd5b505050506040513d6020811015612cff57600080fd5b5051600e55600d54601455436013819055600c8b9055601254600091612d2a9163ffffffff6123ae16565b90508015612e18576003546040805163ed6b92cd60e01b815290516000926001600160a01b03169163ed6b92cd916004808301926020929190829003018186803b158015612d7757600080fd5b505afa158015612d8b573d6000803e3d6000fd5b505050506040513d6020811015612da157600080fd5b5051601154909150600090600a439190910311612dbf576000612dc4565b600a83045b9050612dd9600183018263ffffffff61474616565b612df260105484600f540261474690919063ffffffff16565b81612df957fe5b04600f55600d54612e0a9088614795565b601055505043601255612e3a565b612e36612e27600d5487614795565b6010549063ffffffff61474616565b6010555b612e656040518060400160405280600781526020016674686973454d4160c81b815250601054613d8d565b600954600b54600d5460408051938452602084019290925282820152517f54964c70825f65946c2e16cd62d98784e0536cf3d54b15ce1845f37f325945d29181900360600190a150505b5050505050505050505050565b600080548190612ed5906001600160a01b03163061362b565b600154909250612eee906001600160a01b03163061362b565b90509091565b600080600080600080600260019054906101000a90046001600160a01b03166001600160a01b0316630902f1ac6040518163ffffffff1660e01b815260040160606040518083038186803b158015612f4b57600080fd5b505afa158015612f5f573d6000803e3d6000fd5b505050506040513d6060811015612f7557600080fd5b5080516020820151604090920151600854919550919350909150600160a01b900460ff16612fa35781612fa5565b825b600854909650600160a01b900460ff16612fbf5782612fc1565b815b959690945092505050565b600080612fdd600f546010546147ac565b905082602a141561306a57600754600d5460408051630134dce560e11b81526004810192909252516001600160a01b0390921691630269b9ca91602480820192602092909190829003018186803b15801561303757600080fd5b505afa15801561304b573d6000803e3d6000fd5b505050506040513d602081101561306157600080fd5b505191506130cd565b601854600202915060175483106130a75760175483906130929061271063ffffffff61245616565b8161309957fe5b0461271003820191506130cd565b6017546130bc8461271063ffffffff61245616565b816130c357fe5b0461271003820191505b6131026040518060400160405280600f81526020016e06665656270732c206970642c206c7608c1b81525083856017546147bb565b601a54811061324f576000601154430390506000601a54670de0b6b3a76400008161312957fe5b0490506131606040518060400160405280600f81526020016e1cdd1c9a5ad94b0818dd5c9c995b9d608a1b8152506011544361487f565b80821115613171574360115561324c565b61321c84600360009054906101000a90046001600160a01b03166001600160a01b0316632be90b326040518163ffffffff1660e01b815260040160206040518083038186803b1580156131c357600080fd5b505afa1580156131d7573d6000803e3d6000fd5b505050506040513d60208110156131ed57600080fd5b5051601a5461271090613206888363ffffffff61245616565b8161320d57fe5b0403019063ffffffff61474616565b935061324c604051806040016040528060098152602001681919dd0b081b585e1160ba1b815250601a548561487f565b50505b612710821061328e576040805162461bcd60e51b81526020600482015260066024820152650b474408ca8960d31b604482015290519081900360640190fd5b50919050565b600061271083850204806132ab57849150506134af565b82156132d3576001546007546132ce916001600160a01b03908116911683613828565b613441565b6000546002546132f5916001600160a01b039081169161010090041683613828565b600080613300612ef4565b50915091506000613320601854612710038561245690919063ffffffff16565b9050600061334f826133436001600160701b03871661271063ffffffff61245616565b9063ffffffff61474616565b613368836001600160701b03861663ffffffff61245616565b8161336f57fe5b60025460085492909104925061010090046001600160a01b03169063022c0d9f90600160a01b900460ff166133a457826133a7565b60005b600854600160a01b900460ff166133bf5760006133c1565b835b600754604080516001600160e01b031960e087901b168152600481019490945260248401929092526001600160a01b0316604483015260806064830152600060848301819052905160c48084019382900301818387803b15801561342457600080fd5b505af1158015613438573d6000803e3d6000fd5b50505050505050505b600760009054906101000a90046001600160a01b03166001600160a01b03166303f187ea6040518163ffffffff1660e01b8152600401600060405180830381600087803b15801561349157600080fd5b505af11580156134a5573d6000803e3d6000fd5b5050509085039150505b9392505050565b6000806000806000806134c7612ef4565b600254604080516370a0823160e01b815230600482015290519497509295509093506000926101009091046001600160a01b0316916370a08231916024808301926020929190829003018186803b15801561352157600080fd5b505afa158015613535573d6000803e3d6000fd5b505050506040513d602081101561354b57600080fd5b5051600254604080516318160ddd60e01b815290519293506000926101009092046001600160a01b0316916318160ddd91600480820192602092909190829003018186803b15801561359c57600080fd5b505afa1580156135b0573d6000803e3d6000fd5b505050506040513d60208110156135c657600080fd5b505190508115806135d5575080155b156135ed578989429750975097505050505050613624565b8082866001600160701b0316028161360157fe5b048183866001600160701b0316028161361657fe5b048497509750975050505050505b9250925092565b6000826001600160a01b03166370a08231836040518263ffffffff1660e01b815260040180826001600160a01b03166001600160a01b0316815260200191505060206040518083038186803b15801561368357600080fd5b505afa158015613697573d6000803e3d6000fd5b505050506040513d60208110156136ad57600080fd5b50519392505050565b60008183106136c557816134af565b5090919050565b600080826136fd57670de0b6b3a76400006136f0866002870263ffffffff61245616565b816136f757fe5b04613722565b670de0b6b3a7640000613719876002870263ffffffff61245616565b8161372057fe5b045b905060008189016137688561373a5760028b0461373d565b60005b88018661375857886002028a8d028161375257fe5b0461375a565b8b5b8a019063ffffffff61245616565b8161376f57fe5b04905085613783828463ffffffff61245616565b8161378a57fe5b0490508661379e828a63ffffffff61245616565b816137a557fe5b049050878111156137ba5787925050506137e0565b670de0b6b3a76400008110156137dc57670de0b6b3a7640000925050506137e0565b9150505b9695505050505050565b60008111610c18576040805162461bcd60e51b815260206004808301919091526024820152632d1d102d60e11b604482015290519081900360640190fd5b60408051808201825260198152787472616e7366657228616464726573732c75696e743235362960381b60209182015281516001600160a01b0385811660248301526044808301869052845180840390910181526064909201845291810180516001600160e01b031663a9059cbb60e01b1781529251815160009460609489169392918291908083835b602083106138d15780518252601f1990920191602091820191016138b2565b6001836020036101000a0380198251168184511680821785525050505050509050019150506000604051808303816000865af19150503d8060008114613933576040519150601f19603f3d011682016040523d82523d6000602084013e613938565b606091505b5091509150818015613966575080511580613966575080806020019051602081101561396357600080fd5b50515b61399f576040805162461bcd60e51b81526020600482015260056024820152642d1d102a2360d91b604482015290519081900360640190fd5b5050505050565b6000806000806139b4612ebc565b915091506139c2828261448e565b6000806139cf84846134b6565b5090925090506139ed6139e8838363ffffffff61245616565b612404565b600c5560006139fa61051d565b6001600160701b0316915050613a16600954600b548385610426565b90508097508198505050613a606040518060400160405280601a81526020017933b0b6b6b0a732bb961033b0b6b6b0a7b6321610313637b1b5a760311b81525088600d54436147bb565b601a54613a6f88600d54614795565b10613a7957436011555b50505050509091565b826001600160a01b03166340c10f1983836040518363ffffffff1660e01b815260040180836001600160a01b03166001600160a01b0316815260200182815260200192505050600060405180830381600087803b158015613ae257600080fd5b505af1158015613af6573d6000803e3d6000fd5b50505050505050565b6003546001600160a01b03163314613b47576040805162461bcd60e51b815260206004808301919091526024820152632d1d102360e11b604482015290519081900360640190fd5b565b601954600090816064613b62878463ffffffff61245616565b81613b6957fe5b049050600085821115613ba057508481038015613ba057808811613b9b57613b908361428e565b879350505050613d85565b928301925b80880360008080613bb181806134b6565b50915091508815613d5357896000613bca848402612404565b90506000612710600260185481613bdd57fe5b0460010161271003880281613bee57fe5b0490506000613c0d613c06868463ffffffff61474616565b8702612404565b9050828111613c4b576040805162461bcd60e51b81526020600482015260056024820152645a503a534b60d81b604482015290519081900360640190fd5b600083848303670de0b6b3a76400000281613c6257fe5b049050670de0b6b3a7640000868202600202048801975073__$a7d75b79dbad75865e91612b2984d03884$__63f8fbc01f600a60009054906101000a900460ff168a600b54613cbc8a6009546123ae90919063ffffffff16565b8c8c6040518763ffffffff1660e01b81526004018087151515158152602001868152602001858152602001848152602001838152602001828152602001965050505050505060206040518083038186803b158015613d1957600080fd5b505af4158015613d2d573d6000803e3d6000fd5b505050506040513d6020811015613d4357600080fd5b5051600b5550613d6a9350505050565b613d6684600b548484600d5460016136cc565b600b555b968201968415613d7d57613d7d8761428e565b505050505050505b949350505050565b613e3b82826040516024018080602001838152602001828103825284818151815260200191508051906020019080838360005b83811015613dd8578181015183820152602001613dc0565b50505050905090810190601f168015613e055780820380516001836020036101000a031916815260200191505b5060408051601f198184030181529190526020810180516001600160e01b03166309710a9d60e41b179052935061493a92505050565b5050565b600080600080613e506000806134b6565b5091509150600080613e6061051d565b91509150600089613e715782613e73565b815b6001600160701b0316905060008a613e8b5785613e8d565b845b905060008b613ee357613ede670de0b6b3a7640000613ec86002613ebc600d548761245690919063ffffffff16565b9063ffffffff61245616565b81613ecf57fe5b8591900463ffffffff61474616565b613ee7565b6009545b905080613efa848d63ffffffff61245616565b81613f0157fe5b0498506000613f108a8c6136b6565b90508b613f23838363ffffffff61245616565b81613f2a57fe5b0498505050505050505050935093915050565b6000806000613f4d6001806134b6565b5091509150600080613f5d61051d565b600254604080516370a0823160e01b8152306004820152905193955091935060009283926101009092046001600160a01b0316916370a08231916024808301926020929190829003018186803b158015613fb657600080fd5b505afa158015613fca573d6000803e3d6000fd5b505050506040513d6020811015613fe057600080fd5b50519050891561401d578460020261400e846001600160701b0316600954038361245690919063ffffffff16565b8161401557fe5b049150614045565b600d54670de0b6b3a76400009061403a908363ffffffff61245616565b8161404157fe5b0491505b60008a6140a857846001600160701b0316670de0b6b3a7640000614077600d546002028a61245690919063ffffffff16565b8161407e57fe5b04016140998a6001600160701b03881663ffffffff61245616565b816140a057fe5b0489036140cf565b6009546140c48a6001600160701b03871663ffffffff61245616565b816140cb57fe5b0489035b9050806140e28b8563ffffffff61245616565b816140e957fe5b0497506140f5886137ea565b505050505050509392505050565b6000612710828402048061411a57839150506123fe565b6002546141369061010090046001600160a01b03168083613828565b600254600754600854604080516302ce510960e41b81526001600160a01b039384166004820152600160a01b90920460ff161560248301525161010090930490911691632ce51090916044808201926020929091908290030181600087803b1580156141a157600080fd5b505af11580156141b5573d6000803e3d6000fd5b505050506040513d60208110156141cb57600080fd5b5050600754604080516301f8c3f560e11b815290516001600160a01b03909216916303f187ea9160048082019260009290919082900301818387803b15801561421357600080fd5b505af1158015614227573d6000803e3d6000fd5b50505093039392505050565b6000808085614248888663ffffffff61245616565b8161424f57fe5b0490508481111561427d578492508661426e848863ffffffff61245616565b8161427557fe5b049150614284565b8092508391505b5094509492505050565b600080614299612ebc565b915091506000806142aa84846134b6565b509092509050600060c86142c4848863ffffffff61245616565b816142cb57fe5b049050600060c86142e2848963ffffffff61245616565b816142e957fe5b049050816001600160701b03168611801561430c5750806001600160701b031685115b1561442a5760008061431c612ef4565b506001600160701b031691506001600160701b031691506000806143588484886001600160701b03168d03886001600160701b03168d03614233565b600054600254929450909250614381916001600160a01b03918216916101009091041684613828565b6001546002546143a3916001600160a01b039081169161010090041683613828565b600254604080516335313c2160e11b815230600482015290516101009092046001600160a01b031691636a627842916024808201926020929091908290030181600087803b1580156143f457600080fd5b505af1158015614408573d6000803e3d6000fd5b505050506040513d602081101561441e57600080fd5b50613af6945050505050565b600260019054906101000a90046001600160a01b03166001600160a01b031663145f3c276040518163ffffffff1660e01b8152600401600060405180830381600087803b15801561447a57600080fd5b505af1158015612eaf573d6000803e3d6000fd5b60008061449b84846134b6565b5091509150600060646019548402816144b057fe5b049050600060646019548402816144c357fe5b04905085826001600160701b031610156145b657600054600254614504916001600160a01b03908116916101009004166001600160701b0385168903613828565b600254600854604080516321913af360e11b8152306004820152600160a01b90920460ff16151560248301525160009261010090046001600160a01b03169163432275e691604480830192606092919082900301818787803b15801561456957600080fd5b505af115801561457d573d6000803e3d6000fd5b505050506040513d606081101561459357600080fd5b5050601b80546001600160701b0319166001600160701b038516179055506145d2565b601b80546001600160701b0319166001600160701b0388161790555b84816001600160701b031610156146c957600154600254614610916001600160a01b03908116916101009004166001600160701b0384168803613828565b600254600854604080516321913af360e11b8152306004820152600160a01b90920460ff16156024830152516101009092046001600160a01b03169163432275e6916044808201926060929091908290030181600087803b15801561467457600080fd5b505af1158015614688573d6000803e3d6000fd5b505050506040513d606081101561469e57600080fd5b5050601b8054600160701b600160e01b031916600160701b6001600160701b038416021790556146ee565b601b8054600160701b600160e01b031916600160701b6001600160701b038816021790555b601b54604080516001600160701b038084168252600160701b909304909216602083015280517f1d96001f313f6446e46c7776b79d231589555627a46fa2388f3220937fc79e519281900390910190a1505050505050565b808201828110156123fe576040805162461bcd60e51b815260206004820152601460248201527364732d6d6174682d6164642d6f766572666c6f7760601b604482015290519081900360640190fd5b60008183106147a757508082036123fe565b500390565b60008183116136c557816134af565b614879848484846040516024018080602001858152602001848152602001838152602001828103825286818151815260200191508051906020019080838360005b838110156148145781810151838201526020016147fc565b50505050905090810190601f1680156148415780820380516001836020036101000a031916815260200191505b5060408051601f198184030181529190526020810180516001600160e01b03166304772b3360e11b179052955061493a945050505050565b50505050565b6149358383836040516024018080602001848152602001838152602001828103825285818151815260200191508051906020019080838360005b838110156148d15781810151838201526020016148b9565b50505050905090810190601f1680156148fe5780820380516001836020036101000a031916815260200191505b5060408051601f198184030181529190526020810180516001600160e01b031663969cdd0360e01b179052945061493a9350505050565b505050565b80516a636f6e736f6c652e6c6f67602083016000808483855afa505050505056fea265627a7a72315820fa6713f42f7b487ea7eb5c77328dc62e55ab0fff705943a352c6f2b021375e3f64736f6c63430005100032",
  "linkReferences": {
    "contracts/libraries/ZirconLibrary.sol": {
      "ZirconLibrary": [
        {
          "length": 20,
          "start": 1896
        },
        {
          "length": 20,
          "start": 5131
        },
        {
          "length": 20,
          "start": 5555
        },
        {
          "length": 20,
          "start": 6935
        },
        {
          "length": 20,
          "start": 7488
        },
        {
          "length": 20,
          "start": 15538
        }
      ]
    }
  },
  "deployedLinkReferences": {
    "contracts/libraries/ZirconLibrary.sol": {
      "ZirconLibrary": [
        {
          "length": 20,
          "start": 1841
        },
        {
          "length": 20,
          "start": 5076
        },
        {
          "length": 20,
          "start": 5500
        },
        {
          "length": 20,
          "start": 6880
        },
        {
          "length": 20,
          "start": 7433
        },
        {
          "length": 20,
          "start": 15483
        }
      ]
    }
  }
}