{
  "_format": "hh-sol-artifact-1",
  "contractName": "ZirconPair",
  "sourceName": "contracts/ZirconPair.sol",
  "abi": [
    {
      "inputs": [],
      "payable": false,
      "stateMutability": "nonpayable",
      "type": "constructor"
    },
    {
      "anonymous": false,
      "inputs": [
        {
          "indexed": true,
          "internalType": "address",
          "name": "owner",
          "type": "address"
        },
        {
          "indexed": true,
          "internalType": "address",
          "name": "spender",
          "type": "address"
        },
        {
          "indexed": false,
          "internalType": "uint256",
          "name": "value",
          "type": "uint256"
        }
      ],
      "name": "Approval",
      "type": "event"
    },
    {
      "anonymous": false,
      "inputs": [
        {
          "indexed": true,
          "internalType": "address",
          "name": "sender",
          "type": "address"
        },
        {
          "indexed": false,
          "internalType": "uint256",
          "name": "amount0",
          "type": "uint256"
        },
        {
          "indexed": false,
          "internalType": "uint256",
          "name": "amount1",
          "type": "uint256"
        },
        {
          "indexed": true,
          "internalType": "address",
          "name": "to",
          "type": "address"
        }
      ],
      "name": "Burn",
      "type": "event"
    },
    {
      "anonymous": false,
      "inputs": [
        {
          "indexed": true,
          "internalType": "address",
          "name": "sender",
          "type": "address"
        },
        {
          "indexed": false,
          "internalType": "uint256",
          "name": "amount0",
          "type": "uint256"
        },
        {
          "indexed": false,
          "internalType": "uint256",
          "name": "amount1",
          "type": "uint256"
        }
      ],
      "name": "Mint",
      "type": "event"
    },
    {
      "anonymous": false,
      "inputs": [
        {
          "indexed": true,
          "internalType": "address",
          "name": "sender",
          "type": "address"
        },
        {
          "indexed": false,
          "internalType": "uint256",
          "name": "amount0In",
          "type": "uint256"
        },
        {
          "indexed": false,
          "internalType": "uint256",
          "name": "amount1In",
          "type": "uint256"
        },
        {
          "indexed": false,
          "internalType": "uint256",
          "name": "amount0Out",
          "type": "uint256"
        },
        {
          "indexed": false,
          "internalType": "uint256",
          "name": "amount1Out",
          "type": "uint256"
        },
        {
          "indexed": true,
          "internalType": "address",
          "name": "to",
          "type": "address"
        }
      ],
      "name": "Swap",
      "type": "event"
    },
    {
      "anonymous": false,
      "inputs": [
        {
          "indexed": false,
          "internalType": "uint112",
          "name": "reserve0",
          "type": "uint112"
        },
        {
          "indexed": false,
          "internalType": "uint112",
          "name": "reserve1",
          "type": "uint112"
        }
      ],
      "name": "Sync",
      "type": "event"
    },
    {
      "anonymous": false,
      "inputs": [
        {
          "indexed": true,
          "internalType": "address",
          "name": "from",
          "type": "address"
        },
        {
          "indexed": true,
          "internalType": "address",
          "name": "to",
          "type": "address"
        },
        {
          "indexed": false,
          "internalType": "uint256",
          "name": "value",
          "type": "uint256"
        }
      ],
      "name": "Transfer",
      "type": "event"
    },
    {
      "constant": true,
      "inputs": [],
      "name": "DOMAIN_SEPARATOR",
      "outputs": [
        {
          "internalType": "bytes32",
          "name": "",
          "type": "bytes32"
        }
      ],
      "payable": false,
      "stateMutability": "view",
      "type": "function"
    },
    {
      "constant": true,
      "inputs": [],
      "name": "MINIMUM_LIQUIDITY",
      "outputs": [
        {
          "internalType": "uint256",
          "name": "",
          "type": "uint256"
        }
      ],
      "payable": false,
      "stateMutability": "view",
      "type": "function"
    },
    {
      "constant": true,
      "inputs": [],
      "name": "PERMIT_TYPEHASH",
      "outputs": [
        {
          "internalType": "bytes32",
          "name": "",
          "type": "bytes32"
        }
      ],
      "payable": false,
      "stateMutability": "view",
      "type": "function"
    },
    {
      "constant": true,
      "inputs": [
        {
          "internalType": "address",
          "name": "",
          "type": "address"
        },
        {
          "internalType": "address",
          "name": "",
          "type": "address"
        }
      ],
      "name": "allowance",
      "outputs": [
        {
          "internalType": "uint256",
          "name": "",
          "type": "uint256"
        }
      ],
      "payable": false,
      "stateMutability": "view",
      "type": "function"
    },
    {
      "constant": false,
      "inputs": [
        {
          "internalType": "address",
          "name": "spender",
          "type": "address"
        },
        {
          "internalType": "uint256",
          "name": "value",
          "type": "uint256"
        }
      ],
      "name": "approve",
      "outputs": [
        {
          "internalType": "bool",
          "name": "",
          "type": "bool"
        }
      ],
      "payable": false,
      "stateMutability": "nonpayable",
      "type": "function"
    },
    {
      "constant": true,
      "inputs": [
        {
          "internalType": "address",
          "name": "",
          "type": "address"
        }
      ],
      "name": "balanceOf",
      "outputs": [
        {
          "internalType": "uint256",
          "name": "",
          "type": "uint256"
        }
      ],
      "payable": false,
      "stateMutability": "view",
      "type": "function"
    },
    {
      "constant": false,
      "inputs": [
        {
          "internalType": "address",
          "name": "to",
          "type": "address"
        }
      ],
      "name": "burn",
      "outputs": [
        {
          "internalType": "uint256",
          "name": "amount0",
          "type": "uint256"
        },
        {
          "internalType": "uint256",
          "name": "amount1",
          "type": "uint256"
        }
      ],
      "payable": false,
      "stateMutability": "nonpayable",
      "type": "function"
    },
    {
      "constant": false,
      "inputs": [
        {
          "internalType": "address",
          "name": "to",
          "type": "address"
        },
        {
          "internalType": "bool",
          "name": "isReserve0",
          "type": "bool"
        }
      ],
      "name": "burnOneSide",
      "outputs": [
        {
          "internalType": "uint256",
          "name": "amount",
          "type": "uint256"
        }
      ],
      "payable": false,
      "stateMutability": "nonpayable",
      "type": "function"
    },
    {
      "constant": false,
      "inputs": [
        {
          "internalType": "address",
          "name": "_revAddress",
          "type": "address"
        }
      ],
      "name": "changeEnergyRevAddress",
      "outputs": [],
      "payable": false,
      "stateMutability": "nonpayable",
      "type": "function"
    },
    {
      "constant": true,
      "inputs": [],
      "name": "decimals",
      "outputs": [
        {
          "internalType": "uint8",
          "name": "",
          "type": "uint8"
        }
      ],
      "payable": false,
      "stateMutability": "view",
      "type": "function"
    },
    {
      "constant": true,
      "inputs": [],
      "name": "energyRevenueAddress",
      "outputs": [
        {
          "internalType": "address",
          "name": "",
          "type": "address"
        }
      ],
      "payable": false,
      "stateMutability": "view",
      "type": "function"
    },
    {
      "constant": true,
      "inputs": [],
      "name": "factory",
      "outputs": [
        {
          "internalType": "address",
          "name": "",
          "type": "address"
        }
      ],
      "payable": false,
      "stateMutability": "view",
      "type": "function"
    },
    {
      "constant": true,
      "inputs": [],
      "name": "getReserves",
      "outputs": [
        {
          "internalType": "uint112",
          "name": "_reserve0",
          "type": "uint112"
        },
        {
          "internalType": "uint112",
          "name": "_reserve1",
          "type": "uint112"
        },
        {
          "internalType": "uint32",
          "name": "_blockTimestampLast",
          "type": "uint32"
        }
      ],
      "payable": false,
      "stateMutability": "view",
      "type": "function"
    },
    {
      "constant": false,
      "inputs": [
        {
          "internalType": "address",
          "name": "_token0",
          "type": "address"
        },
        {
          "internalType": "address",
          "name": "_token1",
          "type": "address"
        },
        {
          "internalType": "address",
          "name": "_energy",
          "type": "address"
        }
      ],
      "name": "initialize",
      "outputs": [],
      "payable": false,
      "stateMutability": "nonpayable",
      "type": "function"
    },
    {
      "constant": true,
      "inputs": [],
      "name": "kLast",
      "outputs": [
        {
          "internalType": "uint256",
          "name": "",
          "type": "uint256"
        }
      ],
      "payable": false,
      "stateMutability": "view",
      "type": "function"
    },
    {
      "constant": false,
      "inputs": [
        {
          "internalType": "address",
          "name": "to",
          "type": "address"
        }
      ],
      "name": "mint",
      "outputs": [
        {
          "internalType": "uint256",
          "name": "liquidity",
          "type": "uint256"
        }
      ],
      "payable": false,
      "stateMutability": "nonpayable",
      "type": "function"
    },
    {
      "constant": false,
      "inputs": [
        {
          "internalType": "address",
          "name": "to",
          "type": "address"
        },
        {
          "internalType": "bool",
          "name": "isReserve0",
          "type": "bool"
        }
      ],
      "name": "mintOneSide",
      "outputs": [
        {
          "internalType": "uint256",
          "name": "liquidity",
          "type": "uint256"
        },
        {
          "internalType": "uint256",
          "name": "amount0",
          "type": "uint256"
        },
        {
          "internalType": "uint256",
          "name": "amount1",
          "type": "uint256"
        }
      ],
      "payable": false,
      "stateMutability": "nonpayable",
      "type": "function"
    },
    {
      "constant": true,
      "inputs": [],
      "name": "name",
      "outputs": [
        {
          "internalType": "string",
          "name": "",
          "type": "string"
        }
      ],
      "payable": false,
      "stateMutability": "view",
      "type": "function"
    },
    {
      "constant": true,
      "inputs": [
        {
          "internalType": "address",
          "name": "",
          "type": "address"
        }
      ],
      "name": "nonces",
      "outputs": [
        {
          "internalType": "uint256",
          "name": "",
          "type": "uint256"
        }
      ],
      "payable": false,
      "stateMutability": "view",
      "type": "function"
    },
    {
      "constant": false,
      "inputs": [
        {
          "internalType": "address",
          "name": "owner",
          "type": "address"
        },
        {
          "internalType": "address",
          "name": "spender",
          "type": "address"
        },
        {
          "internalType": "uint256",
          "name": "value",
          "type": "uint256"
        },
        {
          "internalType": "uint256",
          "name": "deadline",
          "type": "uint256"
        },
        {
          "internalType": "uint8",
          "name": "v",
          "type": "uint8"
        },
        {
          "internalType": "bytes32",
          "name": "r",
          "type": "bytes32"
        },
        {
          "internalType": "bytes32",
          "name": "s",
          "type": "bytes32"
        }
      ],
      "name": "permit",
      "outputs": [],
      "payable": false,
      "stateMutability": "nonpayable",
      "type": "function"
    },
    {
      "constant": true,
      "inputs": [],
      "name": "price0CumulativeLast",
      "outputs": [
        {
          "internalType": "uint256",
          "name": "",
          "type": "uint256"
        }
      ],
      "payable": false,
      "stateMutability": "view",
      "type": "function"
    },
    {
      "constant": true,
      "inputs": [],
      "name": "price1CumulativeLast",
      "outputs": [
        {
          "internalType": "uint256",
          "name": "",
          "type": "uint256"
        }
      ],
      "payable": false,
      "stateMutability": "view",
      "type": "function"
    },
    {
      "constant": false,
      "inputs": [
        {
          "internalType": "address",
          "name": "to",
          "type": "address"
        }
      ],
      "name": "skim",
      "outputs": [],
      "payable": false,
      "stateMutability": "nonpayable",
      "type": "function"
    },
    {
      "constant": false,
      "inputs": [
        {
          "internalType": "uint256",
          "name": "amount0Out",
          "type": "uint256"
        },
        {
          "internalType": "uint256",
          "name": "amount1Out",
          "type": "uint256"
        },
        {
          "internalType": "address",
          "name": "to",
          "type": "address"
        },
        {
          "internalType": "bytes",
          "name": "data",
          "type": "bytes"
        }
      ],
      "name": "swap",
      "outputs": [],
      "payable": false,
      "stateMutability": "nonpayable",
      "type": "function"
    },
    {
      "constant": true,
      "inputs": [],
      "name": "symbol",
      "outputs": [
        {
          "internalType": "string",
          "name": "",
          "type": "string"
        }
      ],
      "payable": false,
      "stateMutability": "view",
      "type": "function"
    },
    {
      "constant": false,
      "inputs": [],
      "name": "sync",
      "outputs": [],
      "payable": false,
      "stateMutability": "nonpayable",
      "type": "function"
    },
    {
      "constant": true,
      "inputs": [],
      "name": "token0",
      "outputs": [
        {
          "internalType": "address",
          "name": "",
          "type": "address"
        }
      ],
      "payable": false,
      "stateMutability": "view",
      "type": "function"
    },
    {
      "constant": true,
      "inputs": [],
      "name": "token1",
      "outputs": [
        {
          "internalType": "address",
          "name": "",
          "type": "address"
        }
      ],
      "payable": false,
      "stateMutability": "view",
      "type": "function"
    },
    {
      "constant": true,
      "inputs": [],
      "name": "totalSupply",
      "outputs": [
        {
          "internalType": "uint256",
          "name": "",
          "type": "uint256"
        }
      ],
      "payable": false,
      "stateMutability": "view",
      "type": "function"
    },
    {
      "constant": false,
      "inputs": [
        {
          "internalType": "address",
          "name": "to",
          "type": "address"
        },
        {
          "internalType": "uint256",
          "name": "value",
          "type": "uint256"
        }
      ],
      "name": "transfer",
      "outputs": [
        {
          "internalType": "bool",
          "name": "",
          "type": "bool"
        }
      ],
      "payable": false,
      "stateMutability": "nonpayable",
      "type": "function"
    },
    {
      "constant": false,
      "inputs": [
        {
          "internalType": "address",
          "name": "from",
          "type": "address"
        },
        {
          "internalType": "address",
          "name": "to",
          "type": "address"
        },
        {
          "internalType": "uint256",
          "name": "value",
          "type": "uint256"
        }
      ],
      "name": "transferFrom",
      "outputs": [
        {
          "internalType": "bool",
          "name": "",
          "type": "bool"
        }
      ],
      "payable": false,
      "stateMutability": "nonpayable",
      "type": "function"
    },
    {
      "constant": false,
      "inputs": [],
      "name": "tryLock",
      "outputs": [],
      "payable": false,
      "stateMutability": "nonpayable",
      "type": "function"
    }
  ],
  "bytecode": "0x60806040526001600d5534801561001557600080fd5b50604051469080605261310a823960408051918290036052018220828201825260068352652d34b931b7b760d11b6020938401528151808301835260018152603160f81b908401528151808401919091527f94c6df7cbb14f58e7ac6d9fa315f8346b33ef43dae2423c0e0e94673dd9e65ff818301527fc89efdaa54c0f20c7adf612882df0950f5a951637e0307cdcb4c672f298b8bc6606082015260808101949094523060a0808601919091528151808603909101815260c09094019052825192019190912060045550600580546001600160a01b03191633179055613009806101016000396000f3fe608060405234801561001057600080fd5b50600436106101805760003560e01c8063022c0d9f1461018557806306fdde03146102115780630902f1ac1461028e578063095ea7b3146102c65780630dfe16811461030657806311816b041461032a57806318160ddd1461033257806323b872dd1461034c5780632ce510901461038257806330adf81f146103b0578063313ce567146103b85780633644e515146103d6578063432275e6146103de57806353ddd9441461042a5780635909c0d5146104505780635a3d5493146104585780636a627842146104605780636da996361461048657806370a082311461048e5780637464fc3d146104b45780637ecebe00146104bc57806389afcb44146104e257806395d89b4114610521578063a9059cbb14610529578063ba9a7a5614610555578063bc25cf771461055d578063c0c53b8b14610583578063c45a0155146105bb578063d21220a7146105c3578063d505accf146105cb578063dd62ed3e1461061c578063fff6cae91461064a575b600080fd5b61020f6004803603608081101561019b57600080fd5b8135916020810135916001600160a01b036040830135169190810190608081016060820135600160201b8111156101d157600080fd5b8201836020820111156101e357600080fd5b803590602001918460018302840111600160201b8311171561020457600080fd5b509092509050610652565b005b610219610bfa565b6040805160208082528351818301528351919283929083019185019080838360005b8381101561025357818101518382015260200161023b565b50505050905090810190601f1680156102805780820380516001836020036101000a031916815260200191505b509250505060405180910390f35b610296610c1c565b604080516001600160701b03948516815292909316602083015263ffffffff168183015290519081900360600190f35b6102f2600480360360408110156102dc57600080fd5b506001600160a01b038135169060200135610c46565b604080519115158252519081900360200190f35b61030e610c5d565b604080516001600160a01b039092168252519081900360200190f35b61020f610c6c565b61033a610cb8565b60408051918252519081900360200190f35b6102f26004803603606081101561036257600080fd5b506001600160a01b03813581169160208101359091169060400135610cbe565b61033a6004803603604081101561039857600080fd5b506001600160a01b0381351690602001351515610d58565b61033a611243565b6103c0611255565b6040805160ff9092168252519081900360200190f35b61033a61125a565b61040c600480360360408110156103f457600080fd5b506001600160a01b0381351690602001351515611260565b60408051938452602084019290925282820152519081900360600190f35b61020f6004803603602081101561044057600080fd5b50356001600160a01b031661173b565b61033a6117b5565b61033a6117bb565b61033a6004803603602081101561047657600080fd5b50356001600160a01b03166117c1565b61030e611a97565b61033a600480360360208110156104a457600080fd5b50356001600160a01b0316611aa6565b61033a611ab8565b61033a600480360360208110156104d257600080fd5b50356001600160a01b0316611abe565b610508600480360360208110156104f857600080fd5b50356001600160a01b0316611ad0565b6040805192835260208301919091528051918290030190f35b610219611e53565b6102f26004803603604081101561053f57600080fd5b506001600160a01b038135169060200135611e72565b61033a611e7f565b61020f6004803603602081101561057357600080fd5b50356001600160a01b0316611e85565b61020f6004803603606081101561059957600080fd5b506001600160a01b038135811691602081013582169160409091013516611fea565b61030e612080565b61030e61208f565b61020f600480360360e08110156105e157600080fd5b506001600160a01b03813581169160208101359091169060408101359060608101359060ff6080820135169060a08101359060c0013561209e565b61033a6004803603604081101561063257600080fd5b506001600160a01b038135811691602001351661228d565b61020f6122aa565b600d54600114610697576040805162461bcd60e51b81526020600482015260116024820152600080516020612e90833981519152604482015290519081900360640190fd5b6000600d55841515806106aa5750600084115b6106e55760405162461bcd60e51b8152600401808060200182810382526025815260200180612dde6025913960400191505060405180910390fd5b6000806106f0610c1c565b5091509150816001600160701b0316871080156107155750806001600160701b031686105b6107505760405162461bcd60e51b8152600401808060200182810382526021815260200180612e476021913960400191505060405180910390fd5b60065460075460009182916001600160a01b0391821691908116908916821480159061078e5750806001600160a01b0316896001600160a01b031614155b6107d7576040805162461bcd60e51b8152602060048201526015602482015274556e697377617056323a20494e56414c49445f544f60581b604482015290519081900360640190fd5b8a156107e8576107e8828a8d6123ff565b89156107f9576107f9818a8c6123ff565b86156108b457886001600160a01b03166310d1e85c338d8d8c8c6040518663ffffffff1660e01b815260040180866001600160a01b03166001600160a01b03168152602001858152602001848152602001806020018281038252848482818152602001925080828437600081840152601f19601f8201169050808301925050509650505050505050600060405180830381600087803b15801561089b57600080fd5b505af11580156108af573d6000803e3d6000fd5b505050505b604080516370a0823160e01b815230600482015290516001600160a01b038416916370a08231916024808301926020929190829003018186803b1580156108fa57600080fd5b505afa15801561090e573d6000803e3d6000fd5b505050506040513d602081101561092457600080fd5b5051604080516370a0823160e01b815230600482015290519195506001600160a01b038316916370a0823191602480820192602092909190829003018186803b15801561097057600080fd5b505afa158015610984573d6000803e3d6000fd5b505050506040513d602081101561099a57600080fd5b5051925060009150506001600160701b0385168a900383116109bd5760006109cc565b89856001600160701b03160383035b9050600089856001600160701b03160383116109e95760006109f8565b89856001600160701b03160383035b90506000821180610a095750600081115b610a445760405162461bcd60e51b8152600401808060200182810382526024815260200180612e036024913960400191505060405180910390fd5b60055460408051632604632d60e21b815290516000926001600160a01b0316916398118cb4916004808301926020929190829003018186803b158015610a8957600080fd5b505afa158015610a9d573d6000803e3d6000fd5b505050506040513d6020811015610ab357600080fd5b505190506000610aea610acc858463ffffffff61259216565b610ade8861271063ffffffff61259216565b9063ffffffff6125f516565b90506000610b01610acc858563ffffffff61259216565b9050610b336305f5e100610b276001600160701b038c8116908c1663ffffffff61259216565b9063ffffffff61259216565b610b43838363ffffffff61259216565b1015610b85576040805162461bcd60e51b815260206004820152600c60248201526b556e697377617056323a204b60a01b604482015290519081900360640190fd5b505050610b9484848888612645565b60408051838152602081018390528082018d9052606081018c905290516001600160a01b038b169133917fd78ad95fa46c994b6551d0da85fc275fe613ce37657fb8d5e3d130840159d8229181900360800190a350506001600d55505050505050505050565b604051806040016040528060068152602001652d34b931b7b760d11b81525081565b6009546001600160701b0380821692600160701b830490911691600160e01b900463ffffffff1690565b6000610c533384846127fc565b5060015b92915050565b6006546001600160a01b031681565b600d54600114610cb1576040805162461bcd60e51b81526020600482015260116024820152600080516020612e90833981519152604482015290519081900360640190fd5b6001600d55565b60005481565b6001600160a01b038316600090815260026020908152604080832033845290915281205460001914610d43576001600160a01b0384166000908152600260209081526040808320338452909152902054610d1e908363ffffffff6125f516565b6001600160a01b03851660009081526002602090815260408083203384529091529020555b610d4e84848461285e565b5060019392505050565b6000600d54600114610d9f576040805162461bcd60e51b81526020600482015260116024820152600080516020612e90833981519152604482015290519081900360640190fd5b6000600d81905580610daf610c1c565b50600654600754604080516370a0823160e01b815230600482015290519496509294506001600160a01b03918216939116916000918291829186916370a08231916024808301926020929190829003018186803b158015610e0f57600080fd5b505afa158015610e23573d6000803e3d6000fd5b505050506040513d6020811015610e3957600080fd5b5051604080516370a0823160e01b815230600482015290519192506000916001600160a01b038716916370a08231916024808301926020929190829003018186803b158015610e8757600080fd5b505afa158015610e9b573d6000803e3d6000fd5b505050506040513d6020811015610eb157600080fd5b5051306000908152600160209081526040808320546005548251632604632d60e21b8152925195965090946001600160a01b03909116926398118cb49260048082019391829003018186803b158015610f0957600080fd5b505afa158015610f1d573d6000803e3d6000fd5b505050506040513d6020811015610f3357600080fd5b50519050610f418a8a612906565b60005480610f55848763ffffffff61259216565b81610f5c57fe5b04965080610f70848663ffffffff61259216565b81610f7757fe5b0495508c15610fec57610fa286878c6001600160701b031603898e6001600160701b03160385612af5565b87019650869b50848c10610fe75760405162461bcd60e51b8152600401808060200182810382526029815260200180612f416029913960400191505060405180910390fd5b611053565b61100e87888d6001600160701b031603888d6001600160701b03160385612af5565b86019550859b50838c106110535760405162461bcd60e51b8152600401808060200182810382526029815260200180612f416029913960400191505060405180910390fd5b6000871180156110635750600086115b61109e5760405162461bcd60e51b8152600401808060200182810382526028815260200180612e686028913960400191505060405180910390fd5b6110a83084612bdd565b8c156110be576110b9898f8e6123ff565b6110c9565b6110c9888f8e6123ff565b604080516370a0823160e01b815230600482015290516001600160a01b038b16916370a08231916024808301926020929190829003018186803b15801561110f57600080fd5b505afa158015611123573d6000803e3d6000fd5b505050506040513d602081101561113957600080fd5b5051604080516370a0823160e01b815230600482015290519196506001600160a01b038a16916370a0823191602480820192602092909190829003018186803b15801561118557600080fd5b505afa158015611199573d6000803e3d6000fd5b505050506040513d60208110156111af57600080fd5b505193506111bf85858d8d612645565b6009546111e5906001600160701b0380821691600160701b90041663ffffffff61259216565b600c819055508d6001600160a01b0316336001600160a01b0316600080516020612f218339815191528989604051808381526020018281526020019250505060405180910390a350506001600d5550979a9950505050505050505050565b600080516020612f8a83398151915281565b601281565b60045481565b6000806000600d546001146112aa576040805162461bcd60e51b81526020600482015260116024820152600080516020612e90833981519152604482015290519081900360640190fd5b6000600d819055546112ed5760405162461bcd60e51b8152600401808060200182810382526021815260200180612ed86021913960400191505060405180910390fd5b6000806112f8610c1c565b50600654604080516370a0823160e01b815230600482015290519395509193506000926001600160a01b03909116916370a08231916024808301926020929190829003018186803b15801561134c57600080fd5b505afa158015611360573d6000803e3d6000fd5b505050506040513d602081101561137657600080fd5b5051600754604080516370a0823160e01b815230600482015290519293506000926001600160a01b03909216916370a0823191602480820192602092909190829003018186803b1580156113c957600080fd5b505afa1580156113dd573d6000803e3d6000fd5b505050506040513d60208110156113f357600080fd5b50519050611410826001600160701b03861663ffffffff6125f516565b955061142b816001600160701b03851663ffffffff6125f516565b94506000600560009054906101000a90046001600160a01b03166001600160a01b03166398118cb46040518163ffffffff1660e01b815260040160206040518083038186803b15801561147d57600080fd5b505afa158015611491573d6000803e3d6000fd5b505050506040513d60208110156114a757600080fd5b505190506000891561154e5760018811611502576040805162461bcd60e51b815260206004820152601760248201527616940e88125b9cdd59999a58da595b9d08105b5bdd5b9d604a1b604482015290519081900360640190fd5b6115476115428461271061151f8c60028804830360001901612592565b8161152657fe5b6009546001600160701b0316919004019063ffffffff61259216565b612c69565b90506115e2565b6001871161159d576040805162461bcd60e51b815260206004820152601760248201527616940e88125b9cdd59999a58da595b9d08105b5bdd5b9d604a1b604482015290519081900360640190fd5b6115df6115426127106115b98a60028704830360001901612592565b816115c057fe5b6009548892909104600160701b9091046001600160701b031601612592565b90505b60095460009061160f90611542906001600160701b0380821691600160701b90041663ffffffff61259216565b9050600061162c600054610b2784866125f590919063ffffffff16565b90508180828161163857fe5b600980546001600160701b038a8116600160701b02600160701b600160e01b0319918d166001600160701b03199093169290921716179055049b5061167d8989612906565b60008c116116bc5760405162461bcd60e51b8152600401808060200182810382526028815260200180612eb06028913960400191505060405180910390fd5b6116c68e8d612cbb565b6116d287878b8b612645565b6009546116f8906001600160701b0380821691600160701b90041663ffffffff61259216565b600c55604080518c8152602081018c905281513392600080516020612e27833981519152928290030190a25050505050505050506001600d819055509250925092565b6005546001600160a01b03163314611793576040805162461bcd60e51b8152602060048201526016602482015275155b9a5cddd85c158c8e881393d517d0531313d5d15160521b604482015290519081900360640190fd5b600880546001600160a01b0319166001600160a01b0392909216919091179055565b600a5481565b600b5481565b6000600d54600114611808576040805162461bcd60e51b81526020600482015260116024820152600080516020612e90833981519152604482015290519081900360640190fd5b6000600d81905580611818610c1c565b50600654604080516370a0823160e01b815230600482015290519395509193506000926001600160a01b03909116916370a08231916024808301926020929190829003018186803b15801561186c57600080fd5b505afa158015611880573d6000803e3d6000fd5b505050506040513d602081101561189657600080fd5b5051600754604080516370a0823160e01b815230600482015290519293506000926001600160a01b03909216916370a0823191602480820192602092909190829003018186803b1580156118e957600080fd5b505afa1580156118fd573d6000803e3d6000fd5b505050506040513d602081101561191357600080fd5b505190506000611932836001600160701b03871663ffffffff6125f516565b9050600061194f836001600160701b03871663ffffffff6125f516565b905061195b8686612906565b600054806119905761197c6103e8610ade611542868663ffffffff61259216565b975061198b60006103e8612cbb565b6119df565b6119dc6001600160701b0388166119ad858463ffffffff61259216565b816119b457fe5b046001600160701b0388166119cf858563ffffffff61259216565b816119d657fe5b04612d3f565b97505b60008811611a1e5760405162461bcd60e51b8152600401808060200182810382526028815260200180612eb06028913960400191505060405180910390fd5b611a288989612cbb565b611a3485858989612645565b600954611a5a906001600160701b0380821691600160701b90041663ffffffff61259216565b600c55604080518481526020810184905281513392600080516020612e27833981519152928290030190a250506001600d55509395945050505050565b6008546001600160a01b031681565b60016020526000908152604090205481565b600c5481565b60036020526000908152604090205481565b600080600d54600114611b18576040805162461bcd60e51b81526020600482015260116024820152600080516020612e90833981519152604482015290519081900360640190fd5b6000600d81905580611b28610c1c565b50600654600754604080516370a0823160e01b815230600482015290519496509294506001600160a01b039182169391169160009184916370a08231916024808301926020929190829003018186803b158015611b8457600080fd5b505afa158015611b98573d6000803e3d6000fd5b505050506040513d6020811015611bae57600080fd5b5051604080516370a0823160e01b815230600482015290519192506000916001600160a01b038516916370a08231916024808301926020929190829003018186803b158015611bfc57600080fd5b505afa158015611c10573d6000803e3d6000fd5b505050506040513d6020811015611c2657600080fd5b505130600090815260016020526040902054909150611c458787612906565b60005480611c59838663ffffffff61259216565b81611c6057fe5b04995080611c74838563ffffffff61259216565b81611c7b57fe5b04985060008a118015611c8e5750600089115b611cc95760405162461bcd60e51b8152600401808060200182810382526028815260200180612e686028913960400191505060405180910390fd5b611cd33083612bdd565b611cde868c8c6123ff565b611ce9858c8b6123ff565b604080516370a0823160e01b815230600482015290516001600160a01b038816916370a08231916024808301926020929190829003018186803b158015611d2f57600080fd5b505afa158015611d43573d6000803e3d6000fd5b505050506040513d6020811015611d5957600080fd5b5051604080516370a0823160e01b815230600482015290519195506001600160a01b038716916370a0823191602480820192602092909190829003018186803b158015611da557600080fd5b505afa158015611db9573d6000803e3d6000fd5b505050506040513d6020811015611dcf57600080fd5b50519250611ddf84848a8a612645565b600954611e05906001600160701b0380821691600160701b90041663ffffffff61259216565b600c55604080518b8152602081018b905281516001600160a01b038e16923392600080516020612f21833981519152929081900390910190a350505050505050506001600d81905550915091565b6040518060400160405280600381526020016216941560ea1b81525081565b6000610c5333848461285e565b6103e881565b600d54600114611eca576040805162461bcd60e51b81526020600482015260116024820152600080516020612e90833981519152604482015290519081900360640190fd5b6000600d55600654600754600954604080516370a0823160e01b815230600482015290516001600160a01b039485169490931692611f799285928792611f74926001600160701b03169185916370a0823191602480820192602092909190829003018186803b158015611f3c57600080fd5b505afa158015611f50573d6000803e3d6000fd5b505050506040513d6020811015611f6657600080fd5b50519063ffffffff6125f516565b6123ff565b600954604080516370a0823160e01b81523060048201529051611fe09284928792611f7492600160701b90046001600160701b0316916001600160a01b038616916370a0823191602480820192602092909190829003018186803b158015611f3c57600080fd5b50506001600d5550565b6005546001600160a01b03163314612041576040805162461bcd60e51b81526020600482015260156024820152742d34b931b7b72830b4b91d102327a92124a22222a760591b604482015290519081900360640190fd5b600680546001600160a01b039485166001600160a01b031991821617909155600780549385169382169390931790925560088054919093169116179055565b6005546001600160a01b031681565b6007546001600160a01b031681565b428410156120e8576040805162461bcd60e51b8152602060048201526012602482015271155b9a5cddd85c158c8e881156141254915160721b604482015290519081900360640190fd5b6004546001600160a01b038089166000818152600360209081526040808320805460018082019092558251600080516020612f8a8339815191528186015280840196909652958d166060860152608085018c905260a085019590955260c08085018b90528151808603909101815260e08501825280519083012061190160f01b6101008601526101028501969096526101228085019690965280518085039096018652610142840180825286519683019690962095839052610162840180825286905260ff89166101828501526101a284018890526101c28401879052519193926101e280820193601f1981019281900390910190855afa1580156121f1573d6000803e3d6000fd5b5050604051601f1901519150506001600160a01b038116158015906122275750886001600160a01b0316816001600160a01b0316145b612277576040805162461bcd60e51b815260206004820152601c60248201527b556e697377617056323a20494e56414c49445f5349474e415455524560201b604482015290519081900360640190fd5b6122828989896127fc565b505050505050505050565b600260209081526000928352604080842090915290825290205481565b600d546001146122ef576040805162461bcd60e51b81526020600482015260116024820152600080516020612e90833981519152604482015290519081900360640190fd5b6000600d55600654604080516370a0823160e01b81523060048201529051610cb1926001600160a01b0316916370a08231916024808301926020929190829003018186803b15801561234057600080fd5b505afa158015612354573d6000803e3d6000fd5b505050506040513d602081101561236a57600080fd5b5051600754604080516370a0823160e01b815230600482015290516001600160a01b03909216916370a0823191602480820192602092909190829003018186803b1580156123b757600080fd5b505afa1580156123cb573d6000803e3d6000fd5b505050506040513d60208110156123e157600080fd5b50516009546001600160701b0380821691600160701b900416612645565b60408051808201825260198152787472616e7366657228616464726573732c75696e743235362960381b60209182015281516001600160a01b0385811660248301526044808301869052845180840390910181526064909201845291810180516001600160e01b031663a9059cbb60e01b1781529251815160009460609489169392918291908083835b602083106124a85780518252601f199092019160209182019101612489565b6001836020036101000a0380198251168184511680821785525050505050509050019150506000604051808303816000865af19150503d806000811461250a576040519150601f19603f3d011682016040523d82523d6000602084013e61250f565b606091505b509150915081801561253d57508051158061253d575080806020019051602081101561253a57600080fd5b50515b61258b576040805162461bcd60e51b815260206004820152601a602482015279155b9a5cddd85c158c8e881514905394d1915497d1905253115160321b604482015290519081900360640190fd5b5050505050565b60008115806125ad575050808202828282816125aa57fe5b04145b610c57576040805162461bcd60e51b815260206004820152601460248201527364732d6d6174682d6d756c2d6f766572666c6f7760601b604482015290519081900360640190fd5b80820382811115610c57576040805162461bcd60e51b815260206004820152601560248201527464732d6d6174682d7375622d756e646572666c6f7760581b604482015290519081900360640190fd5b6001600160701b03841180159061266357506001600160701b038311155b6126aa576040805162461bcd60e51b8152602060048201526013602482015272556e697377617056323a204f564552464c4f5760681b604482015290519081900360640190fd5b60095463ffffffff42811691600160e01b900481168203908116158015906126da57506001600160701b03841615155b80156126ee57506001600160701b03831615155b1561275f578063ffffffff1661271c8561270786612d57565b6001600160e01b03169063ffffffff612d6916565b600a80546001600160e01b03929092169290920201905563ffffffff81166127478461270787612d57565b600b80546001600160e01b0392909216929092020190555b600980546001600160701b0319166001600160701b0388811691909117600160701b600160e01b031916600160701b8883168102919091176001600160e01b0316600160e01b63ffffffff871602179283905560408051848416815291909304909116602082015281517f1c411e9a96e071241c2f21f7726b17ae89e3cab4c78be50e062b03a9fffbbad1929181900390910190a1505050505050565b6001600160a01b03808416600081815260026020908152604080832094871680845294825291829020859055815185815291517f8c5be1e5ebec7d5bd14f71427d1e84f3dd0314c0f7b2291e5b200ac8c7c3b9259281900390910190a3505050565b6001600160a01b038316600090815260016020526040902054612887908263ffffffff6125f516565b6001600160a01b0380851660009081526001602052604080822093909355908416815220546128bc908263ffffffff612d8e16565b6001600160a01b038084166000818152600160209081526040918290209490945580518581529051919392871692600080516020612f6a83398151915292918290030190a3505050565b600c548015612af05760006129306115426001600160701b0386811690861663ffffffff61259216565b9050600061293d83612c69565b90508082111561258b5760055460408051637ac9059160e11b815290516000926001600160a01b03169163f5920b22916004808301926020929190829003018186803b15801561298c57600080fd5b505afa1580156129a0573d6000803e3d6000fd5b505050506040513d60208110156129b657600080fd5b5051905060006129d8670de0b6b3a7640000610b27868663ffffffff6125f516565b905060006129fc846129f0878663ffffffff61259216565b9063ffffffff612d8e16565b90506000818381612a0957fe5b049050801561228257600854600054612a4e916001600160a01b031690670de0b6b3a764000090612a4190859063ffffffff61259216565b81612a4857fe5b04612cbb565b600085612a6d670de0b6b3a7640000610b278a8463ffffffff6125f516565b81612a7457fe5b60085491900491506001600160a01b031663b9d92de8612a9a838563ffffffff6125f516565b6040518263ffffffff1660e01b815260040180828152602001915050600060405180830381600087803b158015612ad057600080fd5b505af1158015612ae4573d6000803e3d6000fd5b50505050505050505050505b505050565b6000808511612b355760405162461bcd60e51b815260040180806020018281038252602b815260200180612faa602b913960400191505060405180910390fd5b600084118015612b455750600083115b612b805760405162461bcd60e51b8152600401808060200182810382526028815260200180612ef96028913960400191505060405180910390fd5b6000612b978661271085900363ffffffff61259216565b90506000612bab828663ffffffff61259216565b90506000612bc5836129f08961271063ffffffff61259216565b9050808281612bd057fe5b0498975050505050505050565b6001600160a01b038216600090815260016020526040902054612c06908263ffffffff6125f516565b6001600160a01b03831660009081526001602052604081209190915554612c33908263ffffffff6125f516565b60009081556040805183815290516001600160a01b03851691600080516020612f6a833981519152919081900360200190a35050565b60006003821115612cac575080600160028204015b81811015612ca657809150600281828581612c9557fe5b040181612c9e57fe5b049050612c7e565b50612cb6565b8115612cb6575060015b919050565b600054612cce908263ffffffff612d8e16565b60009081556001600160a01b038316815260016020526040902054612cf9908263ffffffff612d8e16565b6001600160a01b0383166000818152600160209081526040808320949094558351858152935192939192600080516020612f6a8339815191529281900390910190a35050565b6000818310612d4e5781612d50565b825b9392505050565b6001600160701b0316600160701b0290565b60006001600160701b0382166001600160e01b03841681612d8657fe5b049392505050565b80820182811015610c57576040805162461bcd60e51b815260206004820152601460248201527364732d6d6174682d6164642d6f766572666c6f7760601b604482015290519081900360640190fdfe556e697377617056323a20494e53554646494349454e545f4f55545055545f414d4f554e54556e697377617056323a20494e53554646494349454e545f494e5055545f414d4f554e544c209b5fc8ad50758f13e2e1088ba56a560dff690a1c6fef26394f4c03821c4f556e697377617056323a20494e53554646494349454e545f4c4951554944495459556e697377617056323a20494e53554646494349454e545f4c49515549444954595f4255524e4544556e697377617056323a204c4f434b4544000000000000000000000000000000556e697377617056323a20494e53554646494349454e545f4c49515549444954595f4d494e544544556e697377617056323a20557365206d696e7420746f2073746172742070616972556e697377617056324c6962726172793a20494e53554646494349454e545f4c4951554944495459dccd412f0b1252819cb1fd330b93224ca42612892bb3f4f789976e6d81936496556e697377617056323a20455854454e53494f4e5f4e4f545f454e4f5547485f4c4951554944495459ddf252ad1be2c89b69c2b068fc378daa952ba7f163c4a11628f55a4df523b3ef6e71edae12b1b97f4d1f60370fef10105fa2faae0126114a169c64845d6126c9556e697377617056324c6962726172793a20494e53554646494349454e545f494e5055545f414d4f554e54a265627a7a7231582014773f287b33dd1cf59ae0ddb0f00c3c228ab542d1655da4ccf0f9993ffe9f1764736f6c63430005100032454950373132446f6d61696e28737472696e67206e616d652c737472696e672076657273696f6e2c75696e7432353620636861696e49642c6164647265737320766572696679696e67436f6e747261637429",
  "linkReferences": {},
  "deployedLinkReferences": {}
}