{
  "_format": "hh-sol-artifact-1",
  "contractName": "ZirconPylon",
  "sourceName": "contracts/ZirconPylon.sol",
  "abi": [
    {
      "inputs": [],
      "payable": false,
      "stateMutability": "nonpayable",
      "type": "constructor"
    },
    {
      "anonymous": false,
      "inputs": [
        {
          "indexed": false,
          "internalType": "address",
          "name": "sender",
          "type": "address"
        },
        {
          "indexed": false,
          "internalType": "uint256",
          "name": "aIn0",
          "type": "uint256"
        },
        {
          "indexed": false,
          "internalType": "bool",
          "name": "isAnchor",
          "type": "bool"
        }
      ],
      "name": "Burn",
      "type": "event"
    },
    {
      "anonymous": false,
      "inputs": [
        {
          "indexed": false,
          "internalType": "address",
          "name": "sender",
          "type": "address"
        },
        {
          "indexed": false,
          "internalType": "uint256",
          "name": "aIn0",
          "type": "uint256"
        },
        {
          "indexed": false,
          "internalType": "uint256",
          "name": "aIn1",
          "type": "uint256"
        }
      ],
      "name": "BurnAsync",
      "type": "event"
    },
    {
      "anonymous": false,
      "inputs": [
        {
          "indexed": false,
          "internalType": "address",
          "name": "sender",
          "type": "address"
        },
        {
          "indexed": false,
          "internalType": "uint256",
          "name": "aIn0",
          "type": "uint256"
        },
        {
          "indexed": false,
          "internalType": "uint256",
          "name": "aIn1",
          "type": "uint256"
        }
      ],
      "name": "MintAsync",
      "type": "event"
    },
    {
      "anonymous": false,
      "inputs": [
        {
          "indexed": false,
          "internalType": "address",
          "name": "sender",
          "type": "address"
        },
        {
          "indexed": false,
          "internalType": "uint256",
          "name": "aIn0",
          "type": "uint256"
        },
        {
          "indexed": false,
          "internalType": "bool",
          "name": "isAnchor",
          "type": "bool"
        }
      ],
      "name": "MintSync",
      "type": "event"
    },
    {
      "anonymous": false,
      "inputs": [
        {
          "indexed": false,
          "internalType": "uint256",
          "name": "_vab",
          "type": "uint256"
        },
        {
          "indexed": false,
          "internalType": "uint256",
          "name": "_vfb",
          "type": "uint256"
        },
        {
          "indexed": false,
          "internalType": "uint256",
          "name": "_gamma",
          "type": "uint256"
        }
      ],
      "name": "PylonSync",
      "type": "event"
    },
    {
      "anonymous": false,
      "inputs": [
        {
          "indexed": false,
          "internalType": "uint256",
          "name": "_reserve0",
          "type": "uint256"
        },
        {
          "indexed": false,
          "internalType": "uint256",
          "name": "_reserve1",
          "type": "uint256"
        }
      ],
      "name": "PylonUpdate",
      "type": "event"
    },
    {
      "constant": true,
      "inputs": [],
      "name": "EMABlockNumber",
      "outputs": [
        {
          "internalType": "uint256",
          "name": "",
          "type": "uint256"
        }
      ],
      "payable": false,
      "stateMutability": "view",
      "type": "function"
    },
    {
      "constant": true,
      "inputs": [],
      "name": "anchorKFactor",
      "outputs": [
        {
          "internalType": "uint256",
          "name": "",
          "type": "uint256"
        }
      ],
      "payable": false,
      "stateMutability": "view",
      "type": "function"
    },
    {
      "constant": false,
      "inputs": [
        {
          "internalType": "address",
          "name": "_to",
          "type": "address"
        },
        {
          "internalType": "bool",
          "name": "_isAnchor",
          "type": "bool"
        }
      ],
      "name": "burn",
      "outputs": [
        {
          "internalType": "uint256",
          "name": "amount",
          "type": "uint256"
        }
      ],
      "payable": false,
      "stateMutability": "nonpayable",
      "type": "function"
    },
    {
      "constant": false,
      "inputs": [
        {
          "internalType": "address",
          "name": "_to",
          "type": "address"
        },
        {
          "internalType": "bool",
          "name": "_isAnchor",
          "type": "bool"
        }
      ],
      "name": "burnAsync",
      "outputs": [
        {
          "internalType": "uint256",
          "name": "amount0",
          "type": "uint256"
        },
        {
          "internalType": "uint256",
          "name": "amount1",
          "type": "uint256"
        }
      ],
      "payable": false,
      "stateMutability": "nonpayable",
      "type": "function"
    },
    {
      "constant": false,
      "inputs": [
        {
          "internalType": "address",
          "name": "_energyAddress",
          "type": "address"
        },
        {
          "internalType": "address",
          "name": "_energyRevAddress",
          "type": "address"
        }
      ],
      "name": "changeEnergyAddress",
      "outputs": [],
      "payable": false,
      "stateMutability": "nonpayable",
      "type": "function"
    },
    {
      "constant": true,
      "inputs": [],
      "name": "formulaSwitch",
      "outputs": [
        {
          "internalType": "bool",
          "name": "",
          "type": "bool"
        }
      ],
      "payable": false,
      "stateMutability": "view",
      "type": "function"
    },
    {
      "constant": true,
      "inputs": [],
      "name": "gammaEMA",
      "outputs": [
        {
          "internalType": "uint256",
          "name": "",
          "type": "uint256"
        }
      ],
      "payable": false,
      "stateMutability": "view",
      "type": "function"
    },
    {
      "constant": true,
      "inputs": [],
      "name": "gammaMulDecimals",
      "outputs": [
        {
          "internalType": "uint256",
          "name": "",
          "type": "uint256"
        }
      ],
      "payable": false,
      "stateMutability": "view",
      "type": "function"
    },
    {
      "constant": true,
      "inputs": [],
      "name": "getSyncReserves",
      "outputs": [
        {
          "internalType": "uint112",
          "name": "_reserve0",
          "type": "uint112"
        },
        {
          "internalType": "uint112",
          "name": "_reserve1",
          "type": "uint112"
        }
      ],
      "payable": false,
      "stateMutability": "view",
      "type": "function"
    },
    {
      "constant": false,
      "inputs": [
        {
          "internalType": "uint256",
          "name": "_gamma",
          "type": "uint256"
        },
        {
          "internalType": "uint256",
          "name": "_vab",
          "type": "uint256"
        },
        {
          "internalType": "uint256",
          "name": "_anchorKFactor",
          "type": "uint256"
        },
        {
          "internalType": "bool",
          "name": "_formulaSwitch",
          "type": "bool"
        }
      ],
      "name": "initMigratedPylon",
      "outputs": [],
      "payable": false,
      "stateMutability": "nonpayable",
      "type": "function"
    },
    {
      "constant": false,
      "inputs": [
        {
          "internalType": "address",
          "name": "_to",
          "type": "address"
        }
      ],
      "name": "initPylon",
      "outputs": [
        {
          "internalType": "uint256",
          "name": "floatLiquidity",
          "type": "uint256"
        },
        {
          "internalType": "uint256",
          "name": "anchorLiquidity",
          "type": "uint256"
        }
      ],
      "payable": false,
      "stateMutability": "nonpayable",
      "type": "function"
    },
    {
      "constant": false,
      "inputs": [
        {
          "internalType": "address",
          "name": "_floatPoolTokenAddress",
          "type": "address"
        },
        {
          "internalType": "address",
          "name": "_anchorPoolTokenAddress",
          "type": "address"
        },
        {
          "internalType": "address",
          "name": "_floatToken",
          "type": "address"
        },
        {
          "internalType": "address",
          "name": "_anchorToken",
          "type": "address"
        },
        {
          "internalType": "address",
          "name": "_pairAddress",
          "type": "address"
        },
        {
          "internalType": "address",
          "name": "_pairFactoryAddress",
          "type": "address"
        },
        {
          "internalType": "address",
          "name": "_energy",
          "type": "address"
        },
        {
          "internalType": "address",
          "name": "_energyRev",
          "type": "address"
        }
      ],
      "name": "initialize",
      "outputs": [],
      "payable": false,
      "stateMutability": "nonpayable",
      "type": "function"
    },
    {
      "constant": true,
      "inputs": [],
      "name": "initialized",
      "outputs": [
        {
          "internalType": "uint256",
          "name": "",
          "type": "uint256"
        }
      ],
      "payable": false,
      "stateMutability": "view",
      "type": "function"
    },
    {
      "constant": true,
      "inputs": [],
      "name": "isFloatReserve0",
      "outputs": [
        {
          "internalType": "bool",
          "name": "",
          "type": "bool"
        }
      ],
      "payable": false,
      "stateMutability": "view",
      "type": "function"
    },
    {
      "constant": true,
      "inputs": [],
      "name": "lastRootKTranslated",
      "outputs": [
        {
          "internalType": "uint256",
          "name": "",
          "type": "uint256"
        }
      ],
      "payable": false,
      "stateMutability": "view",
      "type": "function"
    },
    {
      "constant": false,
      "inputs": [
        {
          "internalType": "address",
          "name": "newPylon",
          "type": "address"
        }
      ],
      "name": "migrateLiquidity",
      "outputs": [],
      "payable": false,
      "stateMutability": "nonpayable",
      "type": "function"
    },
    {
      "constant": false,
      "inputs": [
        {
          "internalType": "address",
          "name": "to",
          "type": "address"
        },
        {
          "internalType": "bool",
          "name": "shouldMintAnchor",
          "type": "bool"
        }
      ],
      "name": "mintAsync",
      "outputs": [
        {
          "internalType": "uint256",
          "name": "liquidity",
          "type": "uint256"
        }
      ],
      "payable": false,
      "stateMutability": "nonpayable",
      "type": "function"
    },
    {
      "constant": false,
      "inputs": [
        {
          "internalType": "address",
          "name": "_to",
          "type": "address"
        },
        {
          "internalType": "bool",
          "name": "isAnchor",
          "type": "bool"
        }
      ],
      "name": "mintPoolTokens",
      "outputs": [
        {
          "internalType": "uint256",
          "name": "liquidity",
          "type": "uint256"
        }
      ],
      "payable": false,
      "stateMutability": "nonpayable",
      "type": "function"
    },
    {
      "constant": true,
      "inputs": [],
      "name": "muMulDecimals",
      "outputs": [
        {
          "internalType": "uint256",
          "name": "",
          "type": "uint256"
        }
      ],
      "payable": false,
      "stateMutability": "view",
      "type": "function"
    },
    {
      "constant": true,
      "inputs": [],
      "name": "strikeBlock",
      "outputs": [
        {
          "internalType": "uint256",
          "name": "",
          "type": "uint256"
        }
      ],
      "payable": false,
      "stateMutability": "view",
      "type": "function"
    },
    {
      "constant": true,
      "inputs": [],
      "name": "thisBlockEMA",
      "outputs": [
        {
          "internalType": "uint256",
          "name": "",
          "type": "uint256"
        }
      ],
      "payable": false,
      "stateMutability": "view",
      "type": "function"
    },
    {
      "constant": true,
      "inputs": [],
      "name": "virtualAnchorBalance",
      "outputs": [
        {
          "internalType": "uint256",
          "name": "",
          "type": "uint256"
        }
      ],
      "payable": false,
      "stateMutability": "view",
      "type": "function"
    }
  ],
  "bytecode": "0x6080604052600060175534801561001557600080fd5b506000805460ff19166001179055600480546001600160a01b03191633179055614a89806100446000396000f3fe608060405234801561001057600080fd5b50600436106101125760003560e01c80630a22d5f314610117578063158ef93e14610145578063192b65d81461015f5780633339dc1a1461016757806333cdde4e1461016f578063438ab5ac1461019d5780634a00d16a146101c55780638a29e2de146101cd5780638aa961491461022c5780638d470e221461025a5780638ffa32361461028857806397ed64db146102a4578063a01de3aa146102ac578063a9f0e58f146102b4578063af0dda2a146102bc578063b7073003146102ed578063ba7b3dea146102f5578063c561cf4f14610323578063c9bd59a01461036a578063efefd9f914610372578063f29401c41461037a578063fef93492146103a0575b600080fd5b61011f6103a8565b604080516001600160701b03938416815291909216602082015281519081900390910190f35b61014d6103c3565b60408051918252519081900360200190f35b61014d6103c9565b61014d6103cf565b61014d6004803603604081101561018557600080fd5b506001600160a01b03813516906020013515156103d5565b6101c3600480360360208110156101b357600080fd5b50356001600160a01b0316610838565b005b61014d610964565b6101c360048036036101008110156101e457600080fd5b506001600160a01b038135811691602081013582169160408201358116916060810135821691608082013581169160a081013582169160c082013581169160e001351661096a565b6101c36004803603604081101561024257600080fd5b506001600160a01b0381358116916020013516610aff565b61014d6004803603604081101561027057600080fd5b506001600160a01b0381351690602001351515610b35565b610290610da8565b604080519115158252519081900360200190f35b61014d610db8565b610290610dbe565b61014d610dc7565b6101c3600480360360808110156102d257600080fd5b50803590602081013590604081013590606001351515610dcd565b61014d610e19565b61014d6004803603604081101561030b57600080fd5b506001600160a01b0381351690602001351515610e1f565b6103516004803603604081101561033957600080fd5b506001600160a01b0381351690602001351515611380565b6040805192835260208301919091528051918290030190f35b61014d6113de565b61014d6113e4565b6103516004803603602081101561039057600080fd5b50356001600160a01b03166113ea565b61014d6118d9565b6016546001600160701b0380821692600160701b9092041690565b60175481565b600a5481565b60105481565b6000805460ff1661041b576040805162461bcd60e51b815260206004820152601f6024820152600080516020614a10833981519152604482015290519081900360640190fd5b6000805460ff1916905561042d6118df565b610435611998565b60008261044d576006546001600160a01b031661045a565b6007546001600160a01b03165b90506000806104676103a8565b600154604080516370a0823160e01b81523060048201529051939550919350600092839283926001600160a01b0316916370a0823191602480820192602092909190829003018186803b1580156104bd57600080fd5b505afa1580156104d1573d6000803e3d6000fd5b505050506040513d60208110156104e757600080fd5b5051600254604080516370a0823160e01b815230600482015290519293506000926001600160a01b03909216916370a0823191602480820192602092909190829003018186803b15801561053a57600080fd5b505afa15801561054e573d6000803e3d6000fd5b505050506040513d602081101561056457600080fd5b50519050610581826001600160701b03881663ffffffff611db716565b935061059c816001600160701b03871663ffffffff611db716565b925060006105a8611e0d565b90506105b685826000612033565b94506105c484826001612033565b935060008061063987878e8d6001600160a01b03166318160ddd6040518163ffffffff1660e01b815260040160206040518083038186803b15801561060857600080fd5b505afa15801561061c573d6000803e3d6000fd5b505050506040513d602081101561063257600080fd5b50516122ad565b91509150819a508b156106a257600080610654600080612393565b91509150610694600b60009054906101000a900460ff1684600c5461068d8e6001600160701b0316600a54611db790919063ffffffff16565b868661250c565b600c555050600a8054820190555b50505050506106b082612743565b6106b981612743565b6001546003546106d6916001600160a01b03908116911684612781565b6002546003546106f3916001600160a01b03908116911683612781565b600354604080516335313c2160e11b815230600482015290516001600160a01b0390921691636a627842916024808201926020929091908290030181600087803b15801561074057600080fd5b505af1158015610754573d6000803e3d6000fd5b505050506040513d602081101561076a57600080fd5b5050604080516340c10f1960e01b81526001600160a01b038a81166004830152602482018990529151918716916340c10f199160448082019260009290919082900301818387803b1580156107be57600080fd5b505af11580156107d2573d6000803e3d6000fd5b5050604080513381526020810186905280820185905290517f9a36e9f82fd3ab4ec26a87598c0f7f4519b7895fa6a0bca1968b486ee019b0829350908190036060019150a161081f6128ff565b50506000805460ff191660011790555091949350505050565b610840612bb9565b600354604080516370a0823160e01b815230600482015290516108c1926001600160a01b031691849183916370a08231916024808301926020929190829003018186803b15801561089057600080fd5b505afa1580156108a4573d6000803e3d6000fd5b505050506040513d60208110156108ba57600080fd5b5051612781565b600254604080516370a0823160e01b81523060048201529051610911926001600160a01b031691849183916370a08231916024808301926020929190829003018186803b15801561089057600080fd5b600154604080516370a0823160e01b81523060048201529051610961926001600160a01b031691849183916370a08231916024808301926020929190829003018186803b15801561089057600080fd5b50565b600d5481565b60005460ff166109af576040805162461bcd60e51b815260206004820152601f6024820152600080516020614a10833981519152604482015290519081900360640190fd5b6000805460ff191690556109c1612bb9565b600680546001600160a01b03808b166001600160a01b031992831617909255600780548a84169083161790556003805487841692168217905560408051630dfe168160e01b8152905192891692630dfe168191600481810192602092909190829003018186803b158015610a3457600080fd5b505afa158015610a48573d6000803e3d6000fd5b505050506040513d6020811015610a5e57600080fd5b505160098054604080518082019091526001600160a01b039a8b16808252998b166020909101819052600180546001600160a01b0319908116909b178155600280548c16909217909155600580548b16988c1698909817909755600880548a16968b169690961790955560ff60a01b1990941690881691909114600160a01b021790941693909416929092179092556000805460ff19169091179055505050565b610b07612bb9565b600880546001600160a01b039384166001600160a01b03199182161790915560098054929093169116179055565b6000805460ff16610b7b576040805162461bcd60e51b815260206004820152601f6024820152600080516020614a10833981519152604482015290519081900360640190fd5b6000805460ff19169055610b8d6118df565b610b95611998565b600080610ba06103a8565b915091506000610c6f85610bb45783610bb6565b825b6001600160701b031686610bd5576001546001600160a01b0316610be2565b6002546001600160a01b03165b6001600160a01b03166370a08231306040518263ffffffff1660e01b815260040180826001600160a01b03166001600160a01b0316815260200191505060206040518083038186803b158015610c3757600080fd5b505afa158015610c4b573d6000803e3d6000fd5b505050506040513d6020811015610c6157600080fd5b50519063ffffffff611db716565b9050610c7a81612743565b610c8c81610c86611e0d565b87612033565b9050600080610c9c600080612393565b915091506000610ccf8489610cb15784610cb3565b835b8a610cbe5788610cc0565b875b6001600160701b03168b612c01565b90975090508715610ce357600a8054820190555b610cec87612efe565b87610d02576006546001600160a01b0316610d0f565b6007546001600160a01b03165b6001600160a01b03166340c10f198a896040518363ffffffff1660e01b815260040180836001600160a01b03166001600160a01b0316815260200182815260200192505050600060405180830381600087803b158015610d6e57600080fd5b505af1158015610d82573d6000803e3d6000fd5b50505050610d8e6128ff565b50506000805460ff19166001179055509295945050505050565b600954600160a01b900460ff1681565b600e5481565b600b5460ff1681565b600c5481565b610dd5612bb9565b600e849055600a839055600c829055600b805460ff1916821515179055600f8490554360145560158490558215610e0e57610e0e6128ff565b505060016017555050565b60115481565b6000805460ff16610e65576040805162461bcd60e51b815260206004820152601f6024820152600080516020614a10833981519152604482015290519081900360640190fd5b6000805460ff19169055610e776118df565b610e7f611998565b600082610e97576006546001600160a01b0316610ea4565b6007546001600160a01b03165b604080516370a0823160e01b815230600482015290519192506000916001600160a01b038416916370a08231916024808301926020929190829003018186803b158015610ef057600080fd5b505afa158015610f04573d6000803e3d6000fd5b505050506040513d6020811015610f1a57600080fd5b50519050610f2781612743565b6000826001600160a01b03166318160ddd6040518163ffffffff1660e01b815260040160206040518083038186803b158015610f6257600080fd5b505afa158015610f76573d6000803e3d6000fd5b505050506040513d6020811015610f8c57600080fd5b5051600354909150869086906001600160a01b0316600080610faf848789612f3f565b915091506000610fbd611e0d565b90506000610fed612710610fd7858563ffffffff61303016565b81610fde57fe5b8591900463ffffffff611db716565b905061101c86611008576001546001600160a01b0316611015565b6002546001600160a01b03165b8883612781565b888410156112815760006110368a8663ffffffff611db716565b9050600061104588838c613093565b9050600061107561271061105f848863ffffffff61303016565b8161106657fe5b8491900463ffffffff611db716565b90506000891561116e576110888261330d565b90925090508b60006110986103a8565b6001600160701b031691505060006110b1600080612393565b600b54600a54919350611167925060ff169085908a02816110ce57fe5b600354604080516370a0823160e01b8152306004820152905193909204928a926001600160a01b03909216916370a08231916024808301926020929190829003018186803b15801561111f57600080fd5b505afa158015611133573d6000803e3d6000fd5b505050506040513d602081101561114957600080fd5b5051600c54600a54611161908963ffffffff611db716565b876133cc565b600c555050505b61117987878c612033565b50611185898a84612781565b600954604080516302ce510960e41b81526001600160a01b038e8116600483015260ff600160a01b9094049390931615158d15151415602482015290516000928c1691632ce5109091604480830192602092919082900301818787803b1580156111ee57600080fd5b505af1158015611202573d6000803e3d6000fd5b505050506040513d602081101561121857600080fd5b5051600954968101969091506112709060ff600160a01b9091041615158c15151415611245576000611247565b815b60095460ff600160a01b9091041615158d151514156112665782611269565b60005b848f613563565b61127a8488613796565b5050505050505b60408051632770a7eb60e21b8152306004820152602481018b905290516001600160a01b038c1691639dc29fac91604480830192600092919082900301818387803b1580156112cf57600080fd5b505af11580156112e3573d6000803e3d6000fd5b50505050809a5050505050505050841561132157600a54819061130c908463ffffffff61303016565b8161131357fe5b600a80549290910490910390555b6113296128ff565b60408051338152602081018690528615158183015290517f5cf7281eb36e25a92ffd0cff3089777ca0cb41d28e8c7158c234b1eae9a07ed29181900360600190a150506000805460ff191660011790555092915050565b60008054819060ff166113c8576040805162461bcd60e51b815260206004820152601f6024820152600080516020614a10833981519152604482015290519081900360640190fd5b6000805460ff1916600117905590939092509050565b60125481565b60135481565b60008054819060ff16611432576040805162461bcd60e51b815260206004820152601f6024820152600080516020614a10833981519152604482015290519081900360640190fd5b6000805460ff191690556017541580156114b757506004805460408051635c975abb60e01b815290516001600160a01b0390921692635c975abb928282019260209290829003018186803b15801561148957600080fd5b505afa15801561149d573d6000803e3d6000fd5b505050506040513d60208110156114b357600080fd5b5051155b6114f1576040805162461bcd60e51b8152602060048083019190915260248201526305a3a20560e41b604482015290519081900360640190fd5b600154604080516370a0823160e01b815230600482015290516000926001600160a01b0316916370a08231916024808301926020929190829003018186803b15801561153c57600080fd5b505afa158015611550573d6000803e3d6000fd5b505050506040513d602081101561156657600080fd5b5051600254604080516370a0823160e01b815230600482015290519293506000926001600160a01b03909216916370a0823191602480820192602092909190829003018186803b1580156115b957600080fd5b505afa1580156115cd573d6000803e3d6000fd5b505050506040513d60208110156115e357600080fd5b505190506115f082612743565b6115f981612743565b6000806116046138af565b915091506000826001600160701b031611801561162a57506000816001600160701b0316115b156116535761164d826001600160701b0316826001600160701b03168686613978565b90945092505b600a839055670de0b6b3a7640000600c8190556116749084906000826139d3565b600b805460ff1916911515919091179055600e55600754604080516340c10f1960e01b81526000600482018190526103e8602483015291516001600160a01b03909316926340c10f199260448084019391929182900301818387803b1580156116dc57600080fd5b505af11580156116f0573d6000803e3d6000fd5b5050600654604080516340c10f1960e01b81526000600482018190526103e8602483015291516001600160a01b0390931694506340c10f1993506044808201939182900301818387803b15801561174657600080fd5b505af115801561175a573d6000803e3d6000fd5b505050506117736103e884611db790919063ffffffff16565b94506117bd6103e86117916002600e5461303090919063ffffffff16565b6117a987670de0b6b3a764000063ffffffff61303016565b816117b057fe5b049063ffffffff611db716565b95506117c7613add565b600754604080516340c10f1960e01b81526001600160a01b038a8116600483015260248201899052915191909216916340c10f1991604480830192600092919082900301818387803b15801561181c57600080fd5b505af1158015611830573d6000803e3d6000fd5b5050600654604080516340c10f1960e01b81526001600160a01b038c81166004830152602482018c905291519190921693506340c10f199250604480830192600092919082900301818387803b15801561188957600080fd5b505af115801561189d573d6000803e3d6000fd5b5050600e54600f81905543601455601555506118b990506128ff565b5050600160178190556000805460ff191690911790555091939092509050565b600f5481565b601754600114801561195c57506004805460408051635c975abb60e01b815290516001600160a01b0390921692635c975abb928282019260209290829003018186803b15801561192e57600080fd5b505afa158015611942573d6000803e3d6000fd5b505050506040513d602081101561195857600080fd5b5051155b611996576040805162461bcd60e51b8152602060048083019190915260248201526305a3a20560e41b604482015290519081900360640190fd5b565b6003546001600160a01b03163314611a1357600360009054906101000a90046001600160a01b03166001600160a01b03166311816b046040518163ffffffff1660e01b8152600401600060405180830381600087803b1580156119fa57600080fd5b505af1158015611a0e573d6000803e3d6000fd5b505050505b600360009054906101000a90046001600160a01b03166001600160a01b031663145f3c276040518163ffffffff1660e01b8152600401600060405180830381600087803b158015611a6357600080fd5b505af1158015611a77573d6000803e3d6000fd5b50505050600080611a89600080612393565b915091506000611a976103a8565b600e5490925090508315801590611aad57508215155b15611db157600080611acd611ac8878763ffffffff61303016565b613edf565b600d54600f5491925087918791600091611afd90611af1878463ffffffff611db716565b9063ffffffff61303016565b81611b0457fe5b0490508015611bef57670de0b6b3a7640000611b26898363ffffffff61303016565b60020281611b3057fe5b0494506000611b53886001600160701b0316600a54611db790919063ffffffff16565b600b54600a54919250611bea9160ff90911690611b76898563ffffffff61303016565b81611b7d57fe5b04600c54611b9f8c6001600160701b0316600a54611db790919063ffffffff16565b670de0b6b3a7640000611bba8a89830363ffffffff61303016565b81611bc157fe5b04670de0b6b3a7640000611bdd8a8a830363ffffffff61303016565b81611be457fe5b0461250c565b600c55505b5050600a8054840190819055600c54611c1392506001600160701b038716886139d3565b600b805460ff1916911515919091179055600e55611c2f613f31565b600d819055601354600090611c4b90439063ffffffff611db716565b90508015611d44576000600460009054906101000a90046001600160a01b03166001600160a01b031663ed6b92cd6040518163ffffffff1660e01b815260040160206040518083038186803b158015611ca357600080fd5b505afa158015611cb7573d6000803e3d6000fd5b505050506040513d6020811015611ccd57600080fd5b5051601254909150600090600a439190910311611ceb576000611cf0565b600a83045b9050611d05600183018263ffffffff61415316565b611d1e601154846010540261415390919063ffffffff16565b81611d2557fe5b04601055600e54611d3690876141a2565b601155505043601355611d66565b611d62611d53600e54866141a2565b6011549063ffffffff61415316565b6011555b600a54600c54600e5460408051938452602084019290925282820152517f54964c70825f65946c2e16cd62d98784e0536cf3d54b15ce1845f37f325945d29181900360600190a15050505b50505050565b80820382811115611e07576040805162461bcd60e51b815260206004820152601560248201527464732d6d6174682d7375622d756e646572666c6f7760581b604482015290519081900360640190fd5b92915050565b600080611e1e6010546011546141d9565b90506000600460009054906101000a90046001600160a01b03166001600160a01b0316635942f95e6040518163ffffffff1660e01b815260040160206040518083038186803b158015611e7057600080fd5b505afa158015611e84573d6000803e3d6000fd5b505050506040513d6020811015611e9a57600080fd5b5051600854600e5460408051630134dce560e11b81526004810192909252519293506001600160a01b0390911691630269b9ca91602480820192602092909190829003018186803b158015611eee57600080fd5b505afa158015611f02573d6000803e3d6000fd5b505050506040513d6020811015611f1857600080fd5b5051925080821061202e576012544303600082670de0b6b3a764000081611f3b57fe5b04905080821115611f4f574360125561202b565b60048054604080516315f4859960e11b81529051611fea9389936001600160a01b031692632be90b329281830192602092829003018186803b158015611f9457600080fd5b505afa158015611fa8573d6000803e3d6000fd5b505050506040513d6020811015611fbe57600080fd5b505161271086611fd4898363ffffffff61303016565b81611fdb57fe5b0403019063ffffffff61415316565b9450612710851061202b576040805162461bcd60e51b81526020600482015260066024820152650b474408ca8960d31b604482015290519081900360640190fd5b50505b505090565b60006127108385020482156120645760025460085461205f916001600160a01b03908116911683612781565b61223c565b600154600354612081916001600160a01b03908116911683612781565b60008061208c6138af565b915091506000612120600460009054906101000a90046001600160a01b03166001600160a01b03166398118cb46040518163ffffffff1660e01b815260040160206040518083038186803b1580156120e357600080fd5b505afa1580156120f7573d6000803e3d6000fd5b505050506040513d602081101561210d57600080fd5b505185906127100363ffffffff61303016565b9050600061214f826121436001600160701b03871661271063ffffffff61303016565b9063ffffffff61415316565b612168836001600160701b03861663ffffffff61303016565b8161216f57fe5b6003546009549290910492506001600160a01b03169063022c0d9f90600160a01b900460ff1661219f57826121a2565b60005b600954600160a01b900460ff166121ba5760006121bc565b835b600854604080516001600160e01b031960e087901b168152600481019490945260248401929092526001600160a01b0316604483015260806064830152600060848301819052905160c48084019382900301818387803b15801561221f57600080fd5b505af1158015612233573d6000803e3d6000fd5b50505050505050505b600860009054906101000a90046001600160a01b03166001600160a01b03166303f187ea6040518163ffffffff1660e01b8152600401600060405180830381600087803b15801561228c57600080fd5b505af11580156122a0573d6000803e3d6000fd5b5050509403949350505050565b6000806000806122be600080612393565b915091506000806122cd6103a8565b9150915087156123335761230e846122f06002611af18e8863ffffffff61303016565b816122f757fe5b046123098b600263ffffffff61303016565b6141ef565b945061232c88868986856001600160701b0316600e54600a546141fe565b9550612386565b6123658361234c6002611af18d8963ffffffff61303016565b8161235357fe5b046123098c600263ffffffff61303016565b945061238388868987866001600160701b0316600e54600a546141fe565b95505b5050505094509492505050565b6000806000806123a16138af565b600354604080516370a0823160e01b815230600482015290519395509193506000926001600160a01b03909116916370a08231916024808301926020929190829003018186803b1580156123f457600080fd5b505afa158015612408573d6000803e3d6000fd5b505050506040513d602081101561241e57600080fd5b5051600354604080516318160ddd60e01b815290519293506000926001600160a01b03909216916318160ddd91600480820192602092909190829003018186803b15801561246b57600080fd5b505afa15801561247f573d6000803e3d6000fd5b505050506040513d602081101561249557600080fd5b505190508115806124a4575080155b156124b85787879550955050505050612505565b806124d26001600160701b0386168463ffffffff61303016565b816124d957fe5b04816124f46001600160701b0386168563ffffffff61303016565b816124fb57fe5b0495509550505050505b9250929050565b60008061253286670de0b6b3a76400006002820a5b0403670de0b6b3a764000002613edf565b9050600086821061254557818701612549565b8187035b9050600061255d878363ffffffff61303016565b61257b866a0c097ce7bc90715b34b9f160241b63ffffffff61303016565b8161258257fe5b04905089806125995750670de0b6b3a76400008110155b1561273157891580156125d5575080876125c18b670de0b6b3a764000063ffffffff61303016565b816125c857fe5b04670de0b6b3a764000001105b156125e557879350505050612739565b8860008b61265a57612655600261260d670de0b6b3a763ffff1986018c63ffffffff61303016565b8161261457fe5b048801888a6002612636670de0b6b3a763ffff1989018f63ffffffff61303016565b8161263d57fe5b04028161264657fe5b048a019063ffffffff61303016565b61266a565b61266a888863ffffffff61303016565b905060008c61269957670de0b6b3a764000061268c858c63ffffffff61303016565b8161269357fe5b0461269b565b895b905060006126d2600285048a0160028b026126bc878e63ffffffff61303016565b816126c357fe5b048c019063ffffffff61303016565b9050826126e5828463ffffffff61303016565b816126ec57fe5b0497508a8401612702898e63ffffffff61303016565b8161270957fe5b049750670de0b6b3a764000088101561272857670de0b6b3a764000097505b50505050612735565b8793505b5050505b9695505050505050565b60008111610961576040805162461bcd60e51b815260206004808301919091526024820152632d1d102d60e11b604482015290519081900360640190fd5b60408051808201825260198152787472616e7366657228616464726573732c75696e743235362960381b60209182015281516001600160a01b0385811660248301526044808301869052845180840390910181526064909201845291810180516001600160e01b031663a9059cbb60e01b1781529251815160009460609489169392918291908083835b6020831061282a5780518252601f19909201916020918201910161280b565b6001836020036101000a0380198251168184511680821785525050505050509050019150506000604051808303816000865af19150503d806000811461288c576040519150601f19603f3d011682016040523d82523d6000602084013e612891565b606091505b50915091508180156128bf5750805115806128bf57508080602001905160208110156128bc57600080fd5b50515b6128f8576040805162461bcd60e51b81526020600482015260056024820152642d1d102a2360d91b604482015290519081900360640190fd5b5050505050565b600154604080516370a0823160e01b815230600482015290516000926001600160a01b0316916370a08231916024808301926020929190829003018186803b15801561294a57600080fd5b505afa15801561295e573d6000803e3d6000fd5b505050506040513d602081101561297457600080fd5b5051600254604080516370a0823160e01b815230600482015290519293506000926001600160a01b03909216916370a0823191602480820192602092909190829003018186803b1580156129c757600080fd5b505afa1580156129db573d6000803e3d6000fd5b505050506040513d60208110156129f157600080fd5b50519050600080612a028484612393565b915091506000600460009054906101000a90046001600160a01b03166001600160a01b031663a3ad52b86040518163ffffffff1660e01b815260040160206040518083038186803b158015612a5657600080fd5b505afa158015612a6a573d6000803e3d6000fd5b505050506040513d6020811015612a8057600080fd5b5051905060006064612a98858463ffffffff61303016565b81612a9f57fe5b04905060006064612ab6858563ffffffff61303016565b81612abd57fe5b049050612acc87878484614281565b612ad68787612393565b9095509350612aee611ac8868663ffffffff61303016565b600d556000612afb6103a8565b6001600160701b03169150506000612b19600a54600c5484896139d3565b509050600460009054906101000a90046001600160a01b03166001600160a01b0316635942f95e6040518163ffffffff1660e01b815260040160206040518083038186803b158015612b6a57600080fd5b505afa158015612b7e573d6000803e3d6000fd5b505050506040513d6020811015612b9457600080fd5b5051600e54612ba49083906141a2565b10612bae57436012555b505050505050505050565b6004546001600160a01b03163314611996576040805162461bcd60e51b815260206004808301919091526024820152632d1d102360e11b604482015290519081900360640190fd5b60008060006064612c92600460009054906101000a90046001600160a01b03166001600160a01b031663a3ad52b86040518163ffffffff1660e01b815260040160206040518083038186803b158015612c5957600080fd5b505afa158015612c6d573d6000803e3d6000fd5b505050506040513d6020811015612c8357600080fd5b5051889063ffffffff61303016565b81612c9957fe5b04905060008085612cb5576006546001600160a01b0316612cc2565b6007546001600160a01b03165b6001600160a01b03166318160ddd6040518163ffffffff1660e01b815260040160206040518083038186803b158015612cfa57600080fd5b505afa158015612d0e573d6000803e3d6000fd5b505050506040513d6020811015612d2457600080fd5b5051905086831115612d7257612d40838863ffffffff611db716565b9150818911612d7257612d5c868a838b8b600e54600a546141fe565b9450612d66613add565b50879250612ef5915050565b6000612d848a8463ffffffff611db716565b9050612d908188614501565b965094508615612dd957600080612da8600080612393565b600b54600c54600a54939550919350612dd39260ff909116918a9161068d908f63ffffffff611db716565b600c5550505b8215612e08576000612df48885858d8d600e54600a546141fe565b9050612dfe613add565b9590950194938201935b612e4087612e21576001546001600160a01b0316612e2e565b6002546001600160a01b03165b6003546001600160a01b031683612781565b6003546009546001600160a01b039091169063432275e6903090600160a01b900460ff16612e6e5789612e71565b89155b6040518363ffffffff1660e01b815260040180836001600160a01b03166001600160a01b031681526020018215151515815260200192505050606060405180830381600087803b158015612ec457600080fd5b505af1158015612ed8573d6000803e3d6000fd5b505050506040513d6060811015612eee57600080fd5b5050505050505b94509492505050565b6040805160248082018490528251808303909101815260449091019091526020810180516001600160e01b031663f5b1bba960e01b17905261096190614736565b600080600080612f50600080612393565b91509150600080612f5f6103a8565b91509150600089612f705782612f72565b815b6001600160701b0316905060008a612f8a5785612f8c565b845b600e54600a5491925090612fa58d858e868287876141fe565b99506000612fb38b8d6141ef565b90508d15612fdb578c612fcc838363ffffffff61303016565b81612fd357fe5b04995061301f565b8c61301482611af188670de0b6b3a76400006130006002848c8c63ffffffff61303016565b8161300757fe5b049063ffffffff61415316565b8161301b57fe5b0499505b505050505050505050935093915050565b600081158061304b5750508082028282828161304857fe5b04145b611e07576040805162461bcd60e51b815260206004820152601460248201527364732d6d6174682d6d756c2d6f766572666c6f7760601b604482015290519081900360640190fd5b60008060006130a3600180612393565b915091506000806130b26103a8565b9150915060008815613181576130cf84600263ffffffff61303016565b600a54613172906130ef906001600160701b03861663ffffffff611db716565b600354604080516370a0823160e01b815230600482015290516001600160a01b03909216916370a0823191602480820192602092909190829003018186803b15801561313a57600080fd5b505afa15801561314e573d6000803e3d6000fd5b505050506040513d602081101561316457600080fd5b50519063ffffffff61303016565b8161317957fe5b049050613220565b600354604080516370a0823160e01b81523060048201529051670de0b6b3a764000092613215926001600160a01b03909116916370a0823191602480820192602092909190829003018186803b1580156131da57600080fd5b505afa1580156131ee573d6000803e3d6000fd5b505050506040513d602081101561320457600080fd5b5051600e549063ffffffff61303016565b8161321c57fe5b0490505b60008961327f57613257846001600160701b0316670de0b6b3a7640000613000600e54611af160028c61303090919063ffffffff16565b613270896001600160701b03871663ffffffff61303016565b8161327757fe5b0488036132a6565b600a5461329b896001600160701b03861663ffffffff61303016565b816132a257fe5b0488035b9050806132b98a8463ffffffff61303016565b816132c057fe5b04965060008711613300576040805162461bcd60e51b81526020600482015260056024820152642d1d1021ad60d91b604482015290519081900360640190fd5b5050505050509392505050565b600080600061331a6103a8565b6001600160701b03169150506000613333600080612393565b915050600061334d83600a54611db790919063ffffffff16565b61338b670de0b6b3a764000061338661336d86600263ffffffff61303016565b600e54670de0b6b3a7640000039063ffffffff61303016565b6141d9565b8161339257fe5b04905061339f8187614757565b9350670de0b6b3a76400006133ba828863ffffffff61303016565b816133c157fe5b049450505050915091565b600087806133e15750670de0b6b3a764000084115b156135555786881561348c57600061340586670de0b6b3a76400006002820a612521565b905060008682106134185781870161341c565b8187035b90506000613430878363ffffffff61303016565b61344e876a0c097ce7bc90715b34b9f160241b63ffffffff61303016565b8161345557fe5b049050613486670de0b6b3a764000061347889611af1838663ffffffff611db716565b8161347f57fe5b048c6141ef565b93505050505b60008861349f898463ffffffff61303016565b816134a657fe5b0490506000670de0b6b3a76400006002896134c7838663ffffffff61303016565b816134ce57fe5b04670de0b6b3a7640000030a816134e157fe5b0490506134f4868463ffffffff611db716565b613504828863ffffffff61303016565b8161350b57fe5b049350670de0b6b3a7640000613527858963ffffffff61303016565b8161352e57fe5b049350670de0b6b3a764000084101561354d57670de0b6b3a764000093505b505050613558565b50825b979650505050505050565b8115611db1578383156135ab5760008061357b6138af565b6001600160701b0391821693501690508161359c878363ffffffff61303016565b816135a357fe5b048301925050505b600083670de0b6b3a7640000036135d3670de0b6b3a76400008461303090919063ffffffff16565b816135da57fe5b04905060006135ef828463ffffffff611db716565b600254600854604080516370a0823160e01b81526001600160a01b0392831660048201529051939450849391909216916370a08231916024808301926020929190829003018186803b15801561364457600080fd5b505afa158015613658573d6000803e3d6000fd5b505050506040513d602081101561366e57600080fd5b5051111561369957600254600854613694916001600160a01b039081169116868461488b565b613725565b600254600854604080516370a0823160e01b81526001600160a01b03928316600482018190529151613725949390931692889184916370a0823191602480820192602092909190829003018186803b1580156136f457600080fd5b505afa158015613708573d6000803e3d6000fd5b505050506040513d602081101561371e57600080fd5b505161488b565b600860009054906101000a90046001600160a01b03166001600160a01b0316634923b2306040518163ffffffff1660e01b8152600401600060405180830381600087803b15801561377557600080fd5b505af1158015613789573d6000803e3d6000fd5b5050505050505050505050565b60035460009061271083850204906137b8906001600160a01b03168083612781565b600354600854600954604080516302ce510960e41b81526001600160a01b039384166004820152600160a01b90920460ff16156024830152519190921691632ce510909160448083019260209291908290030181600087803b15801561381d57600080fd5b505af1158015613831573d6000803e3d6000fd5b505050506040513d602081101561384757600080fd5b5050600854604080516301f8c3f560e11b815290516001600160a01b03909216916303f187ea9160048082019260009290919082900301818387803b15801561388f57600080fd5b505af11580156138a3573d6000803e3d6000fd5b50505093039392505050565b600080600080600360009054906101000a90046001600160a01b03166001600160a01b0316630902f1ac6040518163ffffffff1660e01b815260040160606040518083038186803b15801561390357600080fd5b505afa158015613917573d6000803e3d6000fd5b505050506040513d606081101561392d57600080fd5b5080516020909101516009549193509150600160a01b900460ff166139525780613954565b815b600954909450600160a01b900460ff1661396e5781613970565b805b925050509091565b600080808561398d888663ffffffff61303016565b8161399457fe5b049050848111156139c257849250866139b3848863ffffffff61303016565b816139ba57fe5b0491506139c9565b8092508391505b5094509492505050565b600080806139e884600263ffffffff61303016565b905060006139fc888763ffffffff611db716565b90506000613a1688670de0b6b3a76400006002820a612521565b90506000888210613a2957818901613a2d565b8189035b90506000670de0b6b3a7640000613a4a858463ffffffff61303016565b81613a5157fe5b04905080881115613a81578484670de0b6b3a76400000281613a6f57fe5b04670de0b6b3a7640000039650613acf565b60048402613a9d86670de0b6b3a764000063ffffffff61303016565b81613aa457fe5b04965089613ac088670de0b6b3a764000063ffffffff61303016565b81613ac757fe5b049650600195505b505050505094509492505050565b600154604080516370a0823160e01b815230600482015290516000926001600160a01b0316916370a08231916024808301926020929190829003018186803b158015613b2857600080fd5b505afa158015613b3c573d6000803e3d6000fd5b505050506040513d6020811015613b5257600080fd5b5051600254604080516370a0823160e01b815230600482015290519293506000926001600160a01b03909216916370a0823191602480820192602092909190829003018186803b158015613ba557600080fd5b505afa158015613bb9573d6000803e3d6000fd5b505050506040513d6020811015613bcf57600080fd5b50519050600080613be08484612393565b915091506000600460009054906101000a90046001600160a01b03166001600160a01b031663a3ad52b86040518163ffffffff1660e01b815260040160206040518083038186803b158015613c3457600080fd5b505afa158015613c48573d6000803e3d6000fd5b505050506040513d6020811015613c5e57600080fd5b50519050600060c8613c76858463ffffffff61303016565b81613c7d57fe5b049050600060c8613c94858563ffffffff61303016565b81613c9b57fe5b049050816001600160701b031687118015613cbe5750806001600160701b031686115b15613e8657600080613cce6138af565b6001600160701b031691506001600160701b03169150600080836000148015613cf5575082155b15613d4057613d368b8b613d18826001600160701b038b1663ffffffff611db716565b613d318e6001600160701b038b1663ffffffff611db716565b613978565b9092509050613d64565b613d5e8484613d188e6001600160701b038b1663ffffffff611db716565b90925090505b60175460011415613dbd576000613d796103a8565b6001600160701b0316915050613db8600b60009054906101000a900460ff1683600c54613db185600a54611db790919063ffffffff16565b8e8e61250c565b600c55505b8115613de057600154600354613de0916001600160a01b03908116911684612781565b8015613e0357600254600354613e03916001600160a01b03908116911683612781565b600354604080516335313c2160e11b815230600482015290516001600160a01b0390921691636a627842916024808201926020929091908290030181600087803b158015613e5057600080fd5b505af1158015613e64573d6000803e3d6000fd5b505050506040513d6020811015613e7a57600080fd5b50613ed6945050505050565b600360009054906101000a90046001600160a01b03166001600160a01b031663145f3c276040518163ffffffff1660e01b8152600401600060405180830381600087803b15801561377557600080fd5b50505050505050565b60006003821115613f22575080600160028204015b81811015613f1c57809150600281828581613f0b57fe5b040181613f1457fe5b049050613ef4565b50613f2c565b8115613f2c575060015b919050565b6004805460408051637945980160e01b8152905143936001600160a01b0390931692637945980192808201926020929091829003018186803b158015613f7657600080fd5b505afa158015613f8a573d6000803e3d6000fd5b505050506040513d6020811015613fa057600080fd5b5051601454829003111561096157600e54601554808210156706f05b59d3b200008310158082146141035760008115613fe75750600e546706f05b59d3b1ffff1901613ff6565b50600e546706f05b59d3b20000035b82156140c1576000670de0b6b3a7640000614095600460009054906101000a90046001600160a01b03166001600160a01b031663c0972f7a6040518163ffffffff1660e01b815260040160206040518083038186803b15801561405857600080fd5b505afa15801561406c573d6000803e3d6000fd5b505050506040513d602081101561408257600080fd5b505187890390850263ffffffff61303016565b8161409c57fe5b049050670de0b6b3a7640000600f548201116140bb57600f8054820190555b506140fd565b6000670de0b6b3a76400006140de8787038463ffffffff61303016565b816140e557fe5b049050600f5481116140fb57600f805482900390555b505b50614148565b811561412f57600f5483850390670de0b6b3a7640000908201116140fd57600f80548201905550614148565b600f5484840390811161414657600f805482900390555b505b505050601555601455565b80820182811015611e07576040805162461bcd60e51b815260206004820152601460248201527364732d6d6174682d6164642d6f766572666c6f7760601b604482015290519081900360640190fd5b60008183106141c2576141bb838363ffffffff611db716565b9050611e07565b6141d2828463ffffffff611db716565b9392505050565b60008183116141e857816141d2565b5090919050565b60008183106141e857816141d2565b600087156142265781614217888863ffffffff61303016565b8161421e57fe5b049050613558565b61425d670de0b6b3a76400006142476002611af1898863ffffffff61303016565b8161424e57fe5b8691900463ffffffff61415316565b61426d888863ffffffff61303016565b8161427457fe5b0498975050505050505050565b83826001600160701b03161015614374576001546003546142c7916001600160a01b0390811691166142c2876001600160701b03871663ffffffff611db716565b612781565b600354600954604080516321913af360e11b8152306004820152600160a01b90920460ff1615156024830152516001600160a01b039092169163432275e6916044808201926060929091908290030181600087803b15801561432857600080fd5b505af115801561433c573d6000803e3d6000fd5b505050506040513d606081101561435257600080fd5b5050601680546001600160701b0319166001600160701b038416179055614390565b601680546001600160701b0319166001600160701b0386161790555b82816001600160701b03161015614486576002546003546143d1916001600160a01b0390811691166142c2866001600160701b03861663ffffffff611db716565b600354600954604080516321913af360e11b8152306004820152600160a01b90920460ff16156024830152516001600160a01b039092169163432275e6916044808201926060929091908290030181600087803b15801561443157600080fd5b505af1158015614445573d6000803e3d6000fd5b505050506040513d606081101561445b57600080fd5b505060168054600160701b600160e01b031916600160701b6001600160701b038416021790556144ab565b60168054600160701b600160e01b031916600160701b6001600160701b038616021790555b601654604080516001600160701b038084168252600160701b909304909216602083015280517f1d96001f313f6446e46c7776b79d231589555627a46fa2388f3220937fc79e519281900390910190a150505050565b60008060008061450f6138af565b90925090506000614535611ac86001600160701b0380861690851663ffffffff61303016565b905060006127106145d96002600460009054906101000a90046001600160a01b03166001600160a01b03166398118cb46040518163ffffffff1660e01b815260040160206040518083038186803b15801561458f57600080fd5b505afa1580156145a3573d6000803e3d6000fd5b505050506040513d60208110156145b957600080fd5b5051816145c257fe5b8b916000199104612710030163ffffffff61303016565b816145e057fe5b0490506000876146135761460e611ac86001600160701b0380871690611af19089168663ffffffff61415316565b614648565b614648611ac86146326001600160701b0387168563ffffffff61415316565b6001600160701b0388169063ffffffff61303016565b9050600083614669670de0b6b3a7640000611af1858463ffffffff611db716565b8161467057fe5b049050614726670de0b6b3a76400006146986001600160701b0389168463ffffffff61303016565b8161469f57fe5b04670de0b6b3a76400006146c26001600160701b0389168563ffffffff61303016565b816146c957fe5b048b8c6146e1576006546001600160a01b03166146ee565b6007546001600160a01b03165b6001600160a01b03166318160ddd6040518163ffffffff1660e01b815260040160206040518083038186803b15801561060857600080fd5b9b909a5098505050505050505050565b80516a636f6e736f6c652e6c6f67602083016000808483855afa5050505050565b6000670de0b6b3a7640000831015611e07576000670de0b6b3a76400006147868486830363ffffffff61303016565b8161478d57fe5b600354600854604080516370a0823160e01b81526001600160a01b03928316600482015290519490930494506000939116916370a08231916024808301926020929190829003018186803b1580156147e457600080fd5b505afa1580156147f8573d6000803e3d6000fd5b505050506040513d602081101561480e57600080fd5b505190508082101561483d57600354600854614838916001600160a01b039081169116818561488b565b614883565b60035460085461485b916001600160a01b039081169116818461488b565b83614878670de0b6b3a7640000611af1858563ffffffff611db716565b8161487f57fe5b0492505b505092915050565b60006060856001600160a01b0316604051806060016040528060258152602001614a30602591398051602091820120604080516001600160a01b03808b166024830152891660448201526064808201899052825180830390910181526084909101825292830180516001600160e01b03166001600160e01b0319909316929092178252518251909182918083835b602083106149385780518252601f199092019160209182019101614919565b6001836020036101000a0380198251168184511680821785525050505050509050019150506000604051808303816000865af19150503d806000811461499a576040519150601f19603f3d011682016040523d82523d6000602084013e61499f565b606091505b50915091508180156149cd5750805115806149cd57508080602001905160208110156149ca57600080fd5b50515b614a07576040805162461bcd60e51b81526020600482015260066024820152652d1d102a232360d11b604482015290519081900360640190fd5b50505050505056fe5265656e7472616e637947756172643a207265656e7472616e742063616c6c007472616e7366657246726f6d28616464726573732c616464726573732c75696e7432353629a265627a7a72315820cbde1076e96ec053506917c34fa04e8e9054ee0f382af831b38ee937c5213f8064736f6c63430005100032",
  "linkReferences": {},
  "deployedLinkReferences": {}
}