{
  "_format": "hh-sol-artifact-1",
  "contractName": "ZirconPylon",
  "sourceName": "contracts/ZirconPylon.sol",
  "abi": [
    {
      "inputs": [],
      "payable": false,
      "stateMutability": "nonpayable",
      "type": "constructor"
    },
    {
      "anonymous": false,
      "inputs": [
        {
          "indexed": false,
          "internalType": "address",
          "name": "sender",
          "type": "address"
        },
        {
          "indexed": false,
          "internalType": "uint256",
          "name": "aIn0",
          "type": "uint256"
        },
        {
          "indexed": false,
          "internalType": "bool",
          "name": "isAnchor",
          "type": "bool"
        }
      ],
      "name": "Burn",
      "type": "event"
    },
    {
      "anonymous": false,
      "inputs": [
        {
          "indexed": false,
          "internalType": "address",
          "name": "sender",
          "type": "address"
        },
        {
          "indexed": false,
          "internalType": "uint256",
          "name": "aIn0",
          "type": "uint256"
        },
        {
          "indexed": false,
          "internalType": "uint256",
          "name": "aIn1",
          "type": "uint256"
        }
      ],
      "name": "BurnAsync",
      "type": "event"
    },
    {
      "anonymous": false,
      "inputs": [
        {
          "indexed": false,
          "internalType": "address",
          "name": "sender",
          "type": "address"
        },
        {
          "indexed": false,
          "internalType": "uint256",
          "name": "aIn0",
          "type": "uint256"
        },
        {
          "indexed": false,
          "internalType": "uint256",
          "name": "aIn1",
          "type": "uint256"
        }
      ],
      "name": "MintAsync",
      "type": "event"
    },
    {
      "anonymous": false,
      "inputs": [
        {
          "indexed": false,
          "internalType": "address",
          "name": "sender",
          "type": "address"
        },
        {
          "indexed": false,
          "internalType": "uint256",
          "name": "aIn0",
          "type": "uint256"
        },
        {
          "indexed": false,
          "internalType": "bool",
          "name": "isAnchor",
          "type": "bool"
        }
      ],
      "name": "MintSync",
      "type": "event"
    },
    {
      "anonymous": false,
      "inputs": [
        {
          "indexed": false,
          "internalType": "uint256",
          "name": "_vab",
          "type": "uint256"
        },
        {
          "indexed": false,
          "internalType": "uint256",
          "name": "_vfb",
          "type": "uint256"
        },
        {
          "indexed": false,
          "internalType": "uint256",
          "name": "_gamma",
          "type": "uint256"
        }
      ],
      "name": "PylonSync",
      "type": "event"
    },
    {
      "anonymous": false,
      "inputs": [
        {
          "indexed": false,
          "internalType": "uint256",
          "name": "_reserve0",
          "type": "uint256"
        },
        {
          "indexed": false,
          "internalType": "uint256",
          "name": "_reserve1",
          "type": "uint256"
        }
      ],
      "name": "PylonUpdate",
      "type": "event"
    },
    {
      "constant": true,
      "inputs": [],
      "name": "EMABlockNumber",
      "outputs": [
        {
          "internalType": "uint256",
          "name": "",
          "type": "uint256"
        }
      ],
      "payable": false,
      "stateMutability": "view",
      "type": "function"
    },
    {
      "constant": true,
      "inputs": [
        {
          "internalType": "uint256",
          "name": "_virtualAnchorBalance",
          "type": "uint256"
        },
        {
          "internalType": "uint256",
          "name": "_virtualFloatBalance",
          "type": "uint256"
        },
        {
          "internalType": "uint256",
          "name": "p2x",
          "type": "uint256"
        },
        {
          "internalType": "uint256",
          "name": "p2y",
          "type": "uint256"
        },
        {
          "internalType": "uint256",
          "name": "_pylonReserve0",
          "type": "uint256"
        },
        {
          "internalType": "uint256",
          "name": "_pylonReserve1",
          "type": "uint256"
        },
        {
          "internalType": "uint256",
          "name": "_translatedReserve0",
          "type": "uint256"
        },
        {
          "internalType": "uint256",
          "name": "_translatedReserve1",
          "type": "uint256"
        }
      ],
      "name": "_calculateGamma",
      "outputs": [
        {
          "internalType": "uint256",
          "name": "gamma",
          "type": "uint256"
        },
        {
          "internalType": "bool",
          "name": "isLineFormula",
          "type": "bool"
        }
      ],
      "payable": false,
      "stateMutability": "view",
      "type": "function"
    },
    {
      "constant": false,
      "inputs": [
        {
          "internalType": "address",
          "name": "_to",
          "type": "address"
        },
        {
          "internalType": "bool",
          "name": "_isAnchor",
          "type": "bool"
        }
      ],
      "name": "burn",
      "outputs": [
        {
          "internalType": "uint256",
          "name": "amount",
          "type": "uint256"
        }
      ],
      "payable": false,
      "stateMutability": "nonpayable",
      "type": "function"
    },
    {
      "constant": false,
      "inputs": [
        {
          "internalType": "address",
          "name": "_to",
          "type": "address"
        },
        {
          "internalType": "bool",
          "name": "_isAnchor",
          "type": "bool"
        }
      ],
      "name": "burnAsync",
      "outputs": [
        {
          "internalType": "uint256",
          "name": "amount0",
          "type": "uint256"
        },
        {
          "internalType": "uint256",
          "name": "amount1",
          "type": "uint256"
        }
      ],
      "payable": false,
      "stateMutability": "nonpayable",
      "type": "function"
    },
    {
      "constant": false,
      "inputs": [
        {
          "internalType": "address",
          "name": "_energyAddress",
          "type": "address"
        },
        {
          "internalType": "address",
          "name": "_energyRevAddress",
          "type": "address"
        }
      ],
      "name": "changeEnergyAddress",
      "outputs": [],
      "payable": false,
      "stateMutability": "nonpayable",
      "type": "function"
    },
    {
      "constant": true,
      "inputs": [],
      "name": "formulaSwitch",
      "outputs": [
        {
          "internalType": "bool",
          "name": "",
          "type": "bool"
        }
      ],
      "payable": false,
      "stateMutability": "view",
      "type": "function"
    },
    {
      "constant": true,
      "inputs": [],
      "name": "gammaEMA",
      "outputs": [
        {
          "internalType": "uint256",
          "name": "",
          "type": "uint256"
        }
      ],
      "payable": false,
      "stateMutability": "view",
      "type": "function"
    },
    {
      "constant": true,
      "inputs": [],
      "name": "gammaMulDecimals",
      "outputs": [
        {
          "internalType": "uint256",
          "name": "",
          "type": "uint256"
        }
      ],
      "payable": false,
      "stateMutability": "view",
      "type": "function"
    },
    {
      "constant": true,
      "inputs": [],
      "name": "getSyncReserves",
      "outputs": [
        {
          "internalType": "uint112",
          "name": "_reserve0",
          "type": "uint112"
        },
        {
          "internalType": "uint112",
          "name": "_reserve1",
          "type": "uint112"
        }
      ],
      "payable": false,
      "stateMutability": "view",
      "type": "function"
    },
    {
      "constant": false,
      "inputs": [
        {
          "internalType": "uint256",
          "name": "_gamma",
          "type": "uint256"
        },
        {
          "internalType": "uint256",
          "name": "_vab",
          "type": "uint256"
        },
        {
          "internalType": "uint256",
          "name": "_vfb",
          "type": "uint256"
        },
        {
          "internalType": "bool",
          "name": "_formulaSwitch",
          "type": "bool"
        },
        {
          "internalType": "uint256",
          "name": "_p2x",
          "type": "uint256"
        },
        {
          "internalType": "uint256",
          "name": "_p2y",
          "type": "uint256"
        }
      ],
      "name": "initMigratedPylon",
      "outputs": [],
      "payable": false,
      "stateMutability": "nonpayable",
      "type": "function"
    },
    {
      "constant": false,
      "inputs": [
        {
          "internalType": "address",
          "name": "_to",
          "type": "address"
        }
      ],
      "name": "initPylon",
      "outputs": [
        {
          "internalType": "uint256",
          "name": "floatLiquidity",
          "type": "uint256"
        },
        {
          "internalType": "uint256",
          "name": "anchorLiquidity",
          "type": "uint256"
        }
      ],
      "payable": false,
      "stateMutability": "nonpayable",
      "type": "function"
    },
    {
      "constant": false,
      "inputs": [
        {
          "internalType": "address",
          "name": "_floatPoolTokenAddress",
          "type": "address"
        },
        {
          "internalType": "address",
          "name": "_anchorPoolTokenAddress",
          "type": "address"
        },
        {
          "internalType": "address",
          "name": "_floatToken",
          "type": "address"
        },
        {
          "internalType": "address",
          "name": "_anchorToken",
          "type": "address"
        },
        {
          "internalType": "address",
          "name": "_pairAddress",
          "type": "address"
        },
        {
          "internalType": "address",
          "name": "_pairFactoryAddress",
          "type": "address"
        },
        {
          "internalType": "address",
          "name": "_energy",
          "type": "address"
        },
        {
          "internalType": "address",
          "name": "_energyRev",
          "type": "address"
        }
      ],
      "name": "initialize",
      "outputs": [],
      "payable": false,
      "stateMutability": "nonpayable",
      "type": "function"
    },
    {
      "constant": true,
      "inputs": [],
      "name": "initialized",
      "outputs": [
        {
          "internalType": "uint256",
          "name": "",
          "type": "uint256"
        }
      ],
      "payable": false,
      "stateMutability": "view",
      "type": "function"
    },
    {
      "constant": true,
      "inputs": [],
      "name": "isFloatReserve0",
      "outputs": [
        {
          "internalType": "bool",
          "name": "",
          "type": "bool"
        }
      ],
      "payable": false,
      "stateMutability": "view",
      "type": "function"
    },
    {
      "constant": true,
      "inputs": [],
      "name": "lastFloatAccumulator",
      "outputs": [
        {
          "internalType": "uint256",
          "name": "",
          "type": "uint256"
        }
      ],
      "payable": false,
      "stateMutability": "view",
      "type": "function"
    },
    {
      "constant": true,
      "inputs": [],
      "name": "lastOracleTimestamp",
      "outputs": [
        {
          "internalType": "uint256",
          "name": "",
          "type": "uint256"
        }
      ],
      "payable": false,
      "stateMutability": "view",
      "type": "function"
    },
    {
      "constant": true,
      "inputs": [],
      "name": "lastPrice",
      "outputs": [
        {
          "internalType": "uint256",
          "name": "",
          "type": "uint256"
        }
      ],
      "payable": false,
      "stateMutability": "view",
      "type": "function"
    },
    {
      "constant": true,
      "inputs": [],
      "name": "lastRootKTranslated",
      "outputs": [
        {
          "internalType": "uint256",
          "name": "",
          "type": "uint256"
        }
      ],
      "payable": false,
      "stateMutability": "view",
      "type": "function"
    },
    {
      "constant": false,
      "inputs": [
        {
          "internalType": "address",
          "name": "newPylon",
          "type": "address"
        }
      ],
      "name": "migrateLiquidity",
      "outputs": [],
      "payable": false,
      "stateMutability": "nonpayable",
      "type": "function"
    },
    {
      "constant": false,
      "inputs": [
        {
          "internalType": "address",
          "name": "to",
          "type": "address"
        },
        {
          "internalType": "bool",
          "name": "shouldMintAnchor",
          "type": "bool"
        }
      ],
      "name": "mintAsync",
      "outputs": [
        {
          "internalType": "uint256",
          "name": "liquidity",
          "type": "uint256"
        }
      ],
      "payable": false,
      "stateMutability": "nonpayable",
      "type": "function"
    },
    {
      "constant": false,
      "inputs": [
        {
          "internalType": "address",
          "name": "_to",
          "type": "address"
        },
        {
          "internalType": "bool",
          "name": "isAnchor",
          "type": "bool"
        }
      ],
      "name": "mintPoolTokens",
      "outputs": [
        {
          "internalType": "uint256",
          "name": "liquidity",
          "type": "uint256"
        }
      ],
      "payable": false,
      "stateMutability": "nonpayable",
      "type": "function"
    },
    {
      "constant": true,
      "inputs": [],
      "name": "muMulDecimals",
      "outputs": [
        {
          "internalType": "uint256",
          "name": "",
          "type": "uint256"
        }
      ],
      "payable": false,
      "stateMutability": "view",
      "type": "function"
    },
    {
      "constant": true,
      "inputs": [],
      "name": "p2x",
      "outputs": [
        {
          "internalType": "uint256",
          "name": "",
          "type": "uint256"
        }
      ],
      "payable": false,
      "stateMutability": "view",
      "type": "function"
    },
    {
      "constant": true,
      "inputs": [],
      "name": "p2y",
      "outputs": [
        {
          "internalType": "uint256",
          "name": "",
          "type": "uint256"
        }
      ],
      "payable": false,
      "stateMutability": "view",
      "type": "function"
    },
    {
      "constant": true,
      "inputs": [],
      "name": "strikeBlock",
      "outputs": [
        {
          "internalType": "uint256",
          "name": "",
          "type": "uint256"
        }
      ],
      "payable": false,
      "stateMutability": "view",
      "type": "function"
    },
    {
      "constant": true,
      "inputs": [],
      "name": "thisBlockEMA",
      "outputs": [
        {
          "internalType": "uint256",
          "name": "",
          "type": "uint256"
        }
      ],
      "payable": false,
      "stateMutability": "view",
      "type": "function"
    },
    {
      "constant": true,
      "inputs": [],
      "name": "virtualAnchorBalance",
      "outputs": [
        {
          "internalType": "uint256",
          "name": "",
          "type": "uint256"
        }
      ],
      "payable": false,
      "stateMutability": "view",
      "type": "function"
    },
    {
      "constant": true,
      "inputs": [],
      "name": "virtualFloatBalance",
      "outputs": [
        {
          "internalType": "uint256",
          "name": "",
          "type": "uint256"
        }
      ],
      "payable": false,
      "stateMutability": "view",
      "type": "function"
    }
  ],
  "bytecode": "0x60806040526000601f5534801561001557600080fd5b50600380546001600160a01b03191633179055614ea0806100376000396000f3fe608060405234801561001057600080fd5b50600436106101545760003560e01c8063053f14da146101595780630a22d5f314610173578063158ef93e146101a1578063192b65d8146101a95780633339dc1a146101b157806333cdde4e146101b9578063438ab5ac146101e75780634a00d16a1461020f5780634a9d0a86146102175780635d4b592e146102545780638a29e2de146102b55780638aa96149146103145780638d470e22146103425780638ffa32361461037057806397ed64db1461038c5780639ab9f34114610394578063a01de3aa1461039c578063a62ef073146103a4578063abaf2649146103ac578063b7073003146103b4578063ba7b3dea146103bc578063c548b4c5146103ea578063c561cf4f146103f2578063c9bd59a014610439578063cca03acb14610441578063efefd9f914610449578063f29401c414610451578063fef9349214610477575b600080fd5b61016161047f565b60408051918252519081900360200190f35b61017b610485565b604080516001600160701b03938416815291909216602082015281519081900390910190f35b6101616104a0565b6101616104a6565b6101616104ac565b610161600480360360408110156101cf57600080fd5b506001600160a01b03813516906020013515156104b2565b61020d600480360360208110156101fd57600080fd5b50356001600160a01b03166109ec565b005b610161610a52565b61020d600480360360c081101561022d57600080fd5b50803590602081013590604081013590606081013515159060808101359060a00135610a58565b61029c600480360361010081101561026b57600080fd5b5080359060208101359060408101359060608101359060808101359060a08101359060c08101359060e00135610ace565b6040805192835290151560208301528051918290030190f35b61020d60048036036101008110156102cc57600080fd5b506001600160a01b038135811691602081013582169160408201358116916060810135821691608082013581169160a081013582169160c082013581169160e0013516610cd9565b61020d6004803603604081101561032a57600080fd5b506001600160a01b0381358116916020013516610e23565b6101616004803603604081101561035857600080fd5b506001600160a01b0381351690602001351515610e59565b6103786111b7565b604080519115158252519081900360200190f35b6101616111c7565b6101616111cd565b6103786111d3565b6101616111dc565b6101616111e2565b6101616111e8565b610161600480360360408110156103d257600080fd5b506001600160a01b03813516906020013515156111ee565b610161611425565b6104206004803603604081101561040857600080fd5b506001600160a01b038135169060200135151561142b565b6040805192835260208301919091528051918290030190f35b61016161196c565b610161611972565b610161611978565b6104206004803603602081101561046757600080fd5b50356001600160a01b031661197e565b610161611fac565b60195481565b601e546001600160701b0380821692600160701b9092041690565b601f5481565b60095481565b60115481565b60006104bc611fb2565b6104c46120c5565b60008060006104d1610485565b91509150806001600160701b0316600954039250505060008084610500576005546001600160a01b031661050d565b6006546001600160a01b03165b9050600080600080600080610520610485565b9150915060008061052f612b0f565b506001600160701b031691506001600160701b03169150600080610551612be7565b9150915060006105738585670de0b6b3a7640000028161056d57fe5b04612c1f565b905061058e836001600160701b03891663ffffffff612e8616565b61271060028383020204908190039b5098506105c16105b6836001600160701b038916612e86565b826002026001612edc565b9950505050505060008b90506000806105db600080613101565b50909250905089898960008661061857610613856106028460028a0263ffffffff6131be16565b8161060957fe5b0484600202613221565b610640565b6106408661062f856002890263ffffffff6131be16565b8161063657fe5b0483600202613221565b9050600061064f868802613237565b90506000610660878e8a0102613237565b90508181111561069d57816106908a61067c5789600202610681565b886002025b8484039063ffffffff6131be16565b8161069757fe5b04830192505b5050866107a5576000806106c6600260019054906101000a90046001600160a01b031630613289565b90506000670de0b6b3a7640000600f548302816106df57fe5b0489600202838e6001600160701b031602816106f757fe5b040190506000896002028386028161070b57fe5b0490508161072861071b8a613314565b839063ffffffff6131be16565b8161072f57fe5b049350505050809f50868683028161074357fe5b049a50896001600160701b0316670de0b6b3a7640000610771600f546002028a6131be90919063ffffffff16565b8161077857fe5b040161078f83600a546131be90919063ffffffff16565b8161079657fe5b600a8054929091049091019055505b86156107cd576009546107ba61071b86613314565b816107c157fe5b6009805484019055049e505b5050505050505050508597506000806107e7600080613101565b50915091506107f586613381565b6107fe85613381565b600054600254610822916001600160a01b03908116916101009004168689036133bf565b600154600254610844916001600160a01b0390811691610100900416876133bf565b600254604080516335313c2160e11b815230600482015290516101009092046001600160a01b031691636a627842916024808201926020929091908290030181600087803b15801561089557600080fd5b505af11580156108a9573d6000803e3d6000fd5b505050506040513d60208110156108bf57600080fd5b50506000546002546108e3916001600160a01b0390811691610100900416866133bf565b600254600854604080516321913af360e11b8152306004820152600160a01b90920460ff1615156024830152516101009092046001600160a01b03169163432275e6916044808201926060929091908290030181600087803b15801561094857600080fd5b505af115801561095c573d6000803e3d6000fd5b505050506040513d606081101561097257600080fd5b5060009050610984848285858e61353d565b9050610991888e8d613796565b604080513381526020810189905280820188905290517f9a36e9f82fd3ab4ec26a87598c0f7f4519b7895fa6a0bca1968b486ee019b0829181900360600190a150506002805460ff1916905550969998505050505050505050565b6109f4613813565b600254610a199061010090046001600160a01b031682610a148230613289565b6133bf565b600154610a34906001600160a01b031682610a148230613289565b600054610a4f906001600160a01b031682610a148230613289565b50565b600e5481565b610a60613813565b600f8690556009859055600a849055600c829055600d819055600b805460ff19168415151790556010869055436015556016869055600080610aa28180613101565b509150915086600014610abf57610abd60008084848b61353d565b505b50506001601f55505050505050565b60008080610ae28b8763ffffffff612e8616565b90506000846002830a81610af257fe5b0490508581670de0b6b3a76400000281610b0857fe5b04905060008686670de0b6b3a76400000281610b2057fe5b049050818110610b56578560020283670de0b6b3a76400000281610b4057fe5b04670de0b6b3a764000003945060009350610cc9565b604080516320da0e4d60e11b8152600481018d9052602481018c9052604481018490526064810185905260006084820181905291518291829173__$a7d75b79dbad75865e91612b2984d03884$__916341b41c9a9160a4808301926060929190829003018186803b158015610bca57600080fd5b505af4158015610bde573d6000803e3d6000fd5b505050506040513d6060811015610bf457600080fd5b50805160208201516040909201519094509092509050821580610c255750670de0b6b3a76400008286026002020481115b15610c8b57600083610c5057610c4b670de0b6b3a764000084870204860286840261385d565b610c70565b610c70828602670de0b6b3a764000085880204870263ffffffff612e8616565b9050896002028181610c7e57fe5b0498506001975050610cc5565b6040805162461bcd60e51b815260206004820152600a6024820152695a503a204578466c743160b01b604482015290519081900360640190fd5b5050505b5050509850989650505050505050565b610ce1613813565b600580546001600160a01b03808b166001600160a01b031992831617909255600680548a84169216919091179055600280548683166101008102610100600160a81b03199092169190911790915560408051630dfe168160e01b8152905192891692630dfe168191600481810192602092909190829003018186803b158015610d6957600080fd5b505afa158015610d7d573d6000803e3d6000fd5b505050506040513d6020811015610d9357600080fd5b505160088054604080518082019091526001600160a01b039a8b16808252998b166020909101819052600080546001600160a01b0319908116909b179055600180548b169091179055600480548a16978b1697909717909655600780548916958a169590951790945560ff60a01b1990941693871614600160a01b02929092179093169316929092179055505050565b610e2b613813565b600780546001600160a01b039384166001600160a01b03199182161790915560088054929093169116179055565b6000610e63611fb2565b610e6b6120c5565b600080610e76610485565b915091506000610ecd85610e8a5783610e8c565b825b6001600160701b0316610ec187610eae576000546001600160a01b0316610ebb565b6001546001600160a01b03165b30613289565b9063ffffffff612e8616565b9050610ed881613381565b600085610ef0576001546001600160a01b0316610efd565b6000546001600160a01b03165b90506000610f0b8230613289565b9050600087610f1a5784610f1c565b855b6001600160701b0316905080821115610fb257600754610f499084906001600160a01b03168385036133bf565b600760009054906101000a90046001600160a01b03166001600160a01b03166303f187ea6040518163ffffffff1660e01b8152600401600060405180830381600087803b158015610f9957600080fd5b505af1158015610fad573d6000803e3d6000fd5b505050505b505050610fc981610fc3602a612c1f565b87612edc565b90506000610fec600260019054906101000a90046001600160a01b031630613289565b9050600080610ffc600080613101565b5060095491935091506001600160701b038616900360008061103f8b61102d576005546001600160a01b031661103a565b6006546001600160a01b03165b613314565b905060008c8c6001600160701b03808d16908c168b8a8a8d88808061107e878b611069578761106b565b865b8c611076578b611078565b8a5b8d6138ac565b925092509250858583028161108f57fe5b049d5089156110c2576009546110ab848f63ffffffff6131be16565b816110b257fe5b6009805486019055049b50611152565b6000670de0b6b3a7640000600f548602816110d957fe5b0487600202868c02816110e857fe5b040190508061110c8f89600202888802816110ff57fe5b049063ffffffff6131be16565b8161111357fe5b049c506000670de0b6b3a7640000600f5489600202028161113057fe5b0490508a810183600a54028161114257fe5b600a805492909104909101905550505b505050505050505050600061116b8660008b8b8b61353d565b905061119a82611186576005546001600160a01b0316611193565b6006546001600160a01b03165b8486613796565b50506002805460ff19169055509c9b505050505050505050505050565b600854600160a01b900460ff1681565b600f5481565b600a5481565b600b5460ff1681565b600d5481565b60175481565b60125481565b60006111f8611fb2565b6112006120c5565b600082611218576005546001600160a01b0316611225565b6006546001600160a01b03165b905060006112338230613289565b905061123e81613381565b600061124983613314565b9050600080611259600080613101565b50915091506000611268610485565b6001600160701b03169150670de0b6b3a764000090508860008061128d83898b613be1565b91509150600061129d602a612c1f565b90508d6127108383020483036112d6866112c2576000546001600160a01b03166112cf565b6001546001600160a01b03165b83836133bf565b8b85101561131557848c038b8a600080806112f58c878b878c8a613cdf565b9250925092508087019650829c5061130d828a614016565b505050505050505b611320848488612edc565b5061132c8d308e614146565b809d5050505050505060008190506000806000611347610485565b91509150806001600160701b031660095403925050508a15611391576009548790611378908a63ffffffff6131be16565b8161137f57fe5b600980549290910490910390556113bb565b600a5487906113a6908a63ffffffff6131be16565b816113ad57fe5b600a80549290910490910390555b6113c982600188888561353d565b5060408051338152602081018c90528c15158183015290517f5cf7281eb36e25a92ffd0cff3089777ca0cb41d28e8c7158c234b1eae9a07ed29181900360600190a150506002805460ff19169055509598975050505050505050565b60185481565b600080611436611fb2565b61143e6120c5565b600083611456576005546001600160a01b0316611463565b6006546001600160a01b03165b905060006114718230613289565b905061147c81613381565b600061148783613314565b90506000806000611496612b0f565b506001600160701b031691506001600160701b031691506114c38282670de0b6b3a7640000028161056d57fe5b9250505060006114d48885856141a6565b9050670de0b6b3a76400006000806114ea610485565b6001600160701b031691506001600160701b0316915060008061150e600080613101565b509150915060008d6115645784670de0b6b3a764000061153c600f54600202866131be90919063ffffffff16565b8161154357fe5b04016115558a8763ffffffff6131be16565b8161155c57fe5b048903611582565b6009546115778a8663ffffffff6131be16565b8161157e57fe5b0489035b9050808a106115c1576040805162461bcd60e51b815260206004808301919091526024820152635a3a204560e01b604482015290519081900360640190fd5b5060006115d487612710818b0204612e86565b90508d156116f05760008f9050600760009054906101000a90046001600160a01b03166001600160a01b0316638b25fde183611646670de0b6b3a7640000896009540361163989600202600f54670de0b6b3a7640000036131be90919063ffffffff16565b8161164057fe5b04613221565b601b546008546040805160e087901b6001600160e01b0319168152600481019590955260248501939093526044840191909152600160a01b900460ff16151560648301526001600160a01b0385166084830152805160a4808401938290030181600087803b1580156116b757600080fd5b505af11580156116cb573d6000803e3d6000fd5b505050506040513d60408110156116e157600080fd5b5080516020909101519d509150505b60025461170c9061010090046001600160a01b031680836133bf565b505050505060008a9050600080611724600080613101565b5091509150600061174a600260019054906101000a90046001600160a01b031630613289565b6002546040805163226bf2d160e21b81526001600160a01b038881166004830152825194955060009485946101009004909116926389afcb44926024808201939182900301818787803b1580156117a057600080fd5b505af11580156117b4573d6000803e3d6000fd5b505050506040513d60408110156117ca57600080fd5b5080516020909101516008549193509150600160a01b900460ff166117ef57806117f1565b815b6008549e019d600160a01b900460ff1661180b578161180d565b805b8d019c505050600061181f8789614016565b90508d61188b57670de0b6b3a7640000611844600f54846131be90919063ffffffff16565b8161184b57fe5b0461186488670de0b6b3a764000063ffffffff6131be16565b8161186b57fe5b0486039550888a600a54028161187d57fe5b600a80549290910490910390555b6118968b308c614146565b6000806118a1610485565b6001600160701b031691505080600954039150508e156118d657898b60095402816118c857fe5b600980549290910490910390555b6118e487600187878561353d565b506000600260006101000a81548160ff0219169083151502179055507fb83dbb1f0386f1b6d6f534f325d617e3f96f2971cca29021702094328c1cb70c338f8f60405180846001600160a01b03166001600160a01b03168152602001838152602001828152602001935050505060405180910390a15050505050505050505050509250929050565b60135481565b600c5481565b60145481565b600080601f546000148015611a0a5750600360009054906101000a90046001600160a01b03166001600160a01b0316635c975abb6040518163ffffffff1660e01b815260040160206040518083038186803b1580156119dc57600080fd5b505afa1580156119f0573d6000803e3d6000fd5b505050506040513d6020811015611a0657600080fd5b5051155b8015611a19575060025460ff16155b611a2257600080fd5b6000806000611a2f612b0f565b9250925092506000836001600160701b0316118015611a5757506000826001600160701b0316115b611a6057600080fd5b63ffffffff8116601755600854600160a01b900460ff16611afa57600260019054906101000a90046001600160a01b03166001600160a01b0316635a3d54936040518163ffffffff1660e01b815260040160206040518083038186803b158015611ac957600080fd5b505afa158015611add573d6000803e3d6000fd5b505050506040513d6020811015611af357600080fd5b5051611b75565b600260019054906101000a90046001600160a01b03166001600160a01b0316635909c0d56040518163ffffffff1660e01b815260040160206040518083038186803b158015611b4857600080fd5b505afa158015611b5c573d6000803e3d6000fd5b505050506040513d6020811015611b7257600080fd5b50515b6018556001600160701b03838116908316670de0b6b3a76400000281611b9757fe5b046019556004805460408051632604632d60e21b815290516001600160a01b03909216926398118cb4928282019260209290829003018186803b158015611bdd57600080fd5b505afa158015611bf1573d6000803e3d6000fd5b505050506040513d6020811015611c0757600080fd5b5051601b5560035460408051631475aa5760e31b815290516001600160a01b039092169163a3ad52b891600480820192602092909190829003018186803b158015611c5157600080fd5b505afa158015611c65573d6000803e3d6000fd5b505050506040513d6020811015611c7b57600080fd5b5051601c5560035460408051632ca17caf60e11b815290516001600160a01b0390921691635942f95e91600480820192602092909190829003018186803b158015611cc557600080fd5b505afa158015611cd9573d6000803e3d6000fd5b505050506040513d6020811015611cef57600080fd5b5051601d55600354604080516358e20cf160e11b815290516001600160a01b039092169163b1c419e291600480820192602092909190829003018186803b158015611d3957600080fd5b505afa158015611d4d573d6000803e3d6000fd5b505050506040513d6020811015611d6357600080fd5b5051601a556002805460ff19166001179055600080611d80612be7565b91509150611d8d82613381565b611d9681613381565b611db4856001600160701b0316856001600160701b0316848461430d565b6009819055600a829055601c546040805163065b4f4360e11b815260c88386028190048603938502048403838102600483015260248201819052604482018490528251959750939550919373__$a7d75b79dbad75865e91612b2984d03884$__92630cb69e86926064808301939192829003018186803b158015611e3757600080fd5b505af4158015611e4b573d6000803e3d6000fd5b505050506040513d6040811015611e6157600080fd5b508051602090910151600d819055600c829055600954600a54601c54611e9a9492939192919060c88a8202819004918a02048888610ace565b600b805460ff1916911515919091179055600f55600654611ec8906001600160a01b031660006103e8613796565b600554611ee2906001600160a01b031660006103e8613796565b611ef4836103e863ffffffff612e8616565b9750611f316103e8611f126002600f546131be90919063ffffffff16565b86670de0b6b3a76400000281611f2457fe5b049063ffffffff612e8616565b9850611f3e601c54614368565b5050600654611f57906001600160a01b03168b8a613796565b600554611f6e906001600160a01b03168b8b613796565b600f54601081905543601555601655611f8c602a600084848061353d565b50506001601f5550506002805460ff191690555093959294509192505050565b60105481565b601f54600114801561203b5750600360009054906101000a90046001600160a01b03166001600160a01b0316635c975abb6040518163ffffffff1660e01b815260040160206040518083038186803b15801561200d57600080fd5b505afa158015612021573d6000803e3d6000fd5b505050506040513d602081101561203757600080fd5b5051155b612075576040805162461bcd60e51b8152602060048083019190915260248201526305a3a20560e41b604482015290519081900360640190fd5b60025460ff16156120b6576040805162461bcd60e51b815260206004808301919091526024820152632d1d102960e11b604482015290519081900360640190fd5b6002805460ff19166001179055565b6004805460408051632604632d60e21b815290516001600160a01b03909216926398118cb4928282019260209290829003018186803b15801561210757600080fd5b505afa15801561211b573d6000803e3d6000fd5b505050506040513d602081101561213157600080fd5b5051601b5560035460408051631475aa5760e31b815290516001600160a01b039092169163a3ad52b891600480820192602092909190829003018186803b15801561217b57600080fd5b505afa15801561218f573d6000803e3d6000fd5b505050506040513d60208110156121a557600080fd5b5051601c5560035460408051632ca17caf60e11b815290516001600160a01b0390921691635942f95e91600480820192602092909190829003018186803b1580156121ef57600080fd5b505afa158015612203573d6000803e3d6000fd5b505050506040513d602081101561221957600080fd5b5051601d55600354604080516358e20cf160e11b815290516001600160a01b039092169163b1c419e291600480820192602092909190829003018186803b15801561226357600080fd5b505afa158015612277573d6000803e3d6000fd5b505050506040513d602081101561228d57600080fd5b5051601a5560025461010090046001600160a01b0316331461231257600260019054906101000a90046001600160a01b03166001600160a01b03166311816b046040518163ffffffff1660e01b8152600401600060405180830381600087803b1580156122f957600080fd5b505af115801561230d573d6000803e3d6000fd5b505050505b600260019054906101000a90046001600160a01b03166001600160a01b031663145f3c276040518163ffffffff1660e01b8152600401600060405180830381600087803b15801561236257600080fd5b505af1158015612376573d6000803e3d6000fd5b50505050600080612388600080613101565b5091509150600061239a828402613237565b90506000806123a7610485565b9150915060006064601c548702816123bb57fe5b04905060006064601c548702816123ce57fe5b04905060006123f1856001600160701b0316856001600160701b0316858561457e565b509050801561254057600080612408600080613101565b50909250905060006124518b8b8561242e86670de0b6b3a764000063ffffffff6131be16565b8161243557fe5b048a6001600160701b0316600954038e60020289026000614805565b905061245b610485565b909850965073__$a7d75b79dbad75865e91612b2984d03884$__63957c3d6e84670de0b6b3a764000085028161248d57fe5b04896001600160701b0316600954038b6001600160701b0316600a54038787876040518763ffffffff1660e01b8152600401808781526020018681526020018581526020018481526020018381526020018281526020019650505050505050604080518083038186803b15801561250357600080fd5b505af4158015612517573d6000803e3d6000fd5b505050506040513d604081101561252d57600080fd5b508051602090910151600d55600c555050505b50505050506000806000612555600080613101565b925092509250600080612566610485565b600f5460085492945090925090600090600160a01b900460ff1661260357600260019054906101000a90046001600160a01b03166001600160a01b0316635a3d54936040518163ffffffff1660e01b815260040160206040518083038186803b1580156125d257600080fd5b505afa1580156125e6573d6000803e3d6000fd5b505050506040513d60208110156125fc57600080fd5b505161267e565b600260019054906101000a90046001600160a01b03166001600160a01b0316635909c0d56040518163ffffffff1660e01b815260040160206040518083038186803b15801561265157600080fd5b505afa158015612665573d6000803e3d6000fd5b505050506040513d602081101561267b57600080fd5b50515b601a546017549192504291018111156126fe578563ffffffff168111156126c05763ffffffff86168103607088901b818a82816126b757fe5b04028401935050505b6018548211156126fe57600060388060175484036018548603816126e057fe5b04901c670de0b6b3a764000002901c60195550601781905560188290555b871580159061270c57508615155b15612b0257600e5460009081908a908a908d11156127a25760008d600e548f03670de0b6b3a7640000028161273d57fe5b0490506001600160701b03808a16908b16600080808061276085878b8b8b61490b565b93509350935093508260001415801561277857508115155b156127965781600c8190555080600d81905550839a5082995061279a565b839a505b505050505050505b60098054850190819055600a8054850190819055600c54600d546127d8939291906001600160701b03808f16908e168888610ace565b600b805460ff1916911515919091179055600f5560105460075460035460408051637945980160e01b815290516001600160a01b039384169363b3828f839316916379459801916004808301926020929190829003018186803b15801561283e57600080fd5b505afa158015612852573d6000803e3d6000fd5b505050506040513d602081101561286857600080fd5b50516003546040805163604b97bd60e11b815290516001600160a01b039092169163c0972f7a91600480820192602092909190829003018186803b1580156128af57600080fd5b505afa1580156128c3573d6000803e3d6000fd5b505050506040513d60208110156128d957600080fd5b5051601554601054600f54601654604080516001600160e01b031960e08a901b1681526004810197909752602487019590955260448601939093526064850191909152608484015260a48301525160c4808301926020929190829003018186803b15801561294657600080fd5b505afa15801561295a573d6000803e3d6000fd5b505050506040513d602081101561297057600080fd5b50516010819055811461298857600f54601655436015555b50600e8d90556014546000906129a590439063ffffffff612e8616565b90508015612a93576003546040805163ed6b92cd60e01b815290516000926001600160a01b03169163ed6b92cd916004808301926020929190829003018186803b1580156129f257600080fd5b505afa158015612a06573d6000803e3d6000fd5b505050506040513d6020811015612a1c57600080fd5b5051601354909150600090600a439190910311612a3a576000612a3f565b600a83045b9050612a54600183018263ffffffff61385d16565b612a6d601254846011540261385d90919063ffffffff16565b81612a7457fe5b04601155600f54612a85908b614cae565b601255505043601455612ab5565b612ab1612aa2600f548a614cae565b6012549063ffffffff61385d16565b6012555b600954600a54600f5460408051938452602084019290925282820152517f54964c70825f65946c2e16cd62d98784e0536cf3d54b15ce1845f37f325945d29181900360600190a150505050505b5050505050505050505050565b600080600080600080600260019054906101000a90046001600160a01b03166001600160a01b0316630902f1ac6040518163ffffffff1660e01b815260040160606040518083038186803b158015612b6657600080fd5b505afa158015612b7a573d6000803e3d6000fd5b505050506040513d6060811015612b9057600080fd5b5080516020820151604090920151600854919550919350909150600160a01b900460ff16612bbe5781612bc0565b825b600854909650600160a01b900460ff16612bda5782612bdc565b815b959690945092505050565b600080548190612c00906001600160a01b031630613289565b600154909250612c19906001600160a01b031630613289565b90509091565b600080612c30601154601254614cc5565b905082602a1415612cbd57600754600f5460408051630134dce560e11b81526004810192909252516001600160a01b0390921691630269b9ca91602480820192602092909190829003018186803b158015612c8a57600080fd5b505afa158015612c9e573d6000803e3d6000fd5b505050506040513d6020811015612cb457600080fd5b50519150612d20565b601b5460020291506019548310612cfa576019548390612ce59061271063ffffffff6131be16565b81612cec57fe5b046127100382019150612d20565b601954612d0f8461271063ffffffff6131be16565b81612d1657fe5b0461271003820191505b612d556040518060400160405280600f81526020016e06665656270732c206970642c206c7608c1b8152508385601954614cd4565b601d548110612e41576000601354430390506000601d54670de0b6b3a764000081612d7c57fe5b04905080821115612d905743601355612e3e565b612e3b84600360009054906101000a90046001600160a01b03166001600160a01b0316632be90b326040518163ffffffff1660e01b815260040160206040518083038186803b158015612de257600080fd5b505afa158015612df6573d6000803e3d6000fd5b505050506040513d6020811015612e0c57600080fd5b5051601d5461271090612e25888363ffffffff6131be16565b81612e2c57fe5b0403019063ffffffff61385d16565b93505b50505b6127108210612e80576040805162461bcd60e51b81526020600482015260066024820152650b474408ca8960d31b604482015290519081900360640190fd5b50919050565b80820382811115612ed6576040805162461bcd60e51b815260206004820152601560248201527464732d6d6174682d7375622d756e646572666c6f7760581b604482015290519081900360640190fd5b92915050565b600061271083850204600a8111612ef657849150506130fa565b8215612f1e57600154600754612f19916001600160a01b039081169116836133bf565b61308c565b600054600254612f40916001600160a01b0390811691610100900416836133bf565b600080612f4b612b0f565b50915091506000612f6b601b5461271003856131be90919063ffffffff16565b90506000612f9a82612f8e6001600160701b03871661271063ffffffff6131be16565b9063ffffffff61385d16565b612fb3836001600160701b03861663ffffffff6131be16565b81612fba57fe5b60025460085492909104925061010090046001600160a01b03169063022c0d9f90600160a01b900460ff16612fef5782612ff2565b60005b600854600160a01b900460ff1661300a57600061300c565b835b600754604080516001600160e01b031960e087901b168152600481019490945260248401929092526001600160a01b0316604483015260806064830152600060848301819052905160c48084019382900301818387803b15801561306f57600080fd5b505af1158015613083573d6000803e3d6000fd5b50505050505050505b600760009054906101000a90046001600160a01b03166001600160a01b03166303f187ea6040518163ffffffff1660e01b8152600401600060405180830381600087803b1580156130dc57600080fd5b505af11580156130f0573d6000803e3d6000fd5b5050509085039150505b9392505050565b600080600080600080613112612b0f565b9250925092506000613139600260019054906101000a90046001600160a01b031630613289565b9050600061315b600260019054906101000a90046001600160a01b0316613314565b9050811580613168575080155b156131805789894297509750975050505050506131b7565b8082866001600160701b0316028161319457fe5b048183866001600160701b031602816131a957fe5b048497509750975050505050505b9250925092565b60008115806131d9575050808202828282816131d657fe5b04145b612ed6576040805162461bcd60e51b815260206004820152601460248201527364732d6d6174682d6d756c2d6f766572666c6f7760601b604482015290519081900360640190fd5b600081831061323057816130fa565b5090919050565b6000600382111561327a575080600160028204015b818110156132745780915060028182858161326357fe5b04018161326c57fe5b04905061324c565b50613284565b8115613284575060015b919050565b6000826001600160a01b03166370a08231836040518263ffffffff1660e01b815260040180826001600160a01b03166001600160a01b0316815260200191505060206040518083038186803b1580156132e157600080fd5b505afa1580156132f5573d6000803e3d6000fd5b505050506040513d602081101561330b57600080fd5b50519392505050565b6000816001600160a01b03166318160ddd6040518163ffffffff1660e01b815260040160206040518083038186803b15801561334f57600080fd5b505afa158015613363573d6000803e3d6000fd5b505050506040513d602081101561337957600080fd5b505192915050565b60008111610a4f576040805162461bcd60e51b815260206004808301919091526024820152632d1d102d60e11b604482015290519081900360640190fd5b60408051808201825260198152787472616e7366657228616464726573732c75696e743235362960381b60209182015281516001600160a01b0385811660248301526044808301869052845180840390910181526064909201845291810180516001600160e01b031663a9059cbb60e01b1781529251815160009460609489169392918291908083835b602083106134685780518252601f199092019160209182019101613449565b6001836020036101000a0380198251168184511680821785525050505050509050019150506000604051808303816000865af19150503d80600081146134ca576040519150601f19603f3d011682016040523d82523d6000602084013e6134cf565b606091505b50915091508180156134fd5750805115806134fd57508080602001905160208110156134fa57600080fd5b50515b613536576040805162461bcd60e51b81526020600482015260056024820152642d1d102a2360d91b604482015290519081900360640190fd5b5050505050565b600080600061354a612be7565b9150915060008061355b8484613101565b509150915060006064601c5484028161357057fe5b04905060006064601c5484028161358357fe5b0490506135ce868660646135a2601c54896131be90919063ffffffff16565b816135a957fe5b0460646135c1601c54896131be90919063ffffffff16565b816135c857fe5b0461457e565b5050505087915086905060008a602a1461363f578a8a6000806135f18989613101565b50915091506000613600610485565b9150613632905088888561362286670de0b6b3a764000063ffffffff6131be16565b8161362957fe5b048f8989614805565b9297509095509093505050505b613657613652848463ffffffff6131be16565b613237565b600e55600080613665610485565b6001600160701b031691506001600160701b031691508c602a146137505773__$a7d75b79dbad75865e91612b2984d03884$__63957c3d6e8686670de0b6b3a764000002816136b057fe5b600954600a54604080516001600160e01b031960e088901b1681529490930460048501529086900360248401528690036044830152606482018990526084820188905260a48201879052805160c480840193829003018186803b15801561371657600080fd5b505af415801561372a573d6000803e3d6000fd5b505050506040513d604081101561374057600080fd5b508051602090910151600d55600c555b613768600954600a54600c54600d5486868b8b610ace565b5080985050601d5461377c89600f54614cae565b1061378657436013555b5050505050505095945050505050565b826001600160a01b03166340c10f1983836040518363ffffffff1660e01b815260040180836001600160a01b03166001600160a01b0316815260200182815260200192505050600060405180830381600087803b1580156137f657600080fd5b505af115801561380a573d6000803e3d6000fd5b50505050505050565b6003546001600160a01b0316331461385b576040805162461bcd60e51b815260206004808301919091526024820152632d1d102360e11b604482015290519081900360640190fd5b565b80820182811015612ed6576040805162461bcd60e51b815260206004820152601460248201527364732d6d6174682d6164642d6f766572666c6f7760601b604482015290519081900360640190fd5b601c54600090819081908160646138c9898463ffffffff6131be16565b816138d057fe5b0490506000806000806138e4600080613101565b5091509150600060c8878402816138f757fe5b6000805492909104925060c8898502049161391b906001600160a01b031630613289565b600154909150600090613937906001600160a01b031630613289565b9050838211801561394757508281115b1561398c5760008061395f888888870388870361430d565b915091508f1561397b5760648782018d02049a50809850613989565b60648883018d02049a508198505b50505b505050505050888311156139d357828101899003915081156139d357818b116139ce5760006139ba85614368565b508c98509650879550613bd7945050505050565b958101955b818b03600080806139e48180613101565b50915091508b15613ab6578c60006139fd848402613237565b905060006127106002601b5481613a1057fe5b0460010161271003880281613a2157fe5b0490506000613a40613a39868463ffffffff61385d16565b8702613237565b9050828111613a7e576040805162461bcd60e51b81526020600482015260056024820152645a503a534b60d81b604482015290519081900360640190fd5b600083848303670de0b6b3a76400000281613a9557fe5b049050670de0b6b3a764000086820260020204880197505050505050613bad565b8c6000613ac4848402613237565b905060006127106002601b5481613ad757fe5b0460010161271003880281613ae857fe5b0490506000613b0785613b01888563ffffffff61385d16565b02613237565b9050828111613b45576040805162461bcd60e51b81526020600482015260056024820152645a503a534b60d81b604482015290519081900360640190fd5b600083848303670de0b6b3a76400000281613b5c57fe5b049050600082858403670de0b6b3a76400000281613b7657fe5b049050670de0b6b3a76400008782026002020489019850670de0b6b3a764000082600202880281613ba357fe5b049e505050505050505b9982019960008615613bc657613bc289614368565b5090505b890199505050929095019450505050505b9450945094915050565b600080600080613bf2600080613101565b5091509150600080613c02610485565b91509150600089613c135782613c15565b815b6001600160701b0316905060008a613c2d5785613c2f565b845b905060008b613c8557613c80670de0b6b3a7640000613c6a6002613c5e600f54876131be90919063ffffffff16565b9063ffffffff6131be16565b81613c7157fe5b8591900463ffffffff61385d16565b613c89565b6009545b905080613c9c848d63ffffffff6131be16565b81613ca357fe5b0498506000613cb28a8c613221565b90508b613cc5838363ffffffff6131be16565b81613ccc57fe5b0498505050505050505050935093915050565b6000806000613cef8989866141a6565b60025490925061271088840204830390600090613d1a9061010090046001600160a01b031630613289565b90506000613d26610485565b6001600160701b031691505060008c15613ebb5782848403670de0b6b3a76400000281613d4f57fe5b0490508989670d7621dc58210000831015613db957600f54670de0b6b3a7640000988402899004988488028190049791870204613d9c888303670de0b6b3a764000063ffffffff6131be16565b81613da357fe5b049350670de0b6b3a76400008401935050613dc5565b670de0b6b3a764000092505b600754600954600f546000926001600160a01b031691638b25fde1918a91613e0a91670de0b6b3a7640000918b90039061163990830360028b0263ffffffff6131be16565b601b546008546040805160e087901b6001600160e01b0319168152600481019590955260248501939093526044840191909152600160a01b900460ff16151560648301526001600160a01b0386166084830152805160a4808401938290030181600087803b158015613e7b57600080fd5b505af1158015613e8f573d6000803e3d6000fd5b505050506040513d6040811015613ea557600080fd5b50805160209091015198509650613f2892505050565b613efd670de0b6b3a764000084600f540281613ed357fe5b0487670de0b6b3a76400000281613ee657fe5b670de0b6b3a764000091900463ffffffff612e8616565b9050613f28604051806040016040528060078152602001667065726350726560c81b81525082614d98565b600254613f449061010090046001600160a01b031680866133bf565b600260019054906101000a90046001600160a01b03166001600160a01b0316632ce510908a8f1515600860149054906101000a900460ff16151514156040518363ffffffff1660e01b815260040180836001600160a01b03166001600160a01b031681526020018215151515815260200192505050602060405180830381600087803b158015613fd357600080fd5b505af1158015613fe7573d6000803e3d6000fd5b505050506040513d6020811015613ffd57600080fd5b5051909d959c5093909301995092975050505050505050565b6000612710828402048061402d5783915050612ed6565b6002546140499061010090046001600160a01b031680836133bf565b600254600754600854604080516302ce510960e41b81526001600160a01b039384166004820152600160a01b90920460ff161560248301525161010090930490911691632ce51090916044808201926020929091908290030181600087803b1580156140b457600080fd5b505af11580156140c8573d6000803e3d6000fd5b505050506040513d60208110156140de57600080fd5b5050600754604080516301f8c3f560e11b815290516001600160a01b03909216916303f187ea9160048082019260009290919082900301818387803b15801561412657600080fd5b505af115801561413a573d6000803e3d6000fd5b50505093039392505050565b826001600160a01b0316639dc29fac83836040518363ffffffff1660e01b815260040180836001600160a01b03166001600160a01b0316815260200182815260200192505050600060405180830381600087803b1580156137f657600080fd5b60008060006141b6600180613101565b50915091506000806141c6610485565b915091506000806141ec600260019054906101000a90046001600160a01b031630613289565b905089156142275784600202614218846001600160701b031660095403836131be90919063ffffffff16565b8161421f57fe5b04915061424f565b600f54670de0b6b3a764000090614244908363ffffffff6131be16565b8161424b57fe5b0491505b60008a6142b257846001600160701b0316670de0b6b3a7640000614281600f546002028a6131be90919063ffffffff16565b8161428857fe5b04016142a38a6001600160701b03881663ffffffff6131be16565b816142aa57fe5b0489036142d9565b6009546142ce8a6001600160701b03871663ffffffff6131be16565b816142d557fe5b0489035b9050806142ec8b8563ffffffff6131be16565b816142f357fe5b0497506142ff88613381565b505050505050509392505050565b6000808085614322888663ffffffff6131be16565b8161432957fe5b049050848111156143575784925086614348848863ffffffff6131be16565b8161434f57fe5b04915061435e565b8092508391505b5094509492505050565b600080600080614376612be7565b915091506000806143878484613101565b509092509050600060c86143a1848a63ffffffff6131be16565b816143a857fe5b049050600060c86143bf848b63ffffffff6131be16565b816143c657fe5b049050816001600160701b0316861180156143e95750806001600160701b031685115b15614502576000806143f9612b0f565b506001600160701b031691506001600160701b031691506144328282866001600160701b03168b03866001600160701b03168b0361430d565b600054600254929c50909a5061445b916001600160a01b0391821691610100909104168c6133bf565b60015460025461447d916001600160a01b03908116916101009004168b6133bf565b600254604080516335313c2160e11b815230600482015290516101009092046001600160a01b031691636a627842916024808201926020929091908290030181600087803b1580156144ce57600080fd5b505af11580156144e2573d6000803e3d6000fd5b505050506040513d60208110156144f857600080fd5b5061457392505050565b600260019054906101000a90046001600160a01b03166001600160a01b031663145f3c276040518163ffffffff1660e01b8152600401600060405180830381600087803b15801561455257600080fd5b505af1158015614566573d6000803e3d6000fd5b5050505060009750600096505b505050505050915091565b60008085846001600160701b03161015614672576000546002546145bf916001600160a01b03908116916101009004166001600160701b03871689036133bf565b600254600854604080516321913af360e11b8152306004820152600160a01b90920460ff1615156024830152516101009092046001600160a01b03169163432275e6916044808201926060929091908290030181600087803b15801561462457600080fd5b505af1158015614638573d6000803e3d6000fd5b505050506040513d606081101561464e57600080fd5b5051601e80546001600160701b0319166001600160701b038716179055915061468e565b601e80546001600160701b0319166001600160701b0388161790555b84836001600160701b03161015614787576001546002546146cc916001600160a01b03908116916101009004166001600160701b03861688036133bf565b600254600854604080516321913af360e11b8152306004820152600160a01b90920460ff16156024830152516101009092046001600160a01b03169163432275e6916044808201926060929091908290030181600087803b15801561473057600080fd5b505af1158015614744573d6000803e3d6000fd5b505050506040513d606081101561475a57600080fd5b5051601e8054600160701b600160e01b031916600160701b6001600160701b0387160217905590506147ac565b601e8054600160701b600160e01b031916600160701b6001600160701b038816021790555b601e54604080516001600160701b038084168252600160701b909304909216602083015280517f1d96001f313f6446e46c7776b79d231589555627a46fa2388f3220937fc79e519281900390910190a194509492505050565b600073__$a7d75b79dbad75865e91612b2984d03884$__635f1babfd86600c54600d548b8b8a6040518763ffffffff1660e01b815260040180878152602001868152602001858152602001848152602001838152602001828152602001965050505050505060206040518083038186803b15801561488257600080fd5b505af4158015614896573d6000803e3d6000fd5b505050506040513d60208110156148ac57600080fd5b5051905081156148ee5782670de0b6b3a7640000146148e957670de0b6b3a76400006148de828563ffffffff6131be16565b816148e557fe5b0490505b614901565b6148fe818463ffffffff61385d16565b90505b9695505050505050565b600080600080670de0b6b3a7640000601054670de0b6b3a7640000614939888a6131be90919063ffffffff16565b6002028161494357fe5b04028161494c57fe5b0493506000888a8989898583670de0b6b3a764000084028161496a57fe5b04905073__$a7d75b79dbad75865e91612b2984d03884$__635f1babfd82600c54600d5486670de0b6b3a76400000189670de0b6b3a764000002816149ab57fe5b0487670de0b6b3a76400000189670de0b6b3a764000002816149c957fe5b048c600954036040518763ffffffff1660e01b815260040180878152602001868152602001858152602001848152602001838152602001828152602001965050505050505060206040518083038186803b158015614a2657600080fd5b505af4158015614a3a573d6000803e3d6000fd5b505050506040513d6020811015614a5057600080fd5b5051601054909750670de0b6b3a764000090614a8390820382614a79878763ffffffff6131be16565b600202816110ff57fe5b81614a8a57fe5b04995073__$a7d75b79dbad75865e91612b2984d03884$__63957c3d6e82886009540388600a54038888670de0b6b3a7640000601054670de0b6b3a764000003670de0b6b3a7640000614ae68c8e6131be90919063ffffffff16565b60020281614af057fe5b040281614af957fe5b048e016040518763ffffffff1660e01b8152600401808781526020018681526020018581526020018481526020018381526020018281526020019650505050505050604080518083038186803b158015614b5257600080fd5b505af4158015614b66573d6000803e3d6000fd5b505050506040513d6040811015614b7c57600080fd5b810190808051906020019092919080519060200190929190505050809950819a50505050505050505073__$a7d75b79dbad75865e91612b2984d03884$__6342d7440384848b8b8e8b60095401036040518663ffffffff1660e01b8152600401808681526020018581526020018481526020018381526020018281526020019550505050505060206040518083038186803b158015614c1a57600080fd5b505af4158015614c2e573d6000803e3d6000fd5b505050506040513d6020811015614c4457600080fd5b5051614c7c5787878b0281614c5557fe5b048101614c6d85600a546131be90919063ffffffff16565b81614c7457fe5b049350614ca1565b60105485670de0b6b3a76400000281614c9157fe5b0494506000935060009250600091505b5095509550955095915050565b6000818310614cc05750808203612ed6565b500390565b600081831161323057816130fa565b614d92848484846040516024018080602001858152602001848152602001838152602001828103825286818151815260200191508051906020019080838360005b83811015614d2d578181015183820152602001614d15565b50505050905090810190601f168015614d5a5780820380516001836020036101000a031916815260200191505b5060408051601f198184030181529190526020810180516001600160e01b031663a7a8785360e01b1790529550614e4a945050505050565b50505050565b614e4682826040516024018080602001838152602001828103825284818151815260200191508051906020019080838360005b83811015614de3578181015183820152602001614dcb565b50505050905090810190601f168015614e105780820380516001836020036101000a031916815260200191505b5060408051601f198184030181529190526020810180516001600160e01b0316632d839cb360e21b1790529350614e4a92505050565b5050565b80516a636f6e736f6c652e6c6f67602083016000808483855afa505050505056fea265627a7a723158207d161e194468992030de39aa660db8ab67dc008309323969f68f64711f563b1364736f6c63430005100032",
  "linkReferences": {
    "contracts/libraries/ZirconLibrary.sol": {
      "ZirconLibrary": [
        {
          "length": 20,
          "start": 3016
        },
        {
          "length": 20,
          "start": 7736
        },
        {
          "length": 20,
          "start": 9369
        },
        {
          "length": 20,
          "start": 14012
        },
        {
          "length": 20,
          "start": 18496
        },
        {
          "length": 20,
          "start": 18854
        },
        {
          "length": 20,
          "start": 19142
        },
        {
          "length": 20,
          "start": 19422
        }
      ]
    }
  },
  "deployedLinkReferences": {
    "contracts/libraries/ZirconLibrary.sol": {
      "ZirconLibrary": [
        {
          "length": 20,
          "start": 2961
        },
        {
          "length": 20,
          "start": 7681
        },
        {
          "length": 20,
          "start": 9314
        },
        {
          "length": 20,
          "start": 13957
        },
        {
          "length": 20,
          "start": 18441
        },
        {
          "length": 20,
          "start": 18799
        },
        {
          "length": 20,
          "start": 19087
        },
        {
          "length": 20,
          "start": 19367
        }
      ]
    }
  }
}