{
  "_format": "hh-sol-artifact-1",
  "contractName": "ZirconPair",
  "sourceName": "contracts/ZirconPair.sol",
  "abi": [
    {
      "inputs": [],
      "payable": false,
      "stateMutability": "nonpayable",
      "type": "constructor"
    },
    {
      "anonymous": false,
      "inputs": [
        {
          "indexed": true,
          "internalType": "address",
          "name": "owner",
          "type": "address"
        },
        {
          "indexed": true,
          "internalType": "address",
          "name": "spender",
          "type": "address"
        },
        {
          "indexed": false,
          "internalType": "uint256",
          "name": "value",
          "type": "uint256"
        }
      ],
      "name": "Approval",
      "type": "event"
    },
    {
      "anonymous": false,
      "inputs": [
        {
          "indexed": true,
          "internalType": "address",
          "name": "sender",
          "type": "address"
        },
        {
          "indexed": false,
          "internalType": "uint256",
          "name": "amount0",
          "type": "uint256"
        },
        {
          "indexed": false,
          "internalType": "uint256",
          "name": "amount1",
          "type": "uint256"
        },
        {
          "indexed": true,
          "internalType": "address",
          "name": "to",
          "type": "address"
        }
      ],
      "name": "Burn",
      "type": "event"
    },
    {
      "anonymous": false,
      "inputs": [
        {
          "indexed": true,
          "internalType": "address",
          "name": "sender",
          "type": "address"
        },
        {
          "indexed": false,
          "internalType": "uint256",
          "name": "amount0",
          "type": "uint256"
        },
        {
          "indexed": false,
          "internalType": "uint256",
          "name": "amount1",
          "type": "uint256"
        }
      ],
      "name": "Mint",
      "type": "event"
    },
    {
      "anonymous": false,
      "inputs": [
        {
          "indexed": true,
          "internalType": "address",
          "name": "sender",
          "type": "address"
        },
        {
          "indexed": false,
          "internalType": "uint256",
          "name": "amount0In",
          "type": "uint256"
        },
        {
          "indexed": false,
          "internalType": "uint256",
          "name": "amount1In",
          "type": "uint256"
        },
        {
          "indexed": false,
          "internalType": "uint256",
          "name": "amount0Out",
          "type": "uint256"
        },
        {
          "indexed": false,
          "internalType": "uint256",
          "name": "amount1Out",
          "type": "uint256"
        },
        {
          "indexed": true,
          "internalType": "address",
          "name": "to",
          "type": "address"
        }
      ],
      "name": "Swap",
      "type": "event"
    },
    {
      "anonymous": false,
      "inputs": [
        {
          "indexed": false,
          "internalType": "uint112",
          "name": "reserve0",
          "type": "uint112"
        },
        {
          "indexed": false,
          "internalType": "uint112",
          "name": "reserve1",
          "type": "uint112"
        }
      ],
      "name": "Sync",
      "type": "event"
    },
    {
      "anonymous": false,
      "inputs": [
        {
          "indexed": true,
          "internalType": "address",
          "name": "from",
          "type": "address"
        },
        {
          "indexed": true,
          "internalType": "address",
          "name": "to",
          "type": "address"
        },
        {
          "indexed": false,
          "internalType": "uint256",
          "name": "value",
          "type": "uint256"
        }
      ],
      "name": "Transfer",
      "type": "event"
    },
    {
      "constant": true,
      "inputs": [],
      "name": "DOMAIN_SEPARATOR",
      "outputs": [
        {
          "internalType": "bytes32",
          "name": "",
          "type": "bytes32"
        }
      ],
      "payable": false,
      "stateMutability": "view",
      "type": "function"
    },
    {
      "constant": true,
      "inputs": [],
      "name": "MINIMUM_LIQUIDITY",
      "outputs": [
        {
          "internalType": "uint256",
          "name": "",
          "type": "uint256"
        }
      ],
      "payable": false,
      "stateMutability": "view",
      "type": "function"
    },
    {
      "constant": true,
      "inputs": [],
      "name": "PERMIT_TYPEHASH",
      "outputs": [
        {
          "internalType": "bytes32",
          "name": "",
          "type": "bytes32"
        }
      ],
      "payable": false,
      "stateMutability": "view",
      "type": "function"
    },
    {
      "constant": true,
      "inputs": [
        {
          "internalType": "address",
          "name": "",
          "type": "address"
        },
        {
          "internalType": "address",
          "name": "",
          "type": "address"
        }
      ],
      "name": "allowance",
      "outputs": [
        {
          "internalType": "uint256",
          "name": "",
          "type": "uint256"
        }
      ],
      "payable": false,
      "stateMutability": "view",
      "type": "function"
    },
    {
      "constant": false,
      "inputs": [
        {
          "internalType": "address",
          "name": "spender",
          "type": "address"
        },
        {
          "internalType": "uint256",
          "name": "value",
          "type": "uint256"
        }
      ],
      "name": "approve",
      "outputs": [
        {
          "internalType": "bool",
          "name": "",
          "type": "bool"
        }
      ],
      "payable": false,
      "stateMutability": "nonpayable",
      "type": "function"
    },
    {
      "constant": true,
      "inputs": [
        {
          "internalType": "address",
          "name": "",
          "type": "address"
        }
      ],
      "name": "balanceOf",
      "outputs": [
        {
          "internalType": "uint256",
          "name": "",
          "type": "uint256"
        }
      ],
      "payable": false,
      "stateMutability": "view",
      "type": "function"
    },
    {
      "constant": false,
      "inputs": [
        {
          "internalType": "address",
          "name": "to",
          "type": "address"
        }
      ],
      "name": "burn",
      "outputs": [
        {
          "internalType": "uint256",
          "name": "amount0",
          "type": "uint256"
        },
        {
          "internalType": "uint256",
          "name": "amount1",
          "type": "uint256"
        }
      ],
      "payable": false,
      "stateMutability": "nonpayable",
      "type": "function"
    },
    {
      "constant": false,
      "inputs": [
        {
          "internalType": "address",
          "name": "to",
          "type": "address"
        },
        {
          "internalType": "bool",
          "name": "isReserve0",
          "type": "bool"
        }
      ],
      "name": "burnOneSide",
      "outputs": [
        {
          "internalType": "uint256",
          "name": "amount",
          "type": "uint256"
        }
      ],
      "payable": false,
      "stateMutability": "nonpayable",
      "type": "function"
    },
    {
      "constant": false,
      "inputs": [
        {
          "internalType": "address",
          "name": "_revAddress",
          "type": "address"
        }
      ],
      "name": "changeEnergyRevAddress",
      "outputs": [],
      "payable": false,
      "stateMutability": "nonpayable",
      "type": "function"
    },
    {
      "constant": true,
      "inputs": [],
      "name": "decimals",
      "outputs": [
        {
          "internalType": "uint8",
          "name": "",
          "type": "uint8"
        }
      ],
      "payable": false,
      "stateMutability": "view",
      "type": "function"
    },
    {
      "constant": true,
      "inputs": [],
      "name": "energyRevenueAddress",
      "outputs": [
        {
          "internalType": "address",
          "name": "",
          "type": "address"
        }
      ],
      "payable": false,
      "stateMutability": "view",
      "type": "function"
    },
    {
      "constant": true,
      "inputs": [],
      "name": "factory",
      "outputs": [
        {
          "internalType": "address",
          "name": "",
          "type": "address"
        }
      ],
      "payable": false,
      "stateMutability": "view",
      "type": "function"
    },
    {
      "constant": true,
      "inputs": [],
      "name": "getReserves",
      "outputs": [
        {
          "internalType": "uint112",
          "name": "_reserve0",
          "type": "uint112"
        },
        {
          "internalType": "uint112",
          "name": "_reserve1",
          "type": "uint112"
        },
        {
          "internalType": "uint32",
          "name": "_blockTimestampLast",
          "type": "uint32"
        }
      ],
      "payable": false,
      "stateMutability": "view",
      "type": "function"
    },
    {
      "constant": false,
      "inputs": [
        {
          "internalType": "address",
          "name": "_token0",
          "type": "address"
        },
        {
          "internalType": "address",
          "name": "_token1",
          "type": "address"
        },
        {
          "internalType": "address",
          "name": "_energy",
          "type": "address"
        }
      ],
      "name": "initialize",
      "outputs": [],
      "payable": false,
      "stateMutability": "nonpayable",
      "type": "function"
    },
    {
      "constant": true,
      "inputs": [],
      "name": "kLast",
      "outputs": [
        {
          "internalType": "uint256",
          "name": "",
          "type": "uint256"
        }
      ],
      "payable": false,
      "stateMutability": "view",
      "type": "function"
    },
    {
      "constant": false,
      "inputs": [
        {
          "internalType": "address",
          "name": "to",
          "type": "address"
        }
      ],
      "name": "mint",
      "outputs": [
        {
          "internalType": "uint256",
          "name": "liquidity",
          "type": "uint256"
        }
      ],
      "payable": false,
      "stateMutability": "nonpayable",
      "type": "function"
    },
    {
      "constant": false,
      "inputs": [
        {
          "internalType": "address",
          "name": "to",
          "type": "address"
        },
        {
          "internalType": "bool",
          "name": "isReserve0",
          "type": "bool"
        }
      ],
      "name": "mintOneSide",
      "outputs": [
        {
          "internalType": "uint256",
          "name": "liquidity",
          "type": "uint256"
        },
        {
          "internalType": "uint256",
          "name": "amount0",
          "type": "uint256"
        },
        {
          "internalType": "uint256",
          "name": "amount1",
          "type": "uint256"
        }
      ],
      "payable": false,
      "stateMutability": "nonpayable",
      "type": "function"
    },
    {
      "constant": true,
      "inputs": [],
      "name": "name",
      "outputs": [
        {
          "internalType": "string",
          "name": "",
          "type": "string"
        }
      ],
      "payable": false,
      "stateMutability": "view",
      "type": "function"
    },
    {
      "constant": true,
      "inputs": [
        {
          "internalType": "address",
          "name": "",
          "type": "address"
        }
      ],
      "name": "nonces",
      "outputs": [
        {
          "internalType": "uint256",
          "name": "",
          "type": "uint256"
        }
      ],
      "payable": false,
      "stateMutability": "view",
      "type": "function"
    },
    {
      "constant": false,
      "inputs": [
        {
          "internalType": "address",
          "name": "owner",
          "type": "address"
        },
        {
          "internalType": "address",
          "name": "spender",
          "type": "address"
        },
        {
          "internalType": "uint256",
          "name": "value",
          "type": "uint256"
        },
        {
          "internalType": "uint256",
          "name": "deadline",
          "type": "uint256"
        },
        {
          "internalType": "uint8",
          "name": "v",
          "type": "uint8"
        },
        {
          "internalType": "bytes32",
          "name": "r",
          "type": "bytes32"
        },
        {
          "internalType": "bytes32",
          "name": "s",
          "type": "bytes32"
        }
      ],
      "name": "permit",
      "outputs": [],
      "payable": false,
      "stateMutability": "nonpayable",
      "type": "function"
    },
    {
      "constant": true,
      "inputs": [],
      "name": "price0CumulativeLast",
      "outputs": [
        {
          "internalType": "uint256",
          "name": "",
          "type": "uint256"
        }
      ],
      "payable": false,
      "stateMutability": "view",
      "type": "function"
    },
    {
      "constant": true,
      "inputs": [],
      "name": "price1CumulativeLast",
      "outputs": [
        {
          "internalType": "uint256",
          "name": "",
          "type": "uint256"
        }
      ],
      "payable": false,
      "stateMutability": "view",
      "type": "function"
    },
    {
      "constant": false,
      "inputs": [],
      "name": "publicMintFee",
      "outputs": [],
      "payable": false,
      "stateMutability": "nonpayable",
      "type": "function"
    },
    {
      "constant": false,
      "inputs": [
        {
          "internalType": "address",
          "name": "to",
          "type": "address"
        }
      ],
      "name": "skim",
      "outputs": [],
      "payable": false,
      "stateMutability": "nonpayable",
      "type": "function"
    },
    {
      "constant": false,
      "inputs": [
        {
          "internalType": "uint256",
          "name": "amount0Out",
          "type": "uint256"
        },
        {
          "internalType": "uint256",
          "name": "amount1Out",
          "type": "uint256"
        },
        {
          "internalType": "address",
          "name": "to",
          "type": "address"
        },
        {
          "internalType": "bytes",
          "name": "data",
          "type": "bytes"
        }
      ],
      "name": "swap",
      "outputs": [],
      "payable": false,
      "stateMutability": "nonpayable",
      "type": "function"
    },
    {
      "constant": true,
      "inputs": [],
      "name": "symbol",
      "outputs": [
        {
          "internalType": "string",
          "name": "",
          "type": "string"
        }
      ],
      "payable": false,
      "stateMutability": "view",
      "type": "function"
    },
    {
      "constant": false,
      "inputs": [],
      "name": "sync",
      "outputs": [],
      "payable": false,
      "stateMutability": "nonpayable",
      "type": "function"
    },
    {
      "constant": true,
      "inputs": [],
      "name": "token0",
      "outputs": [
        {
          "internalType": "address",
          "name": "",
          "type": "address"
        }
      ],
      "payable": false,
      "stateMutability": "view",
      "type": "function"
    },
    {
      "constant": true,
      "inputs": [],
      "name": "token1",
      "outputs": [
        {
          "internalType": "address",
          "name": "",
          "type": "address"
        }
      ],
      "payable": false,
      "stateMutability": "view",
      "type": "function"
    },
    {
      "constant": true,
      "inputs": [],
      "name": "totalSupply",
      "outputs": [
        {
          "internalType": "uint256",
          "name": "",
          "type": "uint256"
        }
      ],
      "payable": false,
      "stateMutability": "view",
      "type": "function"
    },
    {
      "constant": false,
      "inputs": [
        {
          "internalType": "address",
          "name": "to",
          "type": "address"
        },
        {
          "internalType": "uint256",
          "name": "value",
          "type": "uint256"
        }
      ],
      "name": "transfer",
      "outputs": [
        {
          "internalType": "bool",
          "name": "",
          "type": "bool"
        }
      ],
      "payable": false,
      "stateMutability": "nonpayable",
      "type": "function"
    },
    {
      "constant": false,
      "inputs": [
        {
          "internalType": "address",
          "name": "from",
          "type": "address"
        },
        {
          "internalType": "address",
          "name": "to",
          "type": "address"
        },
        {
          "internalType": "uint256",
          "name": "value",
          "type": "uint256"
        }
      ],
      "name": "transferFrom",
      "outputs": [
        {
          "internalType": "bool",
          "name": "",
          "type": "bool"
        }
      ],
      "payable": false,
      "stateMutability": "nonpayable",
      "type": "function"
    },
    {
      "constant": false,
      "inputs": [],
      "name": "tryLock",
      "outputs": [],
      "payable": false,
      "stateMutability": "nonpayable",
      "type": "function"
    }
  ],
  "bytecode": "0x60806040526001600d5534801561001557600080fd5b506040514690806052613190823960408051918290036052018220828201825260068352652d34b931b7b760d11b6020938401528151808301835260018152603160f81b908401528151808401919091527f94c6df7cbb14f58e7ac6d9fa315f8346b33ef43dae2423c0e0e94673dd9e65ff818301527fc89efdaa54c0f20c7adf612882df0950f5a951637e0307cdcb4c672f298b8bc6606082015260808101949094523060a0808601919091528151808603909101815260c09094019052825192019190912060045550600580546001600160a01b0319163317905561308f806101016000396000f3fe608060405234801561001057600080fd5b506004361061018b5760003560e01c8063022c0d9f1461019057806306fdde031461021c5780630902f1ac14610299578063095ea7b3146102d15780630dfe16811461031157806311816b0414610335578063145f3c271461033d57806318160ddd1461034557806323b872dd1461035f5780632ce510901461039557806330adf81f146103c3578063313ce567146103cb5780633644e515146103e9578063432275e6146103f157806353ddd9441461043d5780635909c0d5146104635780635a3d54931461046b5780636a627842146104735780636da996361461049957806370a08231146104a15780637464fc3d146104c75780637ecebe00146104cf57806389afcb44146104f557806395d89b4114610534578063a9059cbb1461053c578063ba9a7a5614610568578063bc25cf7714610570578063c0c53b8b14610596578063c45a0155146105ce578063d21220a7146105d6578063d505accf146105de578063dd62ed3e1461062f578063fff6cae91461065d575b600080fd5b61021a600480360360808110156101a657600080fd5b8135916020810135916001600160a01b036040830135169190810190608081016060820135600160201b8111156101dc57600080fd5b8201836020820111156101ee57600080fd5b803590602001918460018302840111600160201b8311171561020f57600080fd5b509092509050610665565b005b610224610c0d565b6040805160208082528351818301528351919283929083019185019080838360005b8381101561025e578181015183820152602001610246565b50505050905090810190601f16801561028b5780820380516001836020036101000a031916815260200191505b509250505060405180910390f35b6102a1610c2f565b604080516001600160701b03948516815292909316602083015263ffffffff168183015290519081900360600190f35b6102fd600480360360408110156102e757600080fd5b506001600160a01b038135169060200135610c59565b604080519115158252519081900360200190f35b610319610c70565b604080516001600160a01b039092168252519081900360200190f35b61021a610c7f565b61021a610ccb565b61034d610d61565b60408051918252519081900360200190f35b6102fd6004803603606081101561037557600080fd5b506001600160a01b03813581169160208101359091169060400135610d67565b61034d600480360360408110156103ab57600080fd5b506001600160a01b0381351690602001351515610e01565b61034d6112ec565b6103d36112fe565b6040805160ff9092168252519081900360200190f35b61034d611303565b61041f6004803603604081101561040757600080fd5b506001600160a01b0381351690602001351515611309565b60408051938452602084019290925282820152519081900360600190f35b61021a6004803603602081101561045357600080fd5b50356001600160a01b03166117e4565b61034d61185e565b61034d611864565b61034d6004803603602081101561048957600080fd5b50356001600160a01b031661186a565b610319611b40565b61034d600480360360208110156104b757600080fd5b50356001600160a01b0316611b4f565b61034d611b61565b61034d600480360360208110156104e557600080fd5b50356001600160a01b0316611b67565b61051b6004803603602081101561050b57600080fd5b50356001600160a01b0316611b79565b6040805192835260208301919091528051918290030190f35b610224611efc565b6102fd6004803603604081101561055257600080fd5b506001600160a01b038135169060200135611f1b565b61034d611f28565b61021a6004803603602081101561058657600080fd5b50356001600160a01b0316611f2e565b61021a600480360360608110156105ac57600080fd5b506001600160a01b038135811691602081013582169160409091013516612093565b610319612129565b610319612138565b61021a600480360360e08110156105f457600080fd5b506001600160a01b03813581169160208101359091169060408101359060608101359060ff6080820135169060a08101359060c00135612147565b61034d6004803603604081101561064557600080fd5b506001600160a01b0381358116916020013516612336565b61021a612353565b600d546001146106aa576040805162461bcd60e51b81526020600482015260116024820152600080516020612f69833981519152604482015290519081900360640190fd5b6000600d55841515806106bd5750600084115b6106f85760405162461bcd60e51b8152600401808060200182810382526025815260200180612eb76025913960400191505060405180910390fd5b600080610703610c2f565b5091509150816001600160701b0316871080156107285750806001600160701b031686105b6107635760405162461bcd60e51b8152600401808060200182810382526021815260200180612f206021913960400191505060405180910390fd5b60065460075460009182916001600160a01b039182169190811690891682148015906107a15750806001600160a01b0316896001600160a01b031614155b6107ea576040805162461bcd60e51b8152602060048201526015602482015274556e697377617056323a20494e56414c49445f544f60581b604482015290519081900360640190fd5b8a156107fb576107fb828a8d6124a8565b891561080c5761080c818a8c6124a8565b86156108c757886001600160a01b03166310d1e85c338d8d8c8c6040518663ffffffff1660e01b815260040180866001600160a01b03166001600160a01b03168152602001858152602001848152602001806020018281038252848482818152602001925080828437600081840152601f19601f8201169050808301925050509650505050505050600060405180830381600087803b1580156108ae57600080fd5b505af11580156108c2573d6000803e3d6000fd5b505050505b604080516370a0823160e01b815230600482015290516001600160a01b038416916370a08231916024808301926020929190829003018186803b15801561090d57600080fd5b505afa158015610921573d6000803e3d6000fd5b505050506040513d602081101561093757600080fd5b5051604080516370a0823160e01b815230600482015290519195506001600160a01b038316916370a0823191602480820192602092909190829003018186803b15801561098357600080fd5b505afa158015610997573d6000803e3d6000fd5b505050506040513d60208110156109ad57600080fd5b5051925060009150506001600160701b0385168a900383116109d05760006109df565b89856001600160701b03160383035b9050600089856001600160701b03160383116109fc576000610a0b565b89856001600160701b03160383035b90506000821180610a1c5750600081115b610a575760405162461bcd60e51b8152600401808060200182810382526024815260200180612edc6024913960400191505060405180910390fd5b60055460408051632604632d60e21b815290516000926001600160a01b0316916398118cb4916004808301926020929190829003018186803b158015610a9c57600080fd5b505afa158015610ab0573d6000803e3d6000fd5b505050506040513d6020811015610ac657600080fd5b505190506000610afd610adf858463ffffffff61263b16565b610af18861271063ffffffff61263b16565b9063ffffffff61269e16565b90506000610b14610adf858563ffffffff61263b16565b9050610b466305f5e100610b3a6001600160701b038c8116908c1663ffffffff61263b16565b9063ffffffff61263b16565b610b56838363ffffffff61263b16565b1015610b98576040805162461bcd60e51b815260206004820152600c60248201526b556e697377617056323a204b60a01b604482015290519081900360640190fd5b505050610ba7848488886126ee565b60408051838152602081018390528082018d9052606081018c905290516001600160a01b038b169133917fd78ad95fa46c994b6551d0da85fc275fe613ce37657fb8d5e3d130840159d8229181900360800190a350506001600d55505050505050505050565b604051806040016040528060068152602001652d34b931b7b760d11b81525081565b6009546001600160701b0380821692600160701b830490911691600160e01b900463ffffffff1690565b6000610c663384846128a5565b5060015b92915050565b6006546001600160a01b031681565b600d54600114610cc4576040805162461bcd60e51b81526020600482015260116024820152600080516020612f69833981519152604482015290519081900360640190fd5b6001600d55565b600d54600114610d10576040805162461bcd60e51b81526020600482015260116024820152600080516020612f69833981519152604482015290519081900360640190fd5b6000600d81905580610d20610c2f565b5091509150610d2f8282612907565b600954610d55906001600160701b0380821691600160701b90041663ffffffff61263b16565b600c5550506001600d55565b60005481565b6001600160a01b038316600090815260026020908152604080832033845290915281205460001914610dec576001600160a01b0384166000908152600260209081526040808320338452909152902054610dc7908363ffffffff61269e16565b6001600160a01b03851660009081526002602090815260408083203384529091529020555b610df7848484612b25565b5060019392505050565b6000600d54600114610e48576040805162461bcd60e51b81526020600482015260116024820152600080516020612f69833981519152604482015290519081900360640190fd5b6000600d81905580610e58610c2f565b50600654600754604080516370a0823160e01b815230600482015290519496509294506001600160a01b03918216939116916000918291829186916370a08231916024808301926020929190829003018186803b158015610eb857600080fd5b505afa158015610ecc573d6000803e3d6000fd5b505050506040513d6020811015610ee257600080fd5b5051604080516370a0823160e01b815230600482015290519192506000916001600160a01b038716916370a08231916024808301926020929190829003018186803b158015610f3057600080fd5b505afa158015610f44573d6000803e3d6000fd5b505050506040513d6020811015610f5a57600080fd5b5051306000908152600160209081526040808320546005548251632604632d60e21b8152925195965090946001600160a01b03909116926398118cb49260048082019391829003018186803b158015610fb257600080fd5b505afa158015610fc6573d6000803e3d6000fd5b505050506040513d6020811015610fdc57600080fd5b50519050610fea8a8a612907565b60005480610ffe848763ffffffff61263b16565b8161100557fe5b04965080611019848663ffffffff61263b16565b8161102057fe5b0495508c156110955761104b86878c6001600160701b031603898e6001600160701b03160385612bcd565b87019650869b50848c106110905760405162461bcd60e51b8152600401808060200182810382526029815260200180612ff26029913960400191505060405180910390fd5b6110fc565b6110b787888d6001600160701b031603888d6001600160701b03160385612bcd565b86019550859b50838c106110fc5760405162461bcd60e51b8152600401808060200182810382526029815260200180612ff26029913960400191505060405180910390fd5b60008711801561110c5750600086115b6111475760405162461bcd60e51b8152600401808060200182810382526028815260200180612f416028913960400191505060405180910390fd5b6111513084612cb6565b8c1561116757611162898f8e6124a8565b611172565b611172888f8e6124a8565b604080516370a0823160e01b815230600482015290516001600160a01b038b16916370a08231916024808301926020929190829003018186803b1580156111b857600080fd5b505afa1580156111cc573d6000803e3d6000fd5b505050506040513d60208110156111e257600080fd5b5051604080516370a0823160e01b815230600482015290519196506001600160a01b038a16916370a0823191602480820192602092909190829003018186803b15801561122e57600080fd5b505afa158015611242573d6000803e3d6000fd5b505050506040513d602081101561125857600080fd5b5051935061126885858d8d6126ee565b60095461128e906001600160701b0380821691600160701b90041663ffffffff61263b16565b600c819055508d6001600160a01b0316336001600160a01b0316600080516020612fd28339815191528989604051808381526020018281526020019250505060405180910390a350506001600d5550979a9950505050505050505050565b60008051602061303b83398151915281565b601281565b60045481565b6000806000600d54600114611353576040805162461bcd60e51b81526020600482015260116024820152600080516020612f69833981519152604482015290519081900360640190fd5b6000600d819055546113965760405162461bcd60e51b8152600401808060200182810382526021815260200180612fb16021913960400191505060405180910390fd5b6000806113a1610c2f565b50600654604080516370a0823160e01b815230600482015290519395509193506000926001600160a01b03909116916370a08231916024808301926020929190829003018186803b1580156113f557600080fd5b505afa158015611409573d6000803e3d6000fd5b505050506040513d602081101561141f57600080fd5b5051600754604080516370a0823160e01b815230600482015290519293506000926001600160a01b03909216916370a0823191602480820192602092909190829003018186803b15801561147257600080fd5b505afa158015611486573d6000803e3d6000fd5b505050506040513d602081101561149c57600080fd5b505190506114b9826001600160701b03861663ffffffff61269e16565b95506114d4816001600160701b03851663ffffffff61269e16565b94506000600560009054906101000a90046001600160a01b03166001600160a01b03166398118cb46040518163ffffffff1660e01b815260040160206040518083038186803b15801561152657600080fd5b505afa15801561153a573d6000803e3d6000fd5b505050506040513d602081101561155057600080fd5b50519050600089156115f757600188116115ab576040805162461bcd60e51b815260206004820152601760248201527616940e88125b9cdd59999a58da595b9d08105b5bdd5b9d604a1b604482015290519081900360640190fd5b6115f06115eb846127106115c88c6002880483036000190161263b565b816115cf57fe5b6009546001600160701b0316919004019063ffffffff61263b16565b612d42565b905061168b565b60018711611646576040805162461bcd60e51b815260206004820152601760248201527616940e88125b9cdd59999a58da595b9d08105b5bdd5b9d604a1b604482015290519081900360640190fd5b6116886115eb6127106116628a6002870483036000190161263b565b8161166957fe5b6009548892909104600160701b9091046001600160701b03160161263b565b90505b6009546000906116b8906115eb906001600160701b0380821691600160701b90041663ffffffff61263b16565b905060006116d5600054610b3a848661269e90919063ffffffff16565b9050818082816116e157fe5b600980546001600160701b038a8116600160701b02600160701b600160e01b0319918d166001600160701b03199093169290921716179055049b506117268989612907565b60008c116117655760405162461bcd60e51b8152600401808060200182810382526028815260200180612f896028913960400191505060405180910390fd5b61176f8e8d612d94565b61177b87878b8b6126ee565b6009546117a1906001600160701b0380821691600160701b90041663ffffffff61263b16565b600c55604080518c8152602081018c905281513392600080516020612f00833981519152928290030190a25050505050505050506001600d819055509250925092565b6005546001600160a01b0316331461183c576040805162461bcd60e51b8152602060048201526016602482015275155b9a5cddd85c158c8e881393d517d0531313d5d15160521b604482015290519081900360640190fd5b600880546001600160a01b0319166001600160a01b0392909216919091179055565b600a5481565b600b5481565b6000600d546001146118b1576040805162461bcd60e51b81526020600482015260116024820152600080516020612f69833981519152604482015290519081900360640190fd5b6000600d819055806118c1610c2f565b50600654604080516370a0823160e01b815230600482015290519395509193506000926001600160a01b03909116916370a08231916024808301926020929190829003018186803b15801561191557600080fd5b505afa158015611929573d6000803e3d6000fd5b505050506040513d602081101561193f57600080fd5b5051600754604080516370a0823160e01b815230600482015290519293506000926001600160a01b03909216916370a0823191602480820192602092909190829003018186803b15801561199257600080fd5b505afa1580156119a6573d6000803e3d6000fd5b505050506040513d60208110156119bc57600080fd5b5051905060006119db836001600160701b03871663ffffffff61269e16565b905060006119f8836001600160701b03871663ffffffff61269e16565b9050611a048686612907565b60005480611a3957611a256103e8610af16115eb868663ffffffff61263b16565b9750611a3460006103e8612d94565b611a88565b611a856001600160701b038816611a56858463ffffffff61263b16565b81611a5d57fe5b046001600160701b038816611a78858563ffffffff61263b16565b81611a7f57fe5b04612e18565b97505b60008811611ac75760405162461bcd60e51b8152600401808060200182810382526028815260200180612f896028913960400191505060405180910390fd5b611ad18989612d94565b611add858589896126ee565b600954611b03906001600160701b0380821691600160701b90041663ffffffff61263b16565b600c55604080518481526020810184905281513392600080516020612f00833981519152928290030190a250506001600d55509395945050505050565b6008546001600160a01b031681565b60016020526000908152604090205481565b600c5481565b60036020526000908152604090205481565b600080600d54600114611bc1576040805162461bcd60e51b81526020600482015260116024820152600080516020612f69833981519152604482015290519081900360640190fd5b6000600d81905580611bd1610c2f565b50600654600754604080516370a0823160e01b815230600482015290519496509294506001600160a01b039182169391169160009184916370a08231916024808301926020929190829003018186803b158015611c2d57600080fd5b505afa158015611c41573d6000803e3d6000fd5b505050506040513d6020811015611c5757600080fd5b5051604080516370a0823160e01b815230600482015290519192506000916001600160a01b038516916370a08231916024808301926020929190829003018186803b158015611ca557600080fd5b505afa158015611cb9573d6000803e3d6000fd5b505050506040513d6020811015611ccf57600080fd5b505130600090815260016020526040902054909150611cee8787612907565b60005480611d02838663ffffffff61263b16565b81611d0957fe5b04995080611d1d838563ffffffff61263b16565b81611d2457fe5b04985060008a118015611d375750600089115b611d725760405162461bcd60e51b8152600401808060200182810382526028815260200180612f416028913960400191505060405180910390fd5b611d7c3083612cb6565b611d87868c8c6124a8565b611d92858c8b6124a8565b604080516370a0823160e01b815230600482015290516001600160a01b038816916370a08231916024808301926020929190829003018186803b158015611dd857600080fd5b505afa158015611dec573d6000803e3d6000fd5b505050506040513d6020811015611e0257600080fd5b5051604080516370a0823160e01b815230600482015290519195506001600160a01b038716916370a0823191602480820192602092909190829003018186803b158015611e4e57600080fd5b505afa158015611e62573d6000803e3d6000fd5b505050506040513d6020811015611e7857600080fd5b50519250611e8884848a8a6126ee565b600954611eae906001600160701b0380821691600160701b90041663ffffffff61263b16565b600c55604080518b8152602081018b905281516001600160a01b038e16923392600080516020612fd2833981519152929081900390910190a350505050505050506001600d81905550915091565b6040518060400160405280600381526020016216941560ea1b81525081565b6000610c66338484612b25565b6103e881565b600d54600114611f73576040805162461bcd60e51b81526020600482015260116024820152600080516020612f69833981519152604482015290519081900360640190fd5b6000600d55600654600754600954604080516370a0823160e01b815230600482015290516001600160a01b039485169490931692612022928592879261201d926001600160701b03169185916370a0823191602480820192602092909190829003018186803b158015611fe557600080fd5b505afa158015611ff9573d6000803e3d6000fd5b505050506040513d602081101561200f57600080fd5b50519063ffffffff61269e16565b6124a8565b600954604080516370a0823160e01b81523060048201529051612089928492879261201d92600160701b90046001600160701b0316916001600160a01b038616916370a0823191602480820192602092909190829003018186803b158015611fe557600080fd5b50506001600d5550565b6005546001600160a01b031633146120ea576040805162461bcd60e51b81526020600482015260156024820152742d34b931b7b72830b4b91d102327a92124a22222a760591b604482015290519081900360640190fd5b600680546001600160a01b039485166001600160a01b031991821617909155600780549385169382169390931790925560088054919093169116179055565b6005546001600160a01b031681565b6007546001600160a01b031681565b42841015612191576040805162461bcd60e51b8152602060048201526012602482015271155b9a5cddd85c158c8e881156141254915160721b604482015290519081900360640190fd5b6004546001600160a01b03808916600081815260036020908152604080832080546001808201909255825160008051602061303b8339815191528186015280840196909652958d166060860152608085018c905260a085019590955260c08085018b90528151808603909101815260e08501825280519083012061190160f01b6101008601526101028501969096526101228085019690965280518085039096018652610142840180825286519683019690962095839052610162840180825286905260ff89166101828501526101a284018890526101c28401879052519193926101e280820193601f1981019281900390910190855afa15801561229a573d6000803e3d6000fd5b5050604051601f1901519150506001600160a01b038116158015906122d05750886001600160a01b0316816001600160a01b0316145b612320576040805162461bcd60e51b815260206004820152601c60248201527b556e697377617056323a20494e56414c49445f5349474e415455524560201b604482015290519081900360640190fd5b61232b8989896128a5565b505050505050505050565b600260209081526000928352604080842090915290825290205481565b600d54600114612398576040805162461bcd60e51b81526020600482015260116024820152600080516020612f69833981519152604482015290519081900360640190fd5b6000600d55600654604080516370a0823160e01b81523060048201529051610cc4926001600160a01b0316916370a08231916024808301926020929190829003018186803b1580156123e957600080fd5b505afa1580156123fd573d6000803e3d6000fd5b505050506040513d602081101561241357600080fd5b5051600754604080516370a0823160e01b815230600482015290516001600160a01b03909216916370a0823191602480820192602092909190829003018186803b15801561246057600080fd5b505afa158015612474573d6000803e3d6000fd5b505050506040513d602081101561248a57600080fd5b50516009546001600160701b0380821691600160701b9004166126ee565b60408051808201825260198152787472616e7366657228616464726573732c75696e743235362960381b60209182015281516001600160a01b0385811660248301526044808301869052845180840390910181526064909201845291810180516001600160e01b031663a9059cbb60e01b1781529251815160009460609489169392918291908083835b602083106125515780518252601f199092019160209182019101612532565b6001836020036101000a0380198251168184511680821785525050505050509050019150506000604051808303816000865af19150503d80600081146125b3576040519150601f19603f3d011682016040523d82523d6000602084013e6125b8565b606091505b50915091508180156125e65750805115806125e657508080602001905160208110156125e357600080fd5b50515b612634576040805162461bcd60e51b815260206004820152601a602482015279155b9a5cddd85c158c8e881514905394d1915497d1905253115160321b604482015290519081900360640190fd5b5050505050565b60008115806126565750508082028282828161265357fe5b04145b610c6a576040805162461bcd60e51b815260206004820152601460248201527364732d6d6174682d6d756c2d6f766572666c6f7760601b604482015290519081900360640190fd5b80820382811115610c6a576040805162461bcd60e51b815260206004820152601560248201527464732d6d6174682d7375622d756e646572666c6f7760581b604482015290519081900360640190fd5b6001600160701b03841180159061270c57506001600160701b038311155b612753576040805162461bcd60e51b8152602060048201526013602482015272556e697377617056323a204f564552464c4f5760681b604482015290519081900360640190fd5b60095463ffffffff42811691600160e01b9004811682039081161580159061278357506001600160701b03841615155b801561279757506001600160701b03831615155b15612808578063ffffffff166127c5856127b086612e30565b6001600160e01b03169063ffffffff612e4216565b600a80546001600160e01b03929092169290920201905563ffffffff81166127f0846127b087612e30565b600b80546001600160e01b0392909216929092020190555b600980546001600160701b0319166001600160701b0388811691909117600160701b600160e01b031916600160701b8883168102919091176001600160e01b0316600160e01b63ffffffff871602179283905560408051848416815291909304909116602082015281517f1c411e9a96e071241c2f21f7726b17ae89e3cab4c78be50e062b03a9fffbbad1929181900390910190a1505050505050565b6001600160a01b03808416600081815260026020908152604080832094871680845294825291829020859055815185815291517f8c5be1e5ebec7d5bd14f71427d1e84f3dd0314c0f7b2291e5b200ac8c7c3b9259281900390910190a3505050565b600c548015612b205760006129316115eb6001600160701b0386811690861663ffffffff61263b16565b9050600061293e83612d42565b9050808211156126345760055460408051637ac9059160e11b815290516000926001600160a01b03169163f5920b22916004808301926020929190829003018186803b15801561298d57600080fd5b505afa1580156129a1573d6000803e3d6000fd5b505050506040513d60208110156129b757600080fd5b5051905060006129d9670de0b6b3a7640000610b3a868663ffffffff61269e16565b905060006129fd846129f1878663ffffffff61263b16565b9063ffffffff612e6716565b90506000818381612a0a57fe5b049050801561232b57600854600054612a4f916001600160a01b031690670de0b6b3a764000090612a4290859063ffffffff61263b16565b81612a4957fe5b04612d94565b600854600054612a7e916001600160a01b031690670de0b6b3a764000090612a4290859063ffffffff61263b16565b600085612a9d670de0b6b3a7640000610b3a8a8463ffffffff61269e16565b81612aa457fe5b60085491900491506001600160a01b031663b9d92de8612aca838563ffffffff61269e16565b6040518263ffffffff1660e01b815260040180828152602001915050600060405180830381600087803b158015612b0057600080fd5b505af1158015612b14573d6000803e3d6000fd5b50505050505050505050505b505050565b6001600160a01b038316600090815260016020526040902054612b4e908263ffffffff61269e16565b6001600160a01b038085166000908152600160205260408082209390935590841681522054612b83908263ffffffff612e6716565b6001600160a01b03808416600081815260016020908152604091829020949094558051858152905191939287169260008051602061301b83398151915292918290030190a3505050565b6000808511612c0e576040805162461bcd60e51b81526020600482015260086024820152675556323a2049494160c01b604482015290519081900360640190fd5b600084118015612c1e5750600083115b612c59576040805162461bcd60e51b815260206004820152600760248201526615558c8e88125360ca1b604482015290519081900360640190fd5b6000612c708661271085900363ffffffff61263b16565b90506000612c84828663ffffffff61263b16565b90506000612c9e836129f18961271063ffffffff61263b16565b9050808281612ca957fe5b0498975050505050505050565b6001600160a01b038216600090815260016020526040902054612cdf908263ffffffff61269e16565b6001600160a01b03831660009081526001602052604081209190915554612d0c908263ffffffff61269e16565b60009081556040805183815290516001600160a01b0385169160008051602061301b833981519152919081900360200190a35050565b60006003821115612d85575080600160028204015b81811015612d7f57809150600281828581612d6e57fe5b040181612d7757fe5b049050612d57565b50612d8f565b8115612d8f575060015b919050565b600054612da7908263ffffffff612e6716565b60009081556001600160a01b038316815260016020526040902054612dd2908263ffffffff612e6716565b6001600160a01b038316600081815260016020908152604080832094909455835185815293519293919260008051602061301b8339815191529281900390910190a35050565b6000818310612e275781612e29565b825b9392505050565b6001600160701b0316600160701b0290565b60006001600160701b0382166001600160e01b03841681612e5f57fe5b049392505050565b80820182811015610c6a576040805162461bcd60e51b815260206004820152601460248201527364732d6d6174682d6164642d6f766572666c6f7760601b604482015290519081900360640190fdfe556e697377617056323a20494e53554646494349454e545f4f55545055545f414d4f554e54556e697377617056323a20494e53554646494349454e545f494e5055545f414d4f554e544c209b5fc8ad50758f13e2e1088ba56a560dff690a1c6fef26394f4c03821c4f556e697377617056323a20494e53554646494349454e545f4c4951554944495459556e697377617056323a20494e53554646494349454e545f4c49515549444954595f4255524e4544556e697377617056323a204c4f434b4544000000000000000000000000000000556e697377617056323a20494e53554646494349454e545f4c49515549444954595f4d494e544544556e697377617056323a20557365206d696e7420746f2073746172742070616972dccd412f0b1252819cb1fd330b93224ca42612892bb3f4f789976e6d81936496556e697377617056323a20455854454e53494f4e5f4e4f545f454e4f5547485f4c4951554944495459ddf252ad1be2c89b69c2b068fc378daa952ba7f163c4a11628f55a4df523b3ef6e71edae12b1b97f4d1f60370fef10105fa2faae0126114a169c64845d6126c9a265627a7a7231582029b8c9883b37d2bebc22170f170e590689694e5712a33626f65c1264b7927e9964736f6c63430005100032454950373132446f6d61696e28737472696e67206e616d652c737472696e672076657273696f6e2c75696e7432353620636861696e49642c6164647265737320766572696679696e67436f6e747261637429",
  "linkReferences": {},
  "deployedLinkReferences": {}
}