{
  "_format": "hh-sol-artifact-1",
  "contractName": "ZirconPylon",
  "sourceName": "contracts/ZirconPylon.sol",
  "abi": [
    {
      "inputs": [],
      "payable": false,
      "stateMutability": "nonpayable",
      "type": "constructor"
    },
    {
      "anonymous": false,
      "inputs": [
        {
          "indexed": false,
          "internalType": "address",
          "name": "sender",
          "type": "address"
        },
        {
          "indexed": false,
          "internalType": "uint256",
          "name": "aIn0",
          "type": "uint256"
        },
        {
          "indexed": false,
          "internalType": "bool",
          "name": "isAnchor",
          "type": "bool"
        }
      ],
      "name": "Burn",
      "type": "event"
    },
    {
      "anonymous": false,
      "inputs": [
        {
          "indexed": false,
          "internalType": "address",
          "name": "sender",
          "type": "address"
        },
        {
          "indexed": false,
          "internalType": "uint256",
          "name": "aIn0",
          "type": "uint256"
        },
        {
          "indexed": false,
          "internalType": "uint256",
          "name": "aIn1",
          "type": "uint256"
        }
      ],
      "name": "BurnAsync",
      "type": "event"
    },
    {
      "anonymous": false,
      "inputs": [
        {
          "indexed": false,
          "internalType": "address",
          "name": "sender",
          "type": "address"
        },
        {
          "indexed": false,
          "internalType": "uint256",
          "name": "aIn0",
          "type": "uint256"
        },
        {
          "indexed": false,
          "internalType": "uint256",
          "name": "aIn1",
          "type": "uint256"
        }
      ],
      "name": "MintAsync",
      "type": "event"
    },
    {
      "anonymous": false,
      "inputs": [
        {
          "indexed": false,
          "internalType": "address",
          "name": "sender",
          "type": "address"
        },
        {
          "indexed": false,
          "internalType": "uint256",
          "name": "aIn0",
          "type": "uint256"
        },
        {
          "indexed": false,
          "internalType": "bool",
          "name": "isAnchor",
          "type": "bool"
        }
      ],
      "name": "MintSync",
      "type": "event"
    },
    {
      "anonymous": false,
      "inputs": [
        {
          "indexed": false,
          "internalType": "uint256",
          "name": "_vab",
          "type": "uint256"
        },
        {
          "indexed": false,
          "internalType": "uint256",
          "name": "_vfb",
          "type": "uint256"
        },
        {
          "indexed": false,
          "internalType": "uint256",
          "name": "_gamma",
          "type": "uint256"
        }
      ],
      "name": "PylonSync",
      "type": "event"
    },
    {
      "anonymous": false,
      "inputs": [
        {
          "indexed": false,
          "internalType": "uint256",
          "name": "_reserve0",
          "type": "uint256"
        },
        {
          "indexed": false,
          "internalType": "uint256",
          "name": "_reserve1",
          "type": "uint256"
        }
      ],
      "name": "PylonUpdate",
      "type": "event"
    },
    {
      "constant": true,
      "inputs": [],
      "name": "EMABlockNumber",
      "outputs": [
        {
          "internalType": "uint256",
          "name": "",
          "type": "uint256"
        }
      ],
      "payable": false,
      "stateMutability": "view",
      "type": "function"
    },
    {
      "constant": true,
      "inputs": [],
      "name": "anchorKFactor",
      "outputs": [
        {
          "internalType": "uint256",
          "name": "",
          "type": "uint256"
        }
      ],
      "payable": false,
      "stateMutability": "view",
      "type": "function"
    },
    {
      "constant": false,
      "inputs": [
        {
          "internalType": "address",
          "name": "_to",
          "type": "address"
        },
        {
          "internalType": "bool",
          "name": "_isAnchor",
          "type": "bool"
        }
      ],
      "name": "burn",
      "outputs": [
        {
          "internalType": "uint256",
          "name": "amount",
          "type": "uint256"
        }
      ],
      "payable": false,
      "stateMutability": "nonpayable",
      "type": "function"
    },
    {
      "constant": false,
      "inputs": [
        {
          "internalType": "address",
          "name": "_to",
          "type": "address"
        },
        {
          "internalType": "bool",
          "name": "_isAnchor",
          "type": "bool"
        }
      ],
      "name": "burnAsync",
      "outputs": [
        {
          "internalType": "uint256",
          "name": "amount0",
          "type": "uint256"
        },
        {
          "internalType": "uint256",
          "name": "amount1",
          "type": "uint256"
        }
      ],
      "payable": false,
      "stateMutability": "nonpayable",
      "type": "function"
    },
    {
      "constant": false,
      "inputs": [
        {
          "internalType": "address",
          "name": "_energyAddress",
          "type": "address"
        },
        {
          "internalType": "address",
          "name": "_energyRevAddress",
          "type": "address"
        }
      ],
      "name": "changeEnergyAddress",
      "outputs": [],
      "payable": false,
      "stateMutability": "nonpayable",
      "type": "function"
    },
    {
      "constant": true,
      "inputs": [],
      "name": "formulaSwitch",
      "outputs": [
        {
          "internalType": "bool",
          "name": "",
          "type": "bool"
        }
      ],
      "payable": false,
      "stateMutability": "view",
      "type": "function"
    },
    {
      "constant": true,
      "inputs": [],
      "name": "gammaEMA",
      "outputs": [
        {
          "internalType": "uint256",
          "name": "",
          "type": "uint256"
        }
      ],
      "payable": false,
      "stateMutability": "view",
      "type": "function"
    },
    {
      "constant": true,
      "inputs": [],
      "name": "gammaMulDecimals",
      "outputs": [
        {
          "internalType": "uint256",
          "name": "",
          "type": "uint256"
        }
      ],
      "payable": false,
      "stateMutability": "view",
      "type": "function"
    },
    {
      "constant": true,
      "inputs": [],
      "name": "getSyncReserves",
      "outputs": [
        {
          "internalType": "uint112",
          "name": "_reserve0",
          "type": "uint112"
        },
        {
          "internalType": "uint112",
          "name": "_reserve1",
          "type": "uint112"
        }
      ],
      "payable": false,
      "stateMutability": "view",
      "type": "function"
    },
    {
      "constant": false,
      "inputs": [
        {
          "internalType": "uint256",
          "name": "_gamma",
          "type": "uint256"
        },
        {
          "internalType": "uint256",
          "name": "_vab",
          "type": "uint256"
        },
        {
          "internalType": "uint256",
          "name": "_anchorKFactor",
          "type": "uint256"
        },
        {
          "internalType": "bool",
          "name": "_formulaSwitch",
          "type": "bool"
        }
      ],
      "name": "initMigratedPylon",
      "outputs": [],
      "payable": false,
      "stateMutability": "nonpayable",
      "type": "function"
    },
    {
      "constant": false,
      "inputs": [
        {
          "internalType": "address",
          "name": "_to",
          "type": "address"
        }
      ],
      "name": "initPylon",
      "outputs": [
        {
          "internalType": "uint256",
          "name": "floatLiquidity",
          "type": "uint256"
        },
        {
          "internalType": "uint256",
          "name": "anchorLiquidity",
          "type": "uint256"
        }
      ],
      "payable": false,
      "stateMutability": "nonpayable",
      "type": "function"
    },
    {
      "constant": false,
      "inputs": [
        {
          "internalType": "address",
          "name": "_floatPoolTokenAddress",
          "type": "address"
        },
        {
          "internalType": "address",
          "name": "_anchorPoolTokenAddress",
          "type": "address"
        },
        {
          "internalType": "address",
          "name": "_floatToken",
          "type": "address"
        },
        {
          "internalType": "address",
          "name": "_anchorToken",
          "type": "address"
        },
        {
          "internalType": "address",
          "name": "_pairAddress",
          "type": "address"
        },
        {
          "internalType": "address",
          "name": "_pairFactoryAddress",
          "type": "address"
        },
        {
          "internalType": "address",
          "name": "_energy",
          "type": "address"
        },
        {
          "internalType": "address",
          "name": "_energyRev",
          "type": "address"
        }
      ],
      "name": "initialize",
      "outputs": [],
      "payable": false,
      "stateMutability": "nonpayable",
      "type": "function"
    },
    {
      "constant": true,
      "inputs": [],
      "name": "initialized",
      "outputs": [
        {
          "internalType": "uint256",
          "name": "",
          "type": "uint256"
        }
      ],
      "payable": false,
      "stateMutability": "view",
      "type": "function"
    },
    {
      "constant": true,
      "inputs": [],
      "name": "isFloatReserve0",
      "outputs": [
        {
          "internalType": "bool",
          "name": "",
          "type": "bool"
        }
      ],
      "payable": false,
      "stateMutability": "view",
      "type": "function"
    },
    {
      "constant": true,
      "inputs": [],
      "name": "lastRootKTranslated",
      "outputs": [
        {
          "internalType": "uint256",
          "name": "",
          "type": "uint256"
        }
      ],
      "payable": false,
      "stateMutability": "view",
      "type": "function"
    },
    {
      "constant": false,
      "inputs": [
        {
          "internalType": "address",
          "name": "newPylon",
          "type": "address"
        }
      ],
      "name": "migrateLiquidity",
      "outputs": [],
      "payable": false,
      "stateMutability": "nonpayable",
      "type": "function"
    },
    {
      "constant": false,
      "inputs": [
        {
          "internalType": "address",
          "name": "to",
          "type": "address"
        },
        {
          "internalType": "bool",
          "name": "shouldMintAnchor",
          "type": "bool"
        }
      ],
      "name": "mintAsync",
      "outputs": [
        {
          "internalType": "uint256",
          "name": "liquidity",
          "type": "uint256"
        }
      ],
      "payable": false,
      "stateMutability": "nonpayable",
      "type": "function"
    },
    {
      "constant": false,
      "inputs": [
        {
          "internalType": "address",
          "name": "_to",
          "type": "address"
        },
        {
          "internalType": "bool",
          "name": "isAnchor",
          "type": "bool"
        }
      ],
      "name": "mintPoolTokens",
      "outputs": [
        {
          "internalType": "uint256",
          "name": "liquidity",
          "type": "uint256"
        }
      ],
      "payable": false,
      "stateMutability": "nonpayable",
      "type": "function"
    },
    {
      "constant": true,
      "inputs": [],
      "name": "muMulDecimals",
      "outputs": [
        {
          "internalType": "uint256",
          "name": "",
          "type": "uint256"
        }
      ],
      "payable": false,
      "stateMutability": "view",
      "type": "function"
    },
    {
      "constant": true,
      "inputs": [],
      "name": "strikeBlock",
      "outputs": [
        {
          "internalType": "uint256",
          "name": "",
          "type": "uint256"
        }
      ],
      "payable": false,
      "stateMutability": "view",
      "type": "function"
    },
    {
      "constant": true,
      "inputs": [],
      "name": "thisBlockEMA",
      "outputs": [
        {
          "internalType": "uint256",
          "name": "",
          "type": "uint256"
        }
      ],
      "payable": false,
      "stateMutability": "view",
      "type": "function"
    },
    {
      "constant": true,
      "inputs": [],
      "name": "virtualAnchorBalance",
      "outputs": [
        {
          "internalType": "uint256",
          "name": "",
          "type": "uint256"
        }
      ],
      "payable": false,
      "stateMutability": "view",
      "type": "function"
    }
  ],
  "bytecode": "0x6080604052600060175534801561001557600080fd5b506000805460ff19166001179055600480546001600160a01b03191633179055614fd5806100446000396000f3fe608060405234801561001057600080fd5b50600436106101125760003560e01c80630a22d5f314610117578063158ef93e14610145578063192b65d81461015f5780633339dc1a1461016757806333cdde4e1461016f578063438ab5ac1461019d5780634a00d16a146101c55780638a29e2de146101cd5780638aa961491461022c5780638d470e221461025a5780638ffa32361461028857806397ed64db146102a4578063a01de3aa146102ac578063a9f0e58f146102b4578063af0dda2a146102bc578063b7073003146102ed578063ba7b3dea146102f5578063c561cf4f14610323578063c9bd59a01461036a578063efefd9f914610372578063f29401c41461037a578063fef93492146103a0575b600080fd5b61011f6103a8565b604080516001600160701b03938416815291909216602082015281519081900390910190f35b61014d6103c3565b60408051918252519081900360200190f35b61014d6103c9565b61014d6103cf565b61014d6004803603604081101561018557600080fd5b506001600160a01b03813516906020013515156103d5565b6101c3600480360360208110156101b357600080fd5b50356001600160a01b0316610a50565b005b61014d610b7c565b6101c360048036036101008110156101e457600080fd5b506001600160a01b038135811691602081013582169160408201358116916060810135821691608082013581169160a081013582169160c082013581169160e0013516610b82565b6101c36004803603604081101561024257600080fd5b506001600160a01b0381358116916020013516610d17565b61014d6004803603604081101561027057600080fd5b506001600160a01b0381351690602001351515610d4d565b6102906111a7565b604080519115158252519081900360200190f35b61014d6111b7565b6102906111bd565b61014d6111c6565b6101c3600480360360808110156102d257600080fd5b508035906020810135906040810135906060013515156111cc565b61014d61121b565b61014d6004803603604081101561030b57600080fd5b506001600160a01b0381351690602001351515611221565b6103516004803603604081101561033957600080fd5b506001600160a01b0381351690602001351515611784565b6040805192835260208301919091528051918290030190f35b61014d611d1e565b61014d611d24565b6103516004803603602081101561039057600080fd5b50356001600160a01b0316611d2a565b61014d612290565b6016546001600160701b0380821692600160701b9092041690565b60175481565b600a5481565b60105481565b6000805460ff1661041b576040805162461bcd60e51b815260206004820152601f6024820152600080516020614f5c833981519152604482015290519081900360640190fd5b6000805460ff1916905561042d612296565b61043561234f565b60008261044d576006546001600160a01b031661045a565b6007546001600160a01b03165b90506000806104676103a8565b600154604080516370a0823160e01b815230600482015290519395509193506000928392839283926001600160a01b03909116916370a08231916024808301926020929190829003018186803b1580156104c057600080fd5b505afa1580156104d4573d6000803e3d6000fd5b505050506040513d60208110156104ea57600080fd5b5051600254604080516370a0823160e01b815230600482015290519293506000926001600160a01b03909216916370a0823191602480820192602092909190829003018186803b15801561053d57600080fd5b505afa158015610551573d6000803e3d6000fd5b505050506040513d602081101561056757600080fd5b50519050610584826001600160701b03891663ffffffff61276316565b945061059f816001600160701b03881663ffffffff61276316565b935060006105ab6127b9565b90506105b9868260006129df565b95506105c7858260016129df565b94506000806105d7600080612c6b565b915091508c61062657610623670de0b6b3a7640000610604600e5460020285612de490919063ffffffff16565b8161060b57fe5b6001600160701b038d1691900463ffffffff612e4716565b95505b60008d610675576106708261065260026106468c8863ffffffff612de416565b9063ffffffff612de416565b8161065957fe5b0461066b8b600263ffffffff612de416565b612e96565b6106a7565b6106a78361068e60026106468d8763ffffffff612de416565b8161069557fe5b0461066b8a600263ffffffff612de416565b90508d15610782576106eb600b60009054906101000a900460ff1682600c546106e48e6001600160701b0316600a5461276390919063ffffffff16565b8787612eac565b600c8190555060008c6001600160a01b03166318160ddd6040518163ffffffff1660e01b815260040160206040518083038186803b15801561072c57600080fd5b505afa158015610740573d6000803e3d6000fd5b505050506040513d602081101561075657600080fd5b5051600a5490915061076e838363ffffffff612de416565b8161077557fe5b600a805485019055049d50505b505050505050610791836130e4565b61079a826130e4565b6001546003546107b7916001600160a01b03908116911685613122565b6002546003546107d4916001600160a01b03908116911684613122565b600354604080516335313c2160e11b815230600482015290516001600160a01b0390921691636a627842916024808201926020929091908290030181600087803b15801561082157600080fd5b505af1158015610835573d6000803e3d6000fd5b505050506040513d602081101561084b57600080fd5b50600090506108586132a0565b5090508861097c57600061086d600080612c6b565b509050600061087a6103a8565b5090506000896001600160a01b03166318160ddd6040518163ffffffff1660e01b815260040160206040518083038186803b1580156108b857600080fd5b505afa1580156108cc573d6000803e3d6000fd5b505050506040513d60208110156108e257600080fd5b505190506000610926670de0b6b3a7640000610907866002890263ffffffff612de416565b8161090e57fe5b6001600160701b03861691900463ffffffff612e4716565b9050670de0b6b3a764000061096d610960670de0b6b3a76400008985670de0b6b3a7640000028161095357fe5b049063ffffffff61276316565b849063ffffffff612de416565b8161097457fe5b049b50505050505b866001600160a01b03166340c10f198b8a6040518363ffffffff1660e01b815260040180836001600160a01b03166001600160a01b0316815260200182815260200192505050600060405180830381600087803b1580156109dc57600080fd5b505af11580156109f0573d6000803e3d6000fd5b5050604080513381526020810188905280820187905290517f9a36e9f82fd3ab4ec26a87598c0f7f4519b7895fa6a0bca1968b486ee019b0829350908190036060019150a150506000805460ff1916600117905550939695505050505050565b610a58613556565b600354604080516370a0823160e01b81523060048201529051610ad9926001600160a01b031691849183916370a08231916024808301926020929190829003018186803b158015610aa857600080fd5b505afa158015610abc573d6000803e3d6000fd5b505050506040513d6020811015610ad257600080fd5b5051613122565b600254604080516370a0823160e01b81523060048201529051610b29926001600160a01b031691849183916370a08231916024808301926020929190829003018186803b158015610aa857600080fd5b600154604080516370a0823160e01b81523060048201529051610b79926001600160a01b031691849183916370a08231916024808301926020929190829003018186803b158015610aa857600080fd5b50565b600d5481565b60005460ff16610bc7576040805162461bcd60e51b815260206004820152601f6024820152600080516020614f5c833981519152604482015290519081900360640190fd5b6000805460ff19169055610bd9613556565b600680546001600160a01b03808b166001600160a01b031992831617909255600780548a84169083161790556003805487841692168217905560408051630dfe168160e01b8152905192891692630dfe168191600481810192602092909190829003018186803b158015610c4c57600080fd5b505afa158015610c60573d6000803e3d6000fd5b505050506040513d6020811015610c7657600080fd5b505160098054604080518082019091526001600160a01b039a8b16808252998b166020909101819052600180546001600160a01b0319908116909b178155600280548c16909217909155600580548b16988c1698909817909755600880548a16968b169690961790955560ff60a01b1990941690881691909114600160a01b021790941693909416929092179092556000805460ff19169091179055505050565b610d1f613556565b600880546001600160a01b039384166001600160a01b03199182161790915560098054929093169116179055565b6000805460ff16610d93576040805162461bcd60e51b815260206004820152601f6024820152600080516020614f5c833981519152604482015290519081900360640190fd5b6000805460ff19169055610da5612296565b610dad61234f565b600080610db86103a8565b915091506000610e8785610dcc5783610dce565b825b6001600160701b031686610ded576001546001600160a01b0316610dfa565b6002546001600160a01b03165b6001600160a01b03166370a08231306040518263ffffffff1660e01b815260040180826001600160a01b03166001600160a01b0316815260200191505060206040518083038186803b158015610e4f57600080fd5b505afa158015610e63573d6000803e3d6000fd5b505050506040513d6020811015610e7957600080fd5b50519063ffffffff61276316565b9050610e92816130e4565b610ea481610e9e6127b9565b876129df565b9050600080610eb4600080612c6b565b91509150600087610f0557610f02670de0b6b3a7640000610ee3600e5460020286612de490919063ffffffff16565b81610eea57fe5b6001600160701b03891691900463ffffffff612e4716565b90505b600088610f1d576006546001600160a01b0316610f2a565b6007546001600160a01b03165b6001600160a01b03166318160ddd6040518163ffffffff1660e01b815260040160206040518083038186803b158015610f6257600080fd5b505afa158015610f76573d6000803e3d6000fd5b505050506040513d6020811015610f8c57600080fd5b505190506000610fbf868b610fa15786610fa3565b855b8c610fae578a610fb0565b895b6001600160701b03168d61359e565b90508915610fed57600a54610fda828463ffffffff612de416565b81610fe157fe5b600a8054840190550498505b6000610ff76132a0565b5090508a6110f05760008761101a84670de0b6b3a764000063ffffffff612de416565b8161102157fe5b0490506000611031600080612c6b565b509050600061103e6103a8565b5090506000611081670de0b6b3a7640000611062856002890263ffffffff612de416565b8161106957fe5b6001600160701b03851691900463ffffffff612e4716565b90506000670de0b6b3a76400006110bd6110b0670de0b6b3a76400008c86670de0b6b3a7640000028161095357fe5b8a9063ffffffff612de416565b816110c457fe5b049050670de0b6b3a76400006110e0828763ffffffff612de416565b816110e757fe5b049e5050505050505b8a611106576006546001600160a01b0316611113565b6007546001600160a01b03165b6001600160a01b03166340c10f198d8c6040518363ffffffff1660e01b815260040180836001600160a01b03166001600160a01b0316815260200182815260200192505050600060405180830381600087803b15801561117257600080fd5b505af1158015611186573d6000803e3d6000fd5b50506000805460ff1916600117905550999c9b505050505050505050505050565b600954600160a01b900460ff1681565b600e5481565b600b5460ff1681565b600c5481565b6111d4613556565b600e849055600a839055600c829055600b805460ff1916821515179055600f84905543601455601584905582156112105761120d6132a0565b50505b505060016017555050565b60115481565b6000805460ff16611267576040805162461bcd60e51b815260206004820152601f6024820152600080516020614f5c833981519152604482015290519081900360640190fd5b6000805460ff19169055611279612296565b61128161234f565b600082611299576006546001600160a01b03166112a6565b6007546001600160a01b03165b604080516370a0823160e01b815230600482015290519192506000916001600160a01b038416916370a08231916024808301926020929190829003018186803b1580156112f257600080fd5b505afa158015611306573d6000803e3d6000fd5b505050506040513d602081101561131c57600080fd5b50519050611329816130e4565b6000826001600160a01b03166318160ddd6040518163ffffffff1660e01b815260040160206040518083038186803b15801561136457600080fd5b505afa158015611378573d6000803e3d6000fd5b505050506040513d602081101561138e57600080fd5b5051600354909150869086906001600160a01b03166000806113b18487896136e0565b9150915060006113bf6127b9565b905060006113ef6127106113d9858563ffffffff612de416565b816113e057fe5b8591900463ffffffff61276316565b905061141e8661140a576001546001600160a01b0316611417565b6002546001600160a01b03165b8883613122565b888410156116835760006114388a8663ffffffff61276316565b9050600061144788838c6137bd565b90506000611477612710611461848863ffffffff612de416565b8161146857fe5b8491900463ffffffff61276316565b9050600089156115705761148a826139c8565b90925090508b600061149a6103a8565b6001600160701b031691505060006114b3600080612c6b565b600b54600a54919350611569925060ff169085908a02816114d057fe5b600354604080516370a0823160e01b8152306004820152905193909204928a926001600160a01b03909216916370a08231916024808301926020929190829003018186803b15801561152157600080fd5b505afa158015611535573d6000803e3d6000fd5b505050506040513d602081101561154b57600080fd5b5051600c54600a54611563908963ffffffff61276316565b87613ba8565b600c555050505b61157b87878c6129df565b50611587898a84613122565b600954604080516302ce510960e41b81526001600160a01b038e8116600483015260ff600160a01b9094049390931615158d15151415602482015290516000928c1691632ce5109091604480830192602092919082900301818787803b1580156115f057600080fd5b505af1158015611604573d6000803e3d6000fd5b505050506040513d602081101561161a57600080fd5b5051600954968101969091506116729060ff600160a01b9091041615158c15151415611647576000611649565b815b60095460ff600160a01b9091041615158d15151415611668578261166b565b60005b848f613d40565b61167c8488613f73565b5050505050505b60408051632770a7eb60e21b8152306004820152602481018b905290516001600160a01b038c1691639dc29fac91604480830192600092919082900301818387803b1580156116d157600080fd5b505af11580156116e5573d6000803e3d6000fd5b50505050809a5050505050505050841561172357600a54819061170e908463ffffffff612de416565b8161171557fe5b600a80549290910490910390555b61172b6132a0565b505060408051338152602081018690528615158183015290517f5cf7281eb36e25a92ffd0cff3089777ca0cb41d28e8c7158c234b1eae9a07ed29181900360600190a150506000805460ff191660011790555092915050565b60008054819060ff166117cc576040805162461bcd60e51b815260206004820152601f6024820152600080516020614f5c833981519152604482015290519081900360640190fd5b6000805460ff191690556117de612296565b6117e661234f565b6000836117fe576006546001600160a01b031661180b565b6007546001600160a01b03165b604080516370a0823160e01b815230600482015290519192506000916001600160a01b038416916370a08231916024808301926020929190829003018186803b15801561185757600080fd5b505afa15801561186b573d6000803e3d6000fd5b505050506040513d602081101561188157600080fd5b5051905061188e816130e4565b6000826001600160a01b03166318160ddd6040518163ffffffff1660e01b815260040160206040518083038186803b1580156118c957600080fd5b505afa1580156118dd573d6000803e3d6000fd5b505050506040513d60208110156118f357600080fd5b505190506000806119026127b9565b905060006119118986866137bd565b905060008061191e6103a8565b6001600160701b031691506001600160701b03169150600080611942600080612c6b565b9150915060008d6119a75761198885670de0b6b3a7640000611974600e54610646600289612de490919063ffffffff16565b8161197b57fe5b049063ffffffff612e4716565b6119988a8763ffffffff612de416565b8161199f57fe5b0489036119c5565b600a546119ba8a8663ffffffff612de416565b816119c157fe5b0489035b9050808a10611a04576040805162461bcd60e51b815260206004808301919091526024820152635a3a204560e01b604482015290519081900360640190fd5b506000611a33612710611a1d898963ffffffff612de416565b81611a2457fe5b8891900463ffffffff61276316565b90508d15611b0e57611a44816139c8565b600b54600a54919a50919250611b0a9160ff16908b90611a6a908e63ffffffff612de416565b81611a7157fe5b600354604080516370a0823160e01b81523060048201529051939092049286926001600160a01b03909216916370a08231916024808301926020929190829003018186803b158015611ac257600080fd5b505afa158015611ad6573d6000803e3d6000fd5b505050506040513d6020811015611aec57600080fd5b5051600c54600a54611b04908b63ffffffff61276316565b88613ba8565b600c555b600354611b25906001600160a01b03168083613122565b5050505050600080600360009054906101000a90046001600160a01b03166001600160a01b03166389afcb448d6040518263ffffffff1660e01b815260040180826001600160a01b03166001600160a01b031681526020019150506040805180830381600087803b158015611b9957600080fd5b505af1158015611bad573d6000803e3d6000fd5b505050506040513d6040811015611bc357600080fd5b5080516020909101519092509050611bdb8385613f73565b50600954600160a01b900460ff16611bf35780611bf5565b815b600954909a50600160a01b900460ff16611c0f5781611c11565b805b9850611c1f8a8a878f613d40565b60408051632770a7eb60e21b81523060048201526024810189905290516001600160a01b038a1691639dc29fac91604480830192600092919082900301818387803b158015611c6d57600080fd5b505af1158015611c81573d6000803e3d6000fd5b505050508a15611cb557600a548690611ca0908963ffffffff612de416565b81611ca757fe5b600a80549290910490910390555b611cbd6132a0565b505060408051338152602081018c90528082018b905290517fb83dbb1f0386f1b6d6f534f325d617e3f96f2971cca29021702094328c1cb70c9181900360600190a150506000805460ff191660011790555095989497509395505050505050565b60125481565b60135481565b60008054819060ff16611d72576040805162461bcd60e51b815260206004820152601f6024820152600080516020614f5c833981519152604482015290519081900360640190fd5b6000805460ff19169055601754158015611df757506004805460408051635c975abb60e01b815290516001600160a01b0390921692635c975abb928282019260209290829003018186803b158015611dc957600080fd5b505afa158015611ddd573d6000803e3d6000fd5b505050506040513d6020811015611df357600080fd5b5051155b611e31576040805162461bcd60e51b8152602060048083019190915260248201526305a3a20560e41b604482015290519081900360640190fd5b600154604080516370a0823160e01b815230600482015290516000926001600160a01b0316916370a08231916024808301926020929190829003018186803b158015611e7c57600080fd5b505afa158015611e90573d6000803e3d6000fd5b505050506040513d6020811015611ea657600080fd5b5051600254604080516370a0823160e01b815230600482015290519293506000926001600160a01b03909216916370a0823191602480820192602092909190829003018186803b158015611ef957600080fd5b505afa158015611f0d573d6000803e3d6000fd5b505050506040513d6020811015611f2357600080fd5b50519050611f30826130e4565b611f39816130e4565b600080611f4461408c565b915091506000826001600160701b0316118015611f6a57506000816001600160701b0316115b15611f9357611f8d826001600160701b0316826001600160701b03168686614155565b90945092505b600a839055670de0b6b3a7640000600c819055611fb49084906000826141b0565b50600b805460ff1916911515919091179055600e55600754604080516340c10f1960e01b81526000600482018190526103e8602483015291516001600160a01b03909316926340c10f199260448084019391929182900301818387803b15801561201d57600080fd5b505af1158015612031573d6000803e3d6000fd5b5050600654604080516340c10f1960e01b81526000600482018190526103e8602483015291516001600160a01b0390931694506340c10f1993506044808201939182900301818387803b15801561208757600080fd5b505af115801561209b573d6000803e3d6000fd5b505050506120b46103e88461276390919063ffffffff16565b94506120f16103e86120d26002600e54612de490919063ffffffff16565b6120ea87670de0b6b3a764000063ffffffff612de416565b8161095357fe5b95506000600460009054906101000a90046001600160a01b03166001600160a01b031663a3ad52b86040518163ffffffff1660e01b815260040160206040518083038186803b15801561214357600080fd5b505afa158015612157573d6000803e3d6000fd5b505050506040513d602081101561216d57600080fd5b5051905061217a816142b9565b600754604080516340c10f1960e01b81526001600160a01b038b81166004830152602482018a9052915191909216916340c10f1991604480830192600092919082900301818387803b1580156121cf57600080fd5b505af11580156121e3573d6000803e3d6000fd5b5050600654604080516340c10f1960e01b81526001600160a01b038d81166004830152602482018d905291519190921693506340c10f199250604480830192600092919082900301818387803b15801561223c57600080fd5b505af1158015612250573d6000803e3d6000fd5b5050600e54600f819055436014556015555061226c90506132a0565b5050600160178190556000805460ff19169091179055509496939550929350505050565b600f5481565b601754600114801561231357506004805460408051635c975abb60e01b815290516001600160a01b0390921692635c975abb928282019260209290829003018186803b1580156122e557600080fd5b505afa1580156122f9573d6000803e3d6000fd5b505050506040513d602081101561230f57600080fd5b5051155b61234d576040805162461bcd60e51b8152602060048083019190915260248201526305a3a20560e41b604482015290519081900360640190fd5b565b6003546001600160a01b031633146123ca57600360009054906101000a90046001600160a01b03166001600160a01b03166311816b046040518163ffffffff1660e01b8152600401600060405180830381600087803b1580156123b157600080fd5b505af11580156123c5573d6000803e3d6000fd5b505050505b600360009054906101000a90046001600160a01b03166001600160a01b031663145f3c276040518163ffffffff1660e01b8152600401600060405180830381600087803b15801561241a57600080fd5b505af115801561242e573d6000803e3d6000fd5b50505050600080612440600080612c6b565b91509150600061244e6103a8565b600e549092509050831580159061246457508215155b1561275d5760008061248461247f878763ffffffff612de416565b61463e565b600d54600f54919250879187916000916124a890610646878463ffffffff61276316565b816124af57fe5b049050801561259a57670de0b6b3a76400006124d1898363ffffffff612de416565b600202816124db57fe5b04945060006124fe886001600160701b0316600a5461276390919063ffffffff16565b600b54600a549192506125959160ff90911690612521898563ffffffff612de416565b8161252857fe5b04600c5461254a8c6001600160701b0316600a5461276390919063ffffffff16565b670de0b6b3a76400006125658a89830363ffffffff612de416565b8161256c57fe5b04670de0b6b3a76400006125888a8a830363ffffffff612de416565b8161258f57fe5b04612eac565b600c55505b5050600a8054840190819055600c546125be92506001600160701b038716886141b0565b50600b805460ff1916911515919091179055600e556125db614690565b600d8190556013546000906125f790439063ffffffff61276316565b905080156126f0576000600460009054906101000a90046001600160a01b03166001600160a01b031663ed6b92cd6040518163ffffffff1660e01b815260040160206040518083038186803b15801561264f57600080fd5b505afa158015612663573d6000803e3d6000fd5b505050506040513d602081101561267957600080fd5b5051601254909150600090600a43919091031161269757600061269c565b600a83045b90506126b1600183018263ffffffff612e4716565b6126ca6011548460105402612e4790919063ffffffff16565b816126d157fe5b04601055600e546126e290876148b2565b601155505043601355612712565b61270e6126ff600e54866148b2565b6011549063ffffffff612e4716565b6011555b600a54600c54600e5460408051938452602084019290925282820152517f54964c70825f65946c2e16cd62d98784e0536cf3d54b15ce1845f37f325945d29181900360600190a15050505b50505050565b808203828111156127b3576040805162461bcd60e51b815260206004820152601560248201527464732d6d6174682d7375622d756e646572666c6f7760581b604482015290519081900360640190fd5b92915050565b6000806127ca6010546011546148e2565b90506000600460009054906101000a90046001600160a01b03166001600160a01b0316635942f95e6040518163ffffffff1660e01b815260040160206040518083038186803b15801561281c57600080fd5b505afa158015612830573d6000803e3d6000fd5b505050506040513d602081101561284657600080fd5b5051600854600e5460408051630134dce560e11b81526004810192909252519293506001600160a01b0390911691630269b9ca91602480820192602092909190829003018186803b15801561289a57600080fd5b505afa1580156128ae573d6000803e3d6000fd5b505050506040513d60208110156128c457600080fd5b505192508082106129da576012544303600082670de0b6b3a7640000816128e757fe5b049050808211156128fb57436012556129d7565b60048054604080516315f4859960e11b815290516129969389936001600160a01b031692632be90b329281830192602092829003018186803b15801561294057600080fd5b505afa158015612954573d6000803e3d6000fd5b505050506040513d602081101561296a57600080fd5b505161271086612980898363ffffffff612de416565b8161298757fe5b0403019063ffffffff612e4716565b945061271085106129d7576040805162461bcd60e51b81526020600482015260066024820152650b474408ca8960d31b604482015290519081900360640190fd5b50505b505090565b600061271083850204806129f65784915050612c64565b8215612a1e57600254600854612a19916001600160a01b03908116911683613122565b612bf6565b600154600354612a3b916001600160a01b03908116911683613122565b600080612a4661408c565b915091506000612ada600560009054906101000a90046001600160a01b03166001600160a01b03166398118cb46040518163ffffffff1660e01b815260040160206040518083038186803b158015612a9d57600080fd5b505afa158015612ab1573d6000803e3d6000fd5b505050506040513d6020811015612ac757600080fd5b505185906127100363ffffffff612de416565b90506000612b0982612afd6001600160701b03871661271063ffffffff612de416565b9063ffffffff612e4716565b612b22836001600160701b03861663ffffffff612de416565b81612b2957fe5b6003546009549290910492506001600160a01b03169063022c0d9f90600160a01b900460ff16612b595782612b5c565b60005b600954600160a01b900460ff16612b74576000612b76565b835b600854604080516001600160e01b031960e087901b168152600481019490945260248401929092526001600160a01b0316604483015260806064830152600060848301819052905160c48084019382900301818387803b158015612bd957600080fd5b505af1158015612bed573d6000803e3d6000fd5b50505050505050505b600860009054906101000a90046001600160a01b03166001600160a01b03166303f187ea6040518163ffffffff1660e01b8152600401600060405180830381600087803b158015612c4657600080fd5b505af1158015612c5a573d6000803e3d6000fd5b5050509085039150505b9392505050565b600080600080612c7961408c565b600354604080516370a0823160e01b815230600482015290519395509193506000926001600160a01b03909116916370a08231916024808301926020929190829003018186803b158015612ccc57600080fd5b505afa158015612ce0573d6000803e3d6000fd5b505050506040513d6020811015612cf657600080fd5b5051600354604080516318160ddd60e01b815290519293506000926001600160a01b03909216916318160ddd91600480820192602092909190829003018186803b158015612d4357600080fd5b505afa158015612d57573d6000803e3d6000fd5b505050506040513d6020811015612d6d57600080fd5b50519050811580612d7c575080155b15612d905787879550955050505050612ddd565b80612daa6001600160701b0386168463ffffffff612de416565b81612db157fe5b0481612dcc6001600160701b0386168563ffffffff612de416565b81612dd357fe5b0495509550505050505b9250929050565b6000811580612dff57505080820282828281612dfc57fe5b04145b6127b3576040805162461bcd60e51b815260206004820152601460248201527364732d6d6174682d6d756c2d6f766572666c6f7760601b604482015290519081900360640190fd5b808201828110156127b3576040805162461bcd60e51b815260206004820152601460248201527364732d6d6174682d6164642d6f766572666c6f7760601b604482015290519081900360640190fd5b6000818310612ea55781612c64565b5090919050565b600080612ed286670de0b6b3a76400006002820a5b0403670de0b6b3a76400000261463e565b90506000868210612ee557818701612ee9565b8187035b9050600086612f0686670de0b6b3a764000063ffffffff612de416565b81612f0d57fe5b0490508181670de0b6b3a76400000281612f2357fe5b0490508980612f3a5750670de0b6b3a76400008110155b156130d25789158015612f7657508087612f628b670de0b6b3a764000063ffffffff612de416565b81612f6957fe5b04670de0b6b3a764000001105b15612f86578793505050506130da565b8860008b612fc55786886002612fad670de0b6b3a763ffff1987018d63ffffffff612de416565b81612fb457fe5b040281612fbd57fe5b048801612fc7565b875b905060008c612ffc576002612fed670de0b6b3a763ffff1986018c63ffffffff612de416565b81612ff457fe5b048801612ffe565b875b905060008d61302d57670de0b6b3a7640000613020868d63ffffffff612de416565b8161302757fe5b0461302f565b8a5b905060008361306a600287048c018c6002026130548f8a612de490919063ffffffff16565b8161305b57fe5b048e019063ffffffff612de416565b8161307157fe5b04905082613085828463ffffffff612de416565b8161308c57fe5b0498508b85016130a28a8f63ffffffff612de416565b816130a957fe5b049850670de0b6b3a76400008910156130c857670de0b6b3a764000098505b50505050506130d6565b8793505b5050505b9695505050505050565b60008111610b79576040805162461bcd60e51b815260206004808301919091526024820152632d1d102d60e11b604482015290519081900360640190fd5b60408051808201825260198152787472616e7366657228616464726573732c75696e743235362960381b60209182015281516001600160a01b0385811660248301526044808301869052845180840390910181526064909201845291810180516001600160e01b031663a9059cbb60e01b1781529251815160009460609489169392918291908083835b602083106131cb5780518252601f1990920191602091820191016131ac565b6001836020036101000a0380198251168184511680821785525050505050509050019150506000604051808303816000865af19150503d806000811461322d576040519150601f19603f3d011682016040523d82523d6000602084013e613232565b606091505b5091509150818015613260575080511580613260575080806020019051602081101561325d57600080fd5b50515b613299576040805162461bcd60e51b81526020600482015260056024820152642d1d102a2360d91b604482015290519081900360640190fd5b5050505050565b600154604080516370a0823160e01b81523060048201529051600092839283926001600160a01b03909216916370a0823191602480820192602092909190829003018186803b1580156132f257600080fd5b505afa158015613306573d6000803e3d6000fd5b505050506040513d602081101561331c57600080fd5b5051600254604080516370a0823160e01b815230600482015290519293506000926001600160a01b03909216916370a0823191602480820192602092909190829003018186803b15801561336f57600080fd5b505afa158015613383573d6000803e3d6000fd5b505050506040513d602081101561339957600080fd5b505190506000806133aa8484612c6b565b915091506000600460009054906101000a90046001600160a01b03166001600160a01b031663a3ad52b86040518163ffffffff1660e01b815260040160206040518083038186803b1580156133fe57600080fd5b505afa158015613412573d6000803e3d6000fd5b505050506040513d602081101561342857600080fd5b5051905060006064613440858463ffffffff612de416565b8161344757fe5b0490506000606461345e858563ffffffff612de416565b8161346557fe5b049050613474878784846148f1565b61347e8787612c6b565b909550935061349661247f868663ffffffff612de416565b600d5560006134a36103a8565b6001600160701b03169150506134bf600a54600c5483886141b0565b6004805460408051632ca17caf60e11b81529051959f50929d506001600160a01b031693635942f95e93508282019260209290829003018186803b15801561350657600080fd5b505afa15801561351a573d6000803e3d6000fd5b505050506040513d602081101561353057600080fd5b5051600e54613540908c906148b2565b1061354a57436012555b50505050505050509091565b6004546001600160a01b0316331461234d576040805162461bcd60e51b815260206004808301919091526024820152632d1d102360e11b604482015290519081900360640190fd5b6004805460408051631475aa5760e31b8152905160009384936001600160a01b03169263a3ad52b89281830192602092829003018186803b1580156135e257600080fd5b505afa1580156135f6573d6000803e3d6000fd5b505050506040513d602081101561360c57600080fd5b5051905060006064613624878463ffffffff612de416565b8161362b57fe5b049050600085821115613662575084810380156136625780881161365d57613652836142b9565b8793505050506136d8565b928301925b80880360006136718288614b71565b905086156136bf57600080613687600080612c6b565b600b54600c54600a549395509193506136b99260ff9091169186916136b2908f63ffffffff61276316565b8686612eac565b600c5550505b9485019482156136d2576136d2856142b9565b50505050505b949350505050565b6000806000806136f1600080612c6b565b915091506000806137006103a8565b915091506000896137115782613713565b815b6001600160701b0316905060008a61372b578561372d565b845b600e54600a54919250906137468d858e86828787614d54565b995060006137548b8d612e96565b90508d1561377c578c61376d838363ffffffff612de416565b8161377457fe5b0499506137ac565b8c6137a18261064688670de0b6b3a76400006119746002848c8c63ffffffff612de416565b816137a857fe5b0499505b505050505050505050935093915050565b60008060006137cd600180612c6b565b915091506000806137dc6103a8565b600354604080516370a0823160e01b8152306004820152905193955091935060009283926001600160a01b03909216916370a08231916024808301926020929190829003018186803b15801561383157600080fd5b505afa158015613845573d6000803e3d6000fd5b505050506040513d602081101561385b57600080fd5b5051905089156138b25761387685600263ffffffff612de416565b600a546138a390613896906001600160701b03871663ffffffff61276316565b839063ffffffff612de416565b816138aa57fe5b0491506138da565b600e54670de0b6b3a7640000906138cf908363ffffffff612de416565b816138d657fe5b0491505b60008a61393957613911856001600160701b0316670de0b6b3a7640000611974600e5461064660028d612de490919063ffffffff16565b61392a8a6001600160701b03881663ffffffff612de416565b8161393157fe5b048903613960565b600a546139558a6001600160701b03871663ffffffff612de416565b8161395c57fe5b0489035b9050806139738b8563ffffffff612de416565b8161397a57fe5b049750600088116139ba576040805162461bcd60e51b81526020600482015260056024820152642d1d1021ad60d91b604482015290519081900360640190fd5b505050505050509392505050565b60008060006139d56103a8565b6001600160701b031691505060006139ee600080612c6b565b9150506000613a4e670de0b6b3a7640000613a1485600a5461276390919063ffffffff16565b613a41613a2886600263ffffffff612de416565b600e54670de0b6b3a7640000039063ffffffff612de416565b81613a4857fe5b04612e96565b9050670de0b6b3a7640000613a69828863ffffffff612de416565b81613a7057fe5b049450670de0b6b3a7640000811015613ba0576000670de0b6b3a7640000613aa08884830363ffffffff612de416565b81613aa757fe5b600354600854604080516370a0823160e01b81526001600160a01b03928316600482015290519490930494506000939116916370a08231916024808301926020929190829003018186803b158015613afe57600080fd5b505afa158015613b12573d6000803e3d6000fd5b505050506040513d6020811015613b2857600080fd5b5051905080821015613b5757600354600854613b52916001600160a01b0390811691168185614dd7565b613b9d565b600354600854613b75916001600160a01b0390811691168184614dd7565b87613b92670de0b6b3a7640000610646858563ffffffff61276316565b81613b9957fe5b0495505b50505b505050915091565b60008780613bbd5750670de0b6b3a764000084115b15613d3257868815613c69576000613be186670de0b6b3a76400006002820a612ec1565b90506000868210613bf457818701613bf8565b8187035b9050600086613c1587670de0b6b3a764000063ffffffff612de416565b81613c1c57fe5b0490508181670de0b6b3a76400000281613c3257fe5b049050613c63670de0b6b3a7640000613c5589610646838663ffffffff61276316565b81613c5c57fe5b048c612e96565b93505050505b600088613c7c898463ffffffff612de416565b81613c8357fe5b0490506000670de0b6b3a7640000600289613ca4838663ffffffff612de416565b81613cab57fe5b04670de0b6b3a7640000030a81613cbe57fe5b049050613cd1868463ffffffff61276316565b613ce1828863ffffffff612de416565b81613ce857fe5b049350670de0b6b3a7640000613d04858963ffffffff612de416565b81613d0b57fe5b049350670de0b6b3a7640000841015613d2a57670de0b6b3a764000093505b505050613d35565b50825b979650505050505050565b811561275d57838315613d8857600080613d5861408c565b6001600160701b03918216935016905081613d79878363ffffffff612de416565b81613d8057fe5b048301925050505b600083670de0b6b3a764000003613db0670de0b6b3a764000084612de490919063ffffffff16565b81613db757fe5b0490506000613dcc828463ffffffff61276316565b600254600854604080516370a0823160e01b81526001600160a01b0392831660048201529051939450849391909216916370a08231916024808301926020929190829003018186803b158015613e2157600080fd5b505afa158015613e35573d6000803e3d6000fd5b505050506040513d6020811015613e4b57600080fd5b50511115613e7657600254600854613e71916001600160a01b0390811691168684614dd7565b613f02565b600254600854604080516370a0823160e01b81526001600160a01b03928316600482018190529151613f02949390931692889184916370a0823191602480820192602092909190829003018186803b158015613ed157600080fd5b505afa158015613ee5573d6000803e3d6000fd5b505050506040513d6020811015613efb57600080fd5b5051614dd7565b600860009054906101000a90046001600160a01b03166001600160a01b0316634923b2306040518163ffffffff1660e01b8152600401600060405180830381600087803b158015613f5257600080fd5b505af1158015613f66573d6000803e3d6000fd5b5050505050505050505050565b6003546000906127108385020490613f95906001600160a01b03168083613122565b600354600854600954604080516302ce510960e41b81526001600160a01b039384166004820152600160a01b90920460ff16156024830152519190921691632ce510909160448083019260209291908290030181600087803b158015613ffa57600080fd5b505af115801561400e573d6000803e3d6000fd5b505050506040513d602081101561402457600080fd5b5050600854604080516301f8c3f560e11b815290516001600160a01b03909216916303f187ea9160048082019260009290919082900301818387803b15801561406c57600080fd5b505af1158015614080573d6000803e3d6000fd5b50505093039392505050565b600080600080600360009054906101000a90046001600160a01b03166001600160a01b0316630902f1ac6040518163ffffffff1660e01b815260040160606040518083038186803b1580156140e057600080fd5b505afa1580156140f4573d6000803e3d6000fd5b505050506040513d606081101561410a57600080fd5b5080516020909101516009549193509150600160a01b900460ff1661412f5780614131565b815b600954909450600160a01b900460ff1661414b578161414d565b805b925050509091565b600080808561416a888663ffffffff612de416565b8161417157fe5b0490508481111561419f5784925086614190848863ffffffff612de416565b8161419757fe5b0491506141a6565b8092508391505b5094509492505050565b60008080806141c685600263ffffffff612de416565b905060006141da898863ffffffff61276316565b905060006141f489670de0b6b3a76400006002820a612ec1565b9050600089821061420757818a0161420b565b818a035b9050670de0b6b3a7640000614226848363ffffffff612de416565b8161422d57fe5b0494508488111561425d578383670de0b6b3a7640000028161424b57fe5b04670de0b6b3a76400000396506142ab565b6004830261427985670de0b6b3a764000063ffffffff612de416565b8161428057fe5b0496508961429c88670de0b6b3a764000063ffffffff612de416565b816142a357fe5b049650600195505b505050509450945094915050565b600154604080516370a0823160e01b815230600482015290516000926001600160a01b0316916370a08231916024808301926020929190829003018186803b15801561430457600080fd5b505afa158015614318573d6000803e3d6000fd5b505050506040513d602081101561432e57600080fd5b5051600254604080516370a0823160e01b815230600482015290519293506000926001600160a01b03909216916370a0823191602480820192602092909190829003018186803b15801561438157600080fd5b505afa158015614395573d6000803e3d6000fd5b505050506040513d60208110156143ab57600080fd5b505190506000806143bc8484612c6b565b9092509050600060c86143d5848863ffffffff612de416565b816143dc57fe5b049050600060c86143f3848963ffffffff612de416565b816143fa57fe5b049050816001600160701b03168611801561441d5750806001600160701b031685115b156145e55760008061442d61408c565b6001600160701b031691506001600160701b03169150600080836000148015614454575082155b1561449f576144958a8a614477826001600160701b038b1663ffffffff61276316565b6144908d6001600160701b038b1663ffffffff61276316565b614155565b90925090506144c3565b6144bd84846144778d6001600160701b038b1663ffffffff61276316565b90925090505b6017546001141561451c5760006144d86103a8565b6001600160701b0316915050614517600b60009054906101000a900460ff1683600c5461451085600a5461276390919063ffffffff16565b8d8d612eac565b600c55505b811561453f5760015460035461453f916001600160a01b03908116911684613122565b801561456257600254600354614562916001600160a01b03908116911683613122565b600354604080516335313c2160e11b815230600482015290516001600160a01b0390921691636a627842916024808201926020929091908290030181600087803b1580156145af57600080fd5b505af11580156145c3573d6000803e3d6000fd5b505050506040513d60208110156145d957600080fd5b50614635945050505050565b600360009054906101000a90046001600160a01b03166001600160a01b031663145f3c276040518163ffffffff1660e01b8152600401600060405180830381600087803b158015613f5257600080fd5b50505050505050565b60006003821115614681575080600160028204015b8181101561467b5780915060028182858161466a57fe5b04018161467357fe5b049050614653565b5061468b565b811561468b575060015b919050565b6004805460408051637945980160e01b8152905143936001600160a01b0390931692637945980192808201926020929091829003018186803b1580156146d557600080fd5b505afa1580156146e9573d6000803e3d6000fd5b505050506040513d60208110156146ff57600080fd5b50516014548290031115610b7957600e54601554808210156706f05b59d3b2000083101580821461486257600081156147465750600e546706f05b59d3b1ffff1901614755565b50600e546706f05b59d3b20000035b8215614820576000670de0b6b3a76400006147f4600460009054906101000a90046001600160a01b03166001600160a01b031663c0972f7a6040518163ffffffff1660e01b815260040160206040518083038186803b1580156147b757600080fd5b505afa1580156147cb573d6000803e3d6000fd5b505050506040513d60208110156147e157600080fd5b505187890390850263ffffffff612de416565b816147fb57fe5b049050670de0b6b3a7640000600f5482011161481a57600f8054820190555b5061485c565b6000670de0b6b3a764000061483d8787038463ffffffff612de416565b8161484457fe5b049050600f54811161485a57600f805482900390555b505b506148a7565b811561488e57600f5483850390670de0b6b3a76400009082011161485c57600f805482019055506148a7565b600f548484039081116148a557600f805482900390555b505b505050601555601455565b60008183106148d2576148cb838363ffffffff61276316565b90506127b3565b612c64828463ffffffff61276316565b6000818311612ea55781612c64565b83826001600160701b031610156149e457600154600354614937916001600160a01b039081169116614932876001600160701b03871663ffffffff61276316565b613122565b600354600954604080516321913af360e11b8152306004820152600160a01b90920460ff1615156024830152516001600160a01b039092169163432275e6916044808201926060929091908290030181600087803b15801561499857600080fd5b505af11580156149ac573d6000803e3d6000fd5b505050506040513d60608110156149c257600080fd5b5050601680546001600160701b0319166001600160701b038416179055614a00565b601680546001600160701b0319166001600160701b0386161790555b82816001600160701b03161015614af657600254600354614a41916001600160a01b039081169116614932866001600160701b03861663ffffffff61276316565b600354600954604080516321913af360e11b8152306004820152600160a01b90920460ff16156024830152516001600160a01b039092169163432275e6916044808201926060929091908290030181600087803b158015614aa157600080fd5b505af1158015614ab5573d6000803e3d6000fd5b505050506040513d6060811015614acb57600080fd5b505060168054600160701b600160e01b031916600160701b6001600160701b03841602179055614b1b565b60168054600160701b600160e01b031916600160701b6001600160701b038616021790555b601654604080516001600160701b038084168252600160701b909304909216602083015280517f1d96001f313f6446e46c7776b79d231589555627a46fa2388f3220937fc79e519281900390910190a150505050565b6000806000614b7e61408c565b90925090506000614ba461247f6001600160701b0380861690851663ffffffff612de416565b90506000612710614c486002600560009054906101000a90046001600160a01b03166001600160a01b03166398118cb46040518163ffffffff1660e01b815260040160206040518083038186803b158015614bfe57600080fd5b505afa158015614c12573d6000803e3d6000fd5b505050506040513d6020811015614c2857600080fd5b505181614c3157fe5b8a916000199104612710030163ffffffff612de416565b81614c4f57fe5b049050600086614c8257614c7d61247f6001600160701b03808716906106469089168663ffffffff612e4716565b614cb7565b614cb761247f614ca16001600160701b0387168563ffffffff612e4716565b6001600160701b0388169063ffffffff612de416565b9050600083614cd8670de0b6b3a7640000610646858463ffffffff61276316565b81614cdf57fe5b04905087614d1957670de0b6b3a7640000614d0c6001600160701b0388166002840263ffffffff612de416565b81614d1357fe5b04614d47565b670de0b6b3a7640000614d3e6001600160701b0387166002840263ffffffff612de416565b81614d4557fe5b045b9998505050505050505050565b60008715614d7c5781614d6d888863ffffffff612de416565b81614d7457fe5b049050613d35565b614db3670de0b6b3a7640000614d9d6002610646898863ffffffff612de416565b81614da457fe5b8691900463ffffffff612e4716565b614dc3888863ffffffff612de416565b81614dca57fe5b0498975050505050505050565b60006060856001600160a01b0316604051806060016040528060258152602001614f7c602591398051602091820120604080516001600160a01b03808b166024830152891660448201526064808201899052825180830390910181526084909101825292830180516001600160e01b03166001600160e01b0319909316929092178252518251909182918083835b60208310614e845780518252601f199092019160209182019101614e65565b6001836020036101000a0380198251168184511680821785525050505050509050019150506000604051808303816000865af19150503d8060008114614ee6576040519150601f19603f3d011682016040523d82523d6000602084013e614eeb565b606091505b5091509150818015614f19575080511580614f195750808060200190516020811015614f1657600080fd5b50515b614f53576040805162461bcd60e51b81526020600482015260066024820152652d1d102a232360d11b604482015290519081900360640190fd5b50505050505056fe5265656e7472616e637947756172643a207265656e7472616e742063616c6c007472616e7366657246726f6d28616464726573732c616464726573732c75696e7432353629a265627a7a72315820f4388639c76ed731478f8284c6f10621a83f0c13453ef478699a36949a90d34d64736f6c63430005100032",
  "linkReferences": {},
  "deployedLinkReferences": {}
}